:1000000090C00000A9C00000A7C00000A5C000006B
:10001000A3C00000A1C000009FC000009DC0000060
:100020009BC0000099C0000097C0000019C40000E8
:10003000BEC4000091C000008FC000008DC0000051
:100040008BC0000089C0000087C0000085C0000090
:1000500083C0000081C000007FC00000E8C1000034
:100060007BC0000079C0000077C0000075C00000B0
:1000700073C0000024034100720064007500690031
:100080006E006F0020004D006500670061002000D9
:1000900032003500360030000000320341007200AB
:1000A0006400750069006E006F0020002800770072
:1000B000770077002E00610072006400750069000F
:1000C0006E006F002E00630063002900000004032F
:1000D000090409023E00020100C0320904000001C7
:1000E0000202010005240001100424020605240672
:1000F0000001070582030800FF09040100020A004D
:1001000000000705040240000107058302400001CA
:100110001201100102000008EB034B200100010254
:10012000DC0111241FBECFEFD2E0DEBFCDBF11E056
:10013000A0E0B1E0EEE8FFE002C005900D92A6312C
:10014000B107D9F722E0A6E1B1E001C01D92AF32BC
:10015000B207E1F749D00FC753CF9C01DC01AE577E
:10016000BF4FED91FC9111978191A90140585F4FCC
:10017000E417F50761F0ED93FC934FB7F894F9019C
:10018000EC57FF4F9081915090834FBF08952D936E
:100190003C93F3CF84B7877F84BF0FB6F894A895BC
:1001A00080916000886180936000109260000FBEB3
:1001B00087E690E09093CD008093CC0086E080931A
:1001C000CA001092C80088E18093C900539A5A9AD5
:1001D0008AB180638AB98BB180638BB936D384E0EE
:1001E00085BD5F9A579A0895D5DF2FB7F8948EE9A9
:1001F00091E090931F0280931E02909321028093BE
:1002000020022FBF2FB7F89489E191E090939A01D3
:100210008093990190939C0180939B012FBF7894C8
:100220000EE911E0D3E09FB7F894809122029FBFBE
:10023000803809F180E091E04CD697FD1CC0E09138
:100240001E02F0911F02808380911E0290911F0276
:100250009C012F5F3F4F8D51924009F44FC0309366
:100260001F0220931E029FB7F894809122028F5F95
:10027000809322029FBF8FB7F894C0919D018FBFDA
:10028000A89902C0C13610F1A89A80919D018823D7
:1002900019F05D98D0931601C150A8F58091160110
:1002A000882341F0809116018150809316018111BD
:1002B00001C05D9A80911701882341F08091170158
:1002C000815080931701811101C05C9A9FB7F89407
:1002D000809122029FBF882361F08EE991E03DDF8B
:1002E0009091C80095FFFCCF8093CE005C98D0938E
:1002F000170180E091E0DED5D3D495CF10931F0293
:1003000000931E02B0CF89E191E027DF682F80E0E3
:1003100091E082D5C1CF80E091E03AC580E091E0E4
:10032000D1C48F929F92AF92BF92FF920F931F936F
:10033000CF93DF9300D000D00F92CDB7DEB78C0102
:10034000DC0154968C9190E3F92E813029F020E263
:10035000F22E823009F0F12CF8018389823011F4F9
:100360006894F3F8D80155968C91873009F453C0FE
:10037000883009F453C0863011F46894F1F8109273
:10038000C9001092C8001092CA00F8012785308970
:10039000418952892115F1EE3F074105510509F4C4
:1003A00041C049015A01B694A79497948794D50106
:1003B000C40180589B47A14EBF4F89839A83AB836A
:1003C000BC83BC01CD01AFD5215031093093CD00A4
:1003D0002093CC00F092CA00F80187859089A1890A
:1003E000B2898115914EA105B105F9F082E08093A3
:1003F000C80088E98093C9000F900F900F900F906C
:100400000F90DF91CF911F910F91FF90BF90AF9010
:100410009F908F9008956894F2F8B1CFBF2DB66089
:10042000FB2EADCF20E130E0D1CF80E0E0CF2F93A5
:100430002FB72F938F939F93EF93FF938091CE00CD
:100440009EB39430D9F4E0919901F0919A018083A0
:10045000E0919901F0919A01CF01019621E0E839EC
:10046000F207A1F090939A01809399019FB7F894B5
:1004700080919D018F5F80939D019FBFFF91EF91C0
:100480009F918F912F912FBF2F91189589E191E026
:1004900092838183EBCFFC01858580FF02C05F984A
:1004A00008955F9A08959C01DA01832F992782307D
:1004B000910529F18330910549F0019791F482E18A
:1004C00090E020E131E02D933C930895C9019927F4
:1004D000213061F08230910579F0EEECF0E0892B6B
:1004E00039F090E080E030E020E0EDCFEAE9F0E0A4
:1004F000849190E09F01E7CFE4E7F0E0F9CF8EE34D
:1005000090E022ED30E0DFCFAC0128E030E080E089
:100510002417350718F08295807F08958F5F220F8A
:10052000331FF6CF8093E900EBEEF0E0808181602D
:100530008083EDEEF0E010826093EC0040838091C8
:10054000EE00881F8827881F08951092F40080E02D
:100550008093E9001092F0001092E8001092ED00F4
:100560009091EB009E7F9093EB008F5F853081F739
:1005700008958091270287FF11C08091E80082FFD3
:1005800006C08091E8008B778093E80003C08EB3AB
:100590008111F3CF08958EB38823E1F38091E800B1
:1005A00080FFF9CF8091E8008E77EECF95E620911D
:1005B000EC00822F817020FF06C08091E80080FF50
:1005C00006C080E008952091E80022FD1CC08EB393
:1005D0008823A1F08EB3853099F08091EB0085FDE2
:1005E00011C08091E10082FFE2CF8091E1008B7F1A
:1005F0008093E1009150D9F684E0089582E0089557
:1006000083E0089581E008959B0140912D0250916F
:100610002E024617570798F0672B29F44091E800FF
:100620004E774093E80050E02115310551F4511107
:1006300008C08091E80082FF30C080E008959A01F0
:10064000F2CF4091E80043FD30C04091E80042FD08
:10065000F0CF4EB3442359F14EB3453021F14091D0
:10066000E80040FFE1CF4091F2002115310511F083
:10067000483050F051E0483009F050E04091E80037
:100680004E774093E800D0CFFC0181918093F10038
:10069000215031094F5FCF01E8CF8EB3882339F065
:1006A0008EB3853031F683E0089581E0089582E0CD
:1006B00008959B0140912D0250912E024617570735
:1006C00098F0672B29F44091E8004E774093E800BA
:1006D00050E02115310551F4511108C08091E80016
:1006E00082FF31C080E008959A01F2CF4091E80086
:1006F00043FD31C04091E80042FDF0CF4EB34423AA
:1007000061F14EB3453029F14091E80040FFE1CF5F
:100710004091F200FC01CF012115310511F0483064
:1007200050F051E0483009F050E04091E8004E7739
:100730004093E800CECF84918093F100215031099D
:100740004F5F3196E8CF8EB3882339F08EB3853072
:1007500029F683E0089581E0089582E008959B01E1
:10076000672B29F44091E8004B774093E80021156E
:10077000310531F48091E80080FF1DC080E00895CC
:100780004091E80043FD1FC04EB34423F1F04EB347
:100790004530B9F04091E80042FFE9CF4091F200C6
:1007A000442301F3FC018091F10081932150310930
:1007B000CF01A1F7D7CF8EB3882339F08EB3853020
:1007C000C9F683E0089581E0089582E0089542D05B
:1007D00044D01EBA109225021092240210922302D5
:1007E00084E089BD89B5826089BD09B400FEFDCF72
:1007F0008091D800982F9F779093D800806880933D
:10080000D800809163008E7F809363008091D80030
:100810008F7D8093D8008091E0008E7F8093E000F0
:100820008091E1008E7F8093E1008091E200816001
:100830008093E2008091E100877F8093E1008091C6
:10084000E20088608093E2000895C1DF81E0809338
:10085000260208951092E20008951092E100089592
:100860001F920F920FB60F9211242F933F934F9325
:100870005F936F937F938F939F93AF93BF93EF9308
:10088000FF938091E10080FF1BC08091E20080FF18
:1008900017C08091E1008E7F8093E1008091E2009B
:1008A0008E7F8093E2008091E20080618093E2007D
:1008B0008091D80080628093D80019BC1EBAEFD115
:1008C0008091E10084FF27C08091E20084FF23C073
:1008D00084E089BD89B5826089BD09B400FEFDCF81
:1008E0008091D8008F7D8093D8008091E1008F7E29
:1008F0008093E1008091E2008F7E8093E2008091FE
:10090000E20081608093E2008091250281114DC058
:1009100081E08EBBC4D18091E10083FF27C080912C
:10092000E20083FF23C08091E100877F8093E10094
:1009300082E08EBB109225028091E1008E7F809331
:10094000E1008091E2008E7F8093E2008091E200DE
:1009500080618093E200F9DD42E060E080E0E2DD6A
:100960008091F00088608093F00099D18091E1003F
:1009700082FF0AC08091E20082FF06C08091E10000
:100980008B7F8093E1008BD1FF91EF91BF91AF916D
:100990009F918F917F916F915F914F913F912F9197
:1009A0000F900FBE0F901F90189584E0B2CF1F924A
:1009B0000F920FB60F921124FF920F931F932F9354
:1009C0003F934F935F936F937F938F939F93AF93D7
:1009D000BF93CF93DF93EF93FF93C9EED0E088816D
:1009E0008770F82E188200EF10E0F8018081877F71
:1009F000808378941DD0F8941882F80180818860F3
:100A00008083F882FF91EF91DF91CF91BF91AF91F9
:100A10009F918F917F916F915F914F913F912F9116
:100A20001F910F91FF900F900FBE0F901F90189580
:100A30001F93CF93DF93CDB7DEB7AA970FB6F89485
:100A4000DEBF0FBECDBF87E292E0FC010196209190
:100A5000F100208322E08F329207B9F780912702BC
:100A6000909128029A3008F004C1E92FF0E0E35495
:100A7000F84F7BC2803881F0823809F0FAC080914B
:100A80002B0287708093E9008091EB0085FB88271B
:100A900080F91092E90006C080912302909124020F
:100AA000911182609091E800977F9093E800809385
:100AB000F1001092F1008091E8008E77ECC088235D
:100AC00009F4D9C0823009F0D4C080912902811183
:100AD000DDC080912B02877009F43CC08093E9004F
:100AE0002091EB0020FF36C0933031F48091EB0071
:100AF00080628093EB00CAC09091EB00906190936C
:100B0000EB0021E030E001C0220F8A95EAF7209344
:100B1000EA001092EA008091EB008860EACF811130
:100B2000A8C0109129028091E800877F8093E80097
:100B300020DD8091E80080FF0AC0812F8F7792E04E
:100B400009F093E09EBB80688093E30003C08EB3FE
:100B50008111EFCF8091E80083FF0AC08091EB0004
:100B600080628093EB008091E800877F8093E800AB
:100B7000AA960FB6F894DEBF0FBECDBFDF91CF911E
:100B80001F9108958058823008F073C08091290227
:100B900090912A028C3D23E0920799F583E08A83A5
:100BA0008AE289834FB7F894DE01139620E03EE095
:100BB00051E2E32FF0E050935700E49120FF03C08F
:100BC000E295EF703F5FEF7080E38E0F8A3310F095
:100BD00087E38E0F90E08D939D932F5F243149F72B
:100BE0004FBF8091E800877F8093E8006AE270E061
:100BF000CE01019609DD8091E8008B778093E800B3
:100C0000A9CFAE014F5F5F4F60912B024CDCBC015E
:100C1000892B09F49FCF8091E800877F8093E800BB
:100C200089819A8146DDE7CF803819F58091E80007
:100C3000877F8093E800809125028093F1003BCF6D
:100C4000811117C090912902923008F083CF8091D2
:100C5000E800877F8093E800909325028ADC8091EA
:100C60002502811104C083E08EBB55DB73CF84E085
:100C7000FBCF54DB6FCF80912902813009F06ACF1E
:100C800081E0933009F080E0809324021092E90023
:100C90008091E800877F8093E8006BDC5BCF08954C
:100CA000CF938EB3882359F0C091E900C77010929A
:100CB000E9008091E80083FDBBDEC093E900CF919D
:100CC00008950895CF93DF93EC018091E80083FFAE
:100CD00012C0288180912B0290912C0228171906AE
:100CE00051F480912802823209F440C038F48032F5
:100CF00049F1813299F0DF91CF9108958332D9F78C
:100D0000809127028132B9F78091E800877F809334
:100D1000E80060912902CE01D4DF37C0809127021C
:100D2000813A49F78091E800877F8093E80067E087
:100D300070E0CE010F9668DC8091E8008B7780939D
:100D4000E800D9CF809127028132A9F68091E8008E
:100D5000877F8093E80067E070E0CE010F96FFDCAC
:100D6000CE01DFDA8091E8008E77E9CF809127020B
:100D7000813209F0C0CF8091E800877F8093E8003E
:100D8000809129028D87CE0186DBDF91CF91F1CB57
:100D90000F931F93CF93DF93EC01FC013D9689E005
:100DA000DF011D928A95E9F78A819B812C8110E0F1
:100DB000211114E00981A8DB412F482B426061E832
:100DC000802FB0DB882311F18E819F81288510E070
:100DD000211114E00D8198DB412F482B426060E81F
:100DE000802FA0DB882391F08A859B852C8510E0DD
:100DF000211114E0C98588DB412F482B426061EC4A
:100E00008C2FDF91CF911F910F918CCB80E0DF91E0
:100E1000CF911F910F910895CF93FC01C62F8EB3F0
:100E20008430E9F487859089A189B289892B8A2B3E
:100E30008B2BA9F081818093E9008091E80085FFE8
:100E400005C0C093F10080E0CF9108958091E80043
:100E50008E778093E800AADB882399F3F5CF82E0B0
:100E6000F3CFFC018EB3843019F587859089A18971
:100E7000B289892B8A2B8B2BD9F081818093E90051
:100E80008091F200811102C080E008959091E80005
:100E90008091E8008E778093E80095FDF5CF86DBA2
:100EA000811107C09091E8009E779093E800089523
:100EB00082E00895FC018EB3843051F487859089D7
:100EC000A189B289892B8A2B8B2B11F0CF01C9CF35
:100ED0000895FC018EB3843019F08FEF9FEF0895D1
:100EE00087859089A189B289892B8A2B8B2BA9F3BD
:100EF00085818093E9008091E80082FFEECF8091A8
:100F0000F200882369F08091F10090E02091F200D6
:100F1000211105C02091E8002B772093E800089567
:100F20008FEF9FEFF3CFA1E21A2EAA1BBB1BFD018F
:100F30000DC0AA1FBB1FEE1FFF1FA217B307E407B8
:100F4000F50720F0A21BB30BE40BF50B661F771F10
:100F5000881F991F1A9469F76095709580959095F0
:100F60009B01AC01BD01CF010895EE0FFF1F05905D
:100F7000F491E02D0994F894FFCF3A055F05390606
:0E0F80005F0539068F05C205390614062006E6
:100F8E0000034000000440000002080000000000C2
:060F9E000000000000004D
:00000001FF
