:100000000C9436010C94940A0C94690A0C943E0AE0
:100010000C94130A0C94E8090C94BD090C949209F1
:100020000C9467090C9467010C9467010C946701A8
:100030000C9467010C9467010C9467010C946701A0
:100040000C9467010C9467010C9467010C94670190
:100050000C9467010C9467010C9467010C941D09C2
:100060000C9467010C94910B0C94670B0C94670132
:100070000C9467010C9467010C9467010C94670160
:100080000C9467010C9467010C9467010C94670150
:100090000C9467010C9467010C9467010C94670140
:1000A0000C9467010C9467010C9467010C94670130
:1000B0000C9467010C9467010C9467010C94670120
:1000C0000C9467010C9467010C9467010C943D0B30
:1000D0000C94130B0C9467010C94E90A0C94BF0A5E
:1000E0000C9467010C94BE050C94E8030C94250451
:1000F0000C9470040C943A050C94F2030C94C9050A
:100100000C94C6030C94DE030C94A1040C94ED042F
:100110000C947F040C94E4030C942A040C94A5031F
:100120000C9429040C9493040C94A0030C94CC0319
:100130000C9421040C94D6030C94D0030C94BF05AA
:100140000C94B6050C94C3030C94EC030C94BB0301
:100150000C94DA030C94F6030C94B7030C94BB0BC9
:100160000C94BF0300000A0B02090C0D0E080703D4
:10017000040100000000000000000000000000007A
:10018000000000000000000000000000000000006F
:10019000121110000000000000000000000000002C
:1001A0000000000000000000000000002200250008
:1001B00028002B002E003100340002010000050150
:1001C00008010B0100002100240027002A002D0057
:1001D0003000330001010000040107010A01050598
:1001E0000505070508080808020202020A0A0808AD
:1001F00004040404010101010101010103030303DB
:1002000003030303040707070C0C0C0C0C0C0C0C69
:100210000202020206060606060606060B0B0B0B7A
:100220000B0B0B0B0102102020080810204010209F
:1002300040800201020108040201010204081020AA
:1002400040808040201008040201800402018040A8
:100250002010080402010804020101020408102011
:1002600040800102040810204080BB0B11241FBEF7
:10027000CFEFD1E2DEBFCDBF00E00CBF12E0A0E0C7
:10028000B2E0E2E5FCE200E00BBF02C007900D9295
:10029000A63CB107D9F724E0A6ECB2E001C01D925C
:1002A000A23FB207E1F711E0C6E3D1E000E006C0EB
:1002B00021970109802FFE010E94E215C533D10765
:1002C00080E00807A9F70E945E0C0C9427160C9496
:1002D0000000CF92DF92EF92FF92CF93DF93EC0179
:1002E0006A017B01E889F98982E08083C11481EE8B
:1002F000D806E104F104A1F060E079E08DE390E03C
:10030000A70196010E948713215031094109510923
:100310005695479537952795211580E1380798F030
:10032000E889F989108260E874E88EE190E0A7011D
:1003300096010E94871321503109410951095695B0
:10034000479537952795EC85FD853083EE85FF85AC
:100350002083188EEC89FD8986E08083EA89FB89F9
:10036000808180618083EA89FB89808188608083C5
:10037000EA89FB89808180688083EA89FB898081A2
:100380008F7D8083DF91CF91FF90EF90DF90CF90B2
:1003900008958F929F92AF92BF92FF920F931F93F7
:1003A000CF93DF936091AD0470E090E080E00E9415
:1003B000BE1420E034E244E759E40E94511520E0E5
:1003C00030E040E857E30E94511520E030EE4FEF57
:1003D00054E40E9451154B015C01CDE0D0E001E0F6
:1003E00010E0FC2EB8010C2E02C0660F771F0A9495
:1003F000E2F7072E000C880B990B0E94C0149B019A
:10040000AC01C501B4010E9416140E948814611544
:1004100072438105910558F08F2DDF91CF911F9187
:100420000F91FF90BF90AF909F908F90089521976C
:10043000C0F6F12CF1CF8F929F92AF92BF92CF92E4
:10044000DF92EF92FF920F931F93CF93DF93082FCA
:10045000162F69017A016091AD0470E090E080E0B0
:100460000E94BE144B015C0120E034E244E759E4F1
:100470000E94511520E030E040E051E30E94511508
:10048000A50194010E94511520E034E244E759E4AB
:100490000E9451154B015C01C1E0D0E0BE0102C0D9
:1004A000660F771F0A95E2F7072E000C880B990B51
:1004B0000E94C0149B01AC01C501B4010E94161436
:1004C0004B015C01BE0102C0660F771F1A95E2F76F
:1004D000072E000C880B990B0E94C0149B01AC01E5
:1004E000C501B4010E9416144B015C01C701B6019D
:1004F0000E94BE149B01AC01C501B4010E945115BC
:100500006B017C0120E030E0A9010E944C1520E045
:1005100030E040E05FE387FD13C0C701B6010E94F1
:10052000AA130E948814DF91CF911F910F91FF9021
:10053000EF90DF90CF90BF90AF909F908F900895F5
:10054000C701B6010E94A913ECCF8F929F92AF9280
:10055000BF92CF92DF92EF92FF92CF93DF93C82F9B
:10056000D62F862F660F990B8C1B9109C7FD93958B
:10057000823091050CF44EC0019761E070E06B0190
:1005800002C0CC0CDD1C8A95E2F70D2C000CEE08A5
:10059000FF080C2E02C0660F771F0A94E2F7072EA1
:1005A000000C880B990B0E94C01420E030E048E456
:1005B00056E40E9451154B015C016091AD0470E05E
:1005C00090E080E00E94BE1420E034E244E759E469
:1005D0000E9451159B01AC01C501B4010E94161483
:1005E00020E030E040E857E40E9451150E94881452
:1005F000693A754024F4F694E794D794C794C114EB
:1006000088E0D806E104F104C8F4C114D104E1047F
:10061000F10421F4C12CD12C7601C394A7019601D9
:100620006D2F8C2FDF91CF91FF90EF90DF90CF90C7
:10063000BF90AF909F908F900C941B02CC24CA94D3
:1006400087E0D82EE12CF12CE9CF262F062E000CC6
:10065000330B281B310987FD33952F3F9FEF390757
:10066000B4F4253F9FEF3907BCF0A901445F5F4F09
:1006700021E030E002C0220F331F4A95E2F72150FB
:100680003109032E000C440B550B0C941B022FEF69
:1006900037E040E050E0F9CF21E030E040E050E0CA
:1006A000F4CF90E0FC01EC5DFD4F249182529E4F0F
:1006B000FC018491882399F090E0880F991FFC0138
:1006C000EC53FE4FA591B491FC01E655FE4F859188
:1006D00094918FB7F894EC91E22BEC938FBF08952F
:1006E000282F30E0F901EC59FE4F9491F901EC5DAF
:1006F000FD4F449122523E4FF9012491222309F4E7
:1007000035C0992311F191509231F8F4E92FF0E0BE
:100710008827E257FC4F8F4F0C94E215BF03C303A9
:10072000A003B703BB03A503C603CC03D003D603C2
:10073000DA03DE03E403E803A503EC03F203F603A4
:10074000809180008F7780938000E22FF0E0EE0FA1
:10075000FF1FE655FE4FA591B4918FB7F894EC9129
:10076000611148C040954E234C938FBF08958091EE
:1007700080008F7DE8CF80918000877FE4CF84B5B3
:100780008F7784BDE2CF84B58F7DFBCF8091B000A1
:100790008F778093B000D9CF8091B0008F7DF9CF53
:1007A000809190008F7780939000CFCF80919000C0
:1007B0008F7DF9CF80919000877FF5CF8091A00049
:1007C0008F778093A000C1CF8091A0008F7DF9CF5B
:1007D0008091A000877FF5CF809120018F77809353
:1007E0002001B3CF809120018F7DF9CF809120012E
:1007F000877FF5CF4E2BB8CF3FB7F8948091CF02CB
:100800009091D002A091D102B091D20226B5A89BBE
:1008100005C02F3F19F00196A11DB11D3FBFBA2F92
:10082000A92F982F8827BC01CD01620F711D811D52
:10083000911D42E0660F771F881F991F4A95D1F7D7
:10084000089581E08093C602089581E08093C702F5
:1008500008950895AF92BF92CF92DF92EF92FF92E8
:100860000F931F93CF93DF936C017B018B01040FD8
:10087000151FEB015E01AE18BF08C017D10759F074
:100880006991D601ED91FC910190F081E02DC601B6
:100890001995892B79F7C501DF91CF911F910F91A0
:1008A000FF90EF90DF90CF90BF90AF900895FC0144
:1008B000A089B1898C91A689B78982FD0FC09C91CE
:1008C000818D8F5F8F73228D821749F0A18DAE0FBE
:1008D000BF2FB11D5D969C93818F08958C910895D3
:1008E000FC01538D448D252F30E0842F90E0821B36
:1008F000930B541710F0CF96089501970895FC01BB
:10090000918D828D981761F0A28DAE0FBF2FB11D12
:100910005D968C91928D9F5F9F73928F90E008956A
:100920008FEF9FEF0895FC01918D828D981731F024
:10093000828DE80FF11D858D90E008958FEF9FEF78
:100940000895FC01918D228D892F90E0805C9F4F4E
:10095000821B91098F739927089583ED92E00E947D
:10096000A10421E0892B09F420E0822F089580E77B
:1009700093E00E94A10421E0892B09F420E0822F5A
:1009800008958DE094E00E94A10421E0892B09F4F0
:1009900020E0822F0895FC01A48DA80FB92FB11D6E
:1009A000A35ABF4F2C91848D90E001968F739927A5
:1009B000848FA689B7892C93A089B1898C91837083
:1009C00080648C93938D848D981306C00288F3897C
:1009D000E02D80818F7D80830895EF92FF920F93A9
:1009E0001F93CF93DF93EC0181E0888F9B8D8C8DDB
:1009F00098131AC0E889F989808185FF15C09FB7CF
:100A0000F894EE89FF896083E889F9898081837091
:100A1000806480839FBF81E090E0DF91CF911F9140
:100A20000F91FF90EF900895F62E0B8D10E00F5F61
:100A30001F4F0F731127E02E8C8D8E110CC00FB637
:100A400007FCFACFE889F989808185FFF5CFCE01CF
:100A50000E94CB04F1CFEB8DEC0FFD2FF11DE35A7B
:100A6000FF4FF0829FB7F8940B8FEA89FB89808152
:100A70008062CFCFCF93DF93EC01888D8823B9F0CC
:100A8000AA89BB89E889F9898C9185FD03C0808199
:100A900086FD0DC00FB607FCF7CF8C9185FFF2CF16
:100AA000808185FFEDCFCE010E94CB04E9CFDF919D
:100AB000CF91089580E090E0892B29F00E94C10435
:100AC00081110E94000080E090E0892B49F080E0D5
:100AD00090E0892B29F00E94000081110E94000003
:100AE00080E090E0892B29F00E94B70481110E94D8
:100AF000000080E090E0892B29F00E94AD04811174
:100B00000C9400000895CF93CFB7F8948091C90258
:100B1000811124C0E3E1F2E08491E9E5F2E09491EF
:100B2000E82FF0E0EE0FFF1FEC53FE4FA591B491BC
:100B3000EC91E92321F461E085E30E94700385E3F1
:100B40000E9451038CB580618CBD8CB580648CBDD6
:100B500084E30E94510383E30E9451038091C90200
:100B60008F5F8093C902CFBFCF9108950C94830506
:100B70008FB7F8948091C8028FBF089508956EBD15
:100B800000000DB407FEFDCF8EB508958CBD9DBD50
:100B90000895CB010C94C6058F929F92AF92BF929D
:100BA000CF92DF92EF92FF924B015C01C12CD12CCE
:100BB000760160E08091B4040E9470038DE590E0BE
:100BC0000E94C60528E130E0422FD501C401022E63
:100BD00004C0B695A795979587950A94D2F78EBDD0
:100BE00000000DB407FEFDCF8EB590E0B0E0A0E0B0
:100BF00004C0880F991FAA1FBB1F4A95D2F7C82AA5
:100C0000D92AEA2AFB2A28503109283F8FEF3807D2
:100C1000D9F661E08091B4040E947003F894F092D8
:100C2000AC047894C701B601FF90EF90DF90CF90AD
:100C3000BF90AF909F908F900895962F9F70837074
:100C4000582F5295550F507E990FB901842F952B2F
:100C50000C94CC059A01AB0160E00C941D066F70FA
:100C6000982F93709295990F907E660F962B60E067
:100C700070E080E091600E94CC0590E00895CF93F1
:100C8000DF93D82FC62F6AE00E942F06372F2C2F14
:100C900023706C7F262BAC016AE08D2FDF91CF9102
:100CA0000C941D06CF93C82F62E070E00E943F06AF
:100CB00020E030E0A90164E08C2FCF910C941D0658
:100CC000CF93C82F6FE083E00E942F06262F3C2F82
:100CD0003F70AC016FE083E0CF910C941D064F9202
:100CE0005F926F927F928F929F92AF92BF92DF92AC
:100CF000EF92FF920F931F93CF93DF9300D000D01A
:100D00001F921F92CDB7DEB7DC0111962D913C9159
:100D10001297232B09F4CCC0F5E08F2E912CA12C37
:100D2000B12C17969C906F772A2D2078A22EA62A98
:100D3000E894A7F8B0E0A0E020E017E0D12EB501DC
:100D4000A4010A2E04C076956795579547950A9495
:100D5000D2F758E0622F70E0E42EF12C8B01000FE7
:100D6000012F001F110BE42FE170F0E0220F0E178E
:100D70001F0721F09B01220F331F2D25F594E794C7
:100D80004E2D515039F71896A831B105C1F67C01A6
:100D9000B22EF70181819281DC01ED91FC910084FA
:100DA000F185E02D1995181619065CF4F70181817B
:100DB0009281DC01ED91FC910284F385E02D19957F
:100DC000E8CF10E000E0F701A181B281C501B401D4
:100DD000002E04C096958795779567950A94D2F76B
:100DE000ED91FC9111970190F081E02DCD011995C5
:100DF000085F1F4F0032110531F7812C912C5401EF
:100E0000D70111968D919C91DC01ED91FC910084AC
:100E1000F185E02D199504976CF4B0EA8B16BFE0CC
:100E20009B06A104B10471F0EFEF8E1A9E0AAE0A80
:100E3000BE0AE6CF14E0F0EA8F16FFE09F06A10499
:100E4000B104F9F481E0D7018C93812C912C5401E9
:100E5000F70181819281DC01ED91FC910084F185A3
:100E6000E02D19950897D4F4B0E18B16B7E29B06F4
:100E7000A104B104D1F0EFEF8E1A9E0AAE0ABE0AA9
:100E8000E7CFF70181819281DC01ED91FC91028431
:100E9000F385E02D19951150A1F7D7CFF0E18F160A
:100EA000F7E29F06A104B10439F481E0D7018C93E5
:100EB00060E070E0CB0161C019821A821B821C8243
:100EC0001D821E821F821886912C812CF701818140
:100ED0009281DC01ED91FC910284F385E02D19955E
:100EE0009C01932F990F990B492F592F692F792F17
:100EF000892F082D0E94F115E9812E2BEA813E2BC6
:100F0000EB814E2BAC80A52ABD80B62A0E81072B23
:100F10001F81182B8885982B29833A834B83AC82B9
:100F2000BD820E831F839887B8E08B0E911CE0E48E
:100F30008E16910459F6D70113962D913D914D913E
:100F40005C91169760E271EA87E090E00E94871357
:100F500080E063E270E0482E512C712C612C421627
:100F600053066406750628F4FB013197F1F78F5F8D
:100F7000F2CFB501C8010E94EA1528960FB6F89481
:100F8000DEBF0FBECDBFDF91CF911F910F91FF90BC
:100F9000EF90DF90BF90AF909F908F907F906F9079
:100FA0005F904F9008957F928F929F92AF92BF92E1
:100FB000CF92DF92EF92FF920F931F93CF93DF9325
:100FC00000D000D01F921F92CDB7DEB77C0185E024
:100FD0008983D70117961C911A83F62FFF77F06843
:100FE000FB83CA01B9010E94EA156C837D838E835D
:100FF0009F83B62EA72ED82EC92EB0E0A0E0E0E049
:1010000087E0782E25E0312F4F2F5B2D6A2D7D2D27
:101010008C2D90E00A2F0E940C1638E08E2F90E065
:10102000422F50E0BC01660F672F661F770B20FB35
:10103000882480F8912CEE0F6815790521F0880F2F
:10104000991FE82FE72555954795242F315031F703
:101050001896A833B105B1F6E887F701818192812E
:10106000892B09F461C0D70111968D919C91DC0107
:10107000ED91FC910084F185E02D19951816190663
:101080005CF4F70181819281DC01ED91FC91028495
:10109000F385E02D1995E7CFB12CA12CF701A181A3
:1010A000B28129813A814B815C816D817E818F8102
:1010B00098850A2D0E940C16ED91FC9111970190D4
:1010C000F081E02D622FCD011995F8E0AF0EB11C33
:1010D00080E4A816B10411F7812C912C5401D7019A
:1010E00011968D919C91DC01ED91FC910084F1852C
:1010F000E02D199508976CF4B0EA8B16BFE09B06BB
:10110000A104B10471F0EFEF8E1A9E0AAE0ABE0A76
:10111000E6CF18E0F0EA8F16FFE09F06A104B104C5
:10112000B9F481E0D7018C9328960FB6F894DEBF0E
:101130000FBECDBFDF91CF911F910F91FF90EF9028
:10114000DF90CF90BF90AF909F908F907F90089549
:10115000F70181819281DC01ED91FC910284F3859C
:10116000E02D19951150A1F7DFCFFC01228D338DB1
:10117000448D558D60E70C94D307FC012589368991
:101180004789508D6CE60C94D307CF93DF93EC0125
:101190002C853D854E855F8560E10E94D3079D8546
:1011A0009F718989943178F08068898B8C89882334
:1011B00061F0288939894A895B8962E4CE01DF912F
:1011C000CF910C94D3078F77F0CFDF91CF91089513
:1011D000FC0101900020E9F73197AF01481B590B42
:1011E000BC018DE094E00C942A04CF93DF93CDB73B
:1011F000DEB7A1970FB6F894DEBF0FBECDBF19A220
:10120000805D88A3CE0180960E94E808A1960FB663
:10121000F894DEBF0FBECDBFDF91CF910895CF937D
:10122000DF930E94E808EC0182E392E00E94E80864
:101230008C0F9D1FDF91CF9108951F920F920FB6D3
:101240000F9211242F933F938F939F93AF93BF934C
:101250008091CB029091CC02A091CD02B091CE02B0
:101260003091CA0223E0230F2D3758F50196A11DB6
:10127000B11D2093CA028093CB029093CC02A0931D
:10128000CD02B093CE028091CF029091D002A09176
:10129000D102B091D2020196A11DB11D8093CF025F
:1012A0009093D002A093D102B093D202BF91AF919C
:1012B0009F918F913F912F910F900FBE0F901F9094
:1012C000189526E8230F0296A11DB11DD2CF1F92BB
:1012D0000F920FB60F9211240BB60F922F933F93DC
:1012E0004F935F936F937F938F939F93AF93BF932E
:1012F000EF93FF93E0910E02F0910F021995FF9189
:10130000EF91BF91AF919F918F917F916F915F917D
:101310004F913F912F910F900BBE0F900FBE0F90EA
:101320001F9018951F920F920FB60F9211240BB6B3
:101330000F922F933F934F935F936F937F938F936E
:101340009F93AF93BF93EF93FF93E0910C02F091C3
:101350000D021995FF91EF91BF91AF919F918F91E0
:101360007F916F915F914F913F912F910F900BBEA5
:101370000F900FBE0F901F9018951F920F920FB6EF
:101380000F9211240BB60F922F933F934F935F93BD
:101390006F937F938F939F93AF93BF93EF93FF933D
:1013A000E0910202F09103021995FF91EF91BF9134
:1013B000AF919F918F917F916F915F914F913F91ED
:1013C0002F910F900BBE0F900FBE0F901F9018958E
:1013D0001F920F920FB60F9211240BB60F922F93FC
:1013E0003F934F935F936F937F938F939F93AF93AD
:1013F000BF93EF93FF93E0910002F09101021995E2
:10140000FF91EF91BF91AF919F918F917F916F91DC
:101410005F914F913F912F910F900BBE0F900FBE98
:101420000F901F9018951F920F920FB60F921124D4
:101430000BB60F922F933F934F935F936F937F93CE
:101440008F939F93AF93BF93EF93FF93E0910A0223
:10145000F0910B021995FF91EF91BF91AF919F9180
:101460008F917F916F915F914F913F912F910F904D
:101470000BBE0F900FBE0F901F9018951F920F92EA
:101480000FB60F9211240BB60F922F933F934F93E9
:101490005F936F937F938F939F93AF93BF93EF93DC
:1014A000FF93E0910802F09109021995FF91EF91E5
:1014B000BF91AF919F918F917F916F915F914F916C
:1014C0003F912F910F900BBE0F900FBE0F901F906A
:1014D00018951F920F920FB60F9211240BB60F9210
:1014E0002F933F934F935F936F937F938F939F932C
:1014F000AF93BF93EF93FF93E0910602F091070241
:101500001995FF91EF91BF91AF919F918F917F912D
:101510006F915F914F913F912F910F900BBE0F9064
:101520000FBE0F901F9018951F920F920FB60F923B
:1015300011240BB60F922F933F934F935F936F93AA
:101540007F938F939F93AF93BF93EF93FF93E0911C
:101550000402F09105021995FF91EF91BF91AF91AF
:101560009F918F917F916F915F914F913F912F91BB
:101570000F900BBE0F900FBE0F901F9018951F92EB
:101580000F920FB60F9211240BB60F922F933F9329
:101590004F935F936F937F938F939F93AF93BF937B
:1015A000EF93FF9383ED92E00E94CB04FF91EF91C4
:1015B000BF91AF919F918F917F916F915F914F916B
:1015C0003F912F910F900BBE0F900FBE0F901F9069
:1015D00018951F920F920FB60F9211240BB60F920F
:1015E0002F933F934F935F936F937F938F939F932B
:1015F000AF93BF93EF93FF9383ED92E00E94570464
:10160000FF91EF91BF91AF919F918F917F916F91DA
:101610005F914F913F912F910F900BBE0F900FBE96
:101620000F901F9018951F920F920FB60F921124D2
:101630000BB60F922F933F934F935F936F937F93CC
:101640008F939F93AF93BF93EF93FF9380E793E0C4
:101650000E94CB04FF91EF91BF91AF919F918F9129
:101660007F916F915F914F913F912F910F900BBEA2
:101670000F900FBE0F901F9018951F920F920FB6EC
:101680000F9211240BB60F922F933F934F935F93BA
:101690006F937F938F939F93AF93BF93EF93FF933A
:1016A00080E793E00E945704FF91EF91BF91AF91C3
:1016B0009F918F917F916F915F914F913F912F916A
:1016C0000F900BBE0F900FBE0F901F9018951F929A
:1016D0000F920FB60F9211240BB60F922F933F93D8
:1016E0004F935F936F937F938F939F93AF93BF932A
:1016F000EF93FF938DE094E00E94CB04FF91EF9174
:10170000BF91AF919F918F917F916F915F914F9119
:101710003F912F910F900BBE0F900FBE0F901F9017
:1017200018951F920F920FB60F9211240BB60F92BD
:101730002F933F934F935F936F937F938F939F93D9
:10174000AF93BF93EF93FF938DE094E00E94570413
:10175000FF91EF91BF91AF919F918F917F916F9189
:101760005F914F913F912F910F900BBE0F900FBE45
:101770000F901F901895E3EDF2E01382128248EE6D
:1017800053E060E070E0448355836683778388E1AB
:1017900092E09183808325E331E03587248724E339
:1017A00031E03787268720E331E0318B208B21E33E
:1017B00031E0338B228B22E331E0358B248B26E31F
:1017C00031E0378B268B118E128E138E148EE0E74C
:1017D000F3E0138212824483558366837783918377
:1017E000808325ED30E03587248724ED30E037878E
:1017F000268720ED30E0318B208B21ED30E0338BDC
:10180000228B22ED30E0358B248B26ED30E0378BB8
:10181000268B118E128E138E148EEDE0F4E013825F
:10182000128244835583668377839183808385EC1A
:1018300090E09587848784EC90E09787868780EC9A
:1018400090E0918B808B81EC90E0938B828B82EC8B
:1018500090E0958B848B86EC90E0978B868B118E35
:10186000128E138E148EE6EBF4E033E0318F21E01C
:1018700020831282118280E291EAA7E0B0E08383A4
:101880009483A583B6831782148A37AB268F10A260
:10189000178E81A392A3A3A3B4A315A212AA8AE2CE
:1018A00092E09093AB048093AA0418B88CE382B9B9
:1018B00081B18C6381B98FEF87B90895CF93DF939E
:1018C00000D000D01F921F92CDB7DEB7789484B5B8
:1018D000826084BD84B5816084BD85B5826085BD2C
:1018E00085B5816085BD80916E00816080936E00BA
:1018F00010928100809181008260809381008091AC
:10190000810081608093810080918000816080935C
:1019100080008091B10084608093B1008091B0001C
:1019200081608093B00080919100826080939100EB
:1019300080919100816080939100809190008160FE
:10194000809390008091A10082608093A10080919B
:10195000A10081608093A1008091A00081608093AC
:10196000A00080912101826080932101809121015A
:10197000816080932101809120018160809320010A
:1019800080917A00846080937A0080917A008260EE
:1019900080937A0080917A00816080937A008091B0
:1019A0007A00806880937A001092C10040E052EC87
:1019B00061E070E08DE094E00E9469018091010196
:1019C000877F80930101809101018F7E80930101C7
:1019D0008AB18F608AB981E294E09093010280938A
:1019E000000280916A008C7F826080936A00EC9A8A
:1019F00085E294E0909303028093020280916A0052
:101A0000837F886080936A00ED9A20E1222E22E095
:101A1000322E06EB14E01F830E83B12CA12C3EE185
:101A2000932E44E2442E512C4DE0642E41EC742E52
:101A300088248394D1018D919D911D01EE81FF81B8
:101A4000108220E032EC41E050E023833483458370
:101A5000568392838183178240E052EC61E070E00C
:101A60000E946901EE81FF8110861186128613861D
:101A70009A9C70019B9CF00C1124F701E254FB4FDF
:101A800080818E7F80648068808381818160818392
:101A9000AE81BF8118962D913D914D915C911B9720
:101AA00060E0CD010E94D307EE81FF811486158688
:101AB0001686178697012E533B4F6901D9018C91E9
:101AC000807E80618C9311968C9111978F61119615
:101AD0008C93119712968C911297807F8160129649
:101AE0008C93248535854685578560E1CF010E941A
:101AF000D30723E530E040E050E1AE81BF81559649
:101B00002D933D934D935C935897F701E553FB4F0D
:101B10007F0181819281916092838877818383E5BF
:101B2000808355962D913D914D915C9158976CE62F
:101B30008E819F810E94D307AE81BF815A964D92BC
:101B40005D926D927C925D9724E230E04DE051EC25
:101B500060E7CD010E94D307EE81FF81108A118AD0
:101B6000128A138A20E030E0A90162E4CF010E94CA
:101B7000D30724E130E040E050E061E18E819F81B5
:101B80000E94D30720E030E0A90163E18E819F81AC
:101B90000E94D30720E030E0A90162E28E819F819C
:101BA0000E94D30720E030E0A90164E18E819F818B
:101BB0000E94D30720E030E0A90160E48E819F817C
:101BC0000E94D30720E030E0A90162E48E819F816A
:101BD0000E94D30760E08E819F810E946F06AE81D4
:101BE000BF8118966D937D938D939C931B976CE6A4
:101BF000CD010E946F06EE81FF81658B768B878B0E
:101C0000908F60E7CF010E946F06AE81BF815A9628
:101C10006D937D938D939C935D97F6018181807E7A
:101C200081838081807E8083CD010E94C508AE8142
:101C3000BF818C91811107C0F7018081807F8083F3
:101C4000CD010E94BD08AE81BF818C9181110DC074
:101C50009A9CF0019B9CF00D1124E053FB4F828174
:101C60008B7F8283CD010E94B508EE81FF81808148
:101C700081110EC09A9CF0019B9CF00D1124E05341
:101C8000FB4F8281877F82838E819F810E94B5086E
:101C900060E08E819F810E946F0666FD03C0AE8169
:101CA000BF818C9260E08E819F810E946F0685E3E8
:101CB00092E066FF40C20E94E808C5010E94F50854
:101CC00080E492E00E94E808EE81FF817E96FF8327
:101CD000EE83AA94AB2809F02AC288E090E09093A2
:101CE000B5048093B4040E94510361E08091B40470
:101CF0000E94700380E18093AD041092AE041092B4
:101D0000B1041092AF041092B2041092B004109279
:101D1000B3040E9483058FE00E94600690E080E09B
:101D20000E94520681E090E00E94520682E090E01C
:101D30000E94520664E083E00E942F069B0120620D
:101D4000AC0164E083E00E941D0669E083E00E942C
:101D50002F06613071498244910509F0F4C18DE686
:101D600092E00E940F098CE892E00E940F091F8206
:101D70001E82BEE1FB2E84E2E82EDD24D394D8013E
:101D80008C91811116C02E813F81F29EF001F39E4D
:101D9000F00D1124E254FB4F8081877F80831896D9
:101DA0002D913D914D915C911B9760E0C8010E947F
:101DB000D307D8018C9181110FC02E813F81F29EF3
:101DC000F001F39EF00D1124EE53FB4F81818F61E2
:101DD0008183C8010E94C508D8018C9181110FC070
:101DE0002E813F81F29EF001F39EF00D1124EE53FF
:101DF000FB4F8081807E8083C8010E94C508D80186
:101E00008C9181110FC02E813F81F29EF001F39ED3
:101E1000F00D1124EE53FB4F8281807F8283C80135
:101E20000E94C508D8018C9181110FC02E813F817D
:101E3000F29EF001F39EF00D1124E553FB4F8381D8
:101E4000807F8383C8010E94BD08D8018C918111D5
:101E500010C02E813F81F29EF001F39EF00D1124FF
:101E6000E053FB4F82818F7C80628283C8010E9495
:101E7000B508D8018C9181110DC02E813F81F29E51
:101E8000F001F39EF00D1124EA54FB4FE28EC801DD
:101E90000E94B508D8018C9181110DC02E813F811F
:101EA000F29EF001F39EF00D1124EA54FB4F138EC5
:101EB000C8010E94B508D8018C9181110FC02E81F4
:101EC0003F81F29EF001F39EF00D1124E053FB4F91
:101ED00082818B7F8283C8010E94B508D8018C91D2
:101EE00081110FC02E813F81F29EF001F39EF00D13
:101EF0001124E053FB4F8281877F8283C8010E94B7
:101F0000B508D8018C91811108C020ED37E040E080
:101F100050E064E1C8010E94D307F801808181117B
:101F200018C02E813F81F29EF001F39EF00D112426
:101F3000EA53FB4F80818F7980648083D80150966B
:101F40002D913D914D915C91539762E4C8010E949F
:101F5000D307F801808181111DC02E813F81F29E3F
:101F6000F001F39EF00D1124EA53FB4F8081807F36
:101F7000816080838181807F8183D80150962D91FB
:101F80003D914D915C91539762E4C8010E94D30743
:101F9000F801D48A025E1F4F2E813F812130310526
:101FA00009F0D4C064E083E00E942F069B01277FE4
:101FB000AC0164E083E00E941D0664E083E00E94BF
:101FC0002F069B012F7EAC0164E083E00E941D067A
:101FD00064E083E00E942F069B012160AC0164E075
:101FE00083E00E941D066AE081E00E942F069B01AB
:101FF000377FAC016AE081E00E941D066AE082E062
:102000000E942F069B013860AC016AE082E00E94CA
:102010001D066AE081E00E942F069B013260AC0140
:102020006AE081E00E941D066AE082E00E942F06BD
:102030009B013160AC016AE082E00E941D060EEA5D
:1020400014E0D12CC12CEE24E394F12CC8866AE074
:102050008C2D0E942F069B013B7FAC016AE08C2DEA
:102060000E941D0670E060E0C6010E943F066FE01E
:1020700083E00E942F067F70A72EB12C6091AD04E3
:1020800070E090E080E00E94BE142B013C01B5019D
:102090006F5F7F4FE4E0660F771FEA95E1F7072E49
:1020A000000C880B990B0E94C014A30192010E949E
:1020B00016149B01AC010E94AA139B01AC0160E0C5
:1020C00074E284E799E40E9416140E948F1445017B
:1020D000F4E0880C991CFA95E1F7611572438105CB
:1020E000910508F0E5C0A114B10409F4E1C041E094
:1020F000A41AB108B401092C000C880B990B0E949A
:10210000C014A30192010E9416149B01AC010E940D
:10211000AA139B01AC0160E074E284E799E40E9499
:1021200016140E948F1450E1851A9108D6CFAA2464
:10213000A394B12C7FCC0E94E808C5010E94F50849
:1021400085E592E0BFCD89EA92E00FCE41E050E014
:102150005F834E8314CE8091B60481110DC090919F
:10216000CF049F708091CB04807F892B8093CB0418
:1021700086EB94E00E94BD088091D40481110DC0CB
:102180009091ED049F708091E904807F892B80936A
:10219000E90484ED94E00E94BD0840E052E360E071
:1021A00070E081E090E00E942A0640E05EEC6FEF74
:1021B0007FEF82E090E00E942A066AE080E00E94C1
:1021C0002F0620E030E0A90161E080E00E941D06BA
:1021D00040E050E0BA0190E080E00E942A066AE008
:1021E00081E00E942F064FEF5FEF6FEF7FE781E006
:1021F00090E00E942A0620E030E0A90161E081E041
:102200000E941D0640E051E060E070E081E090E057
:102210000E942A0620E030E0A90161E081E00E94EE
:102220001D0640E050E0BA0181E090E00E942A06DD
:102230004FEF5FEF6FEF7FE781E090E00E942A06AB
:1022400040E050E060E070E882E090E00E942A0602
:1022500019824981423008F03AC28091000183FD21
:1022600011C081E090E00E94520661E081E00E948E
:102270002F0661E070E081E090E00E943F06598106
:102280005F5F59838091000184FDE3CF82E090E09D
:102290000E94520661E082E00E942F0661E070E039
:1022A00082E090E00E943F0689818F5F8983D1CFD1
:1022B0008A2D0E9460060E94C90189836CE088858E
:1022C0000E942F06262F39813295307F7F70372B61
:1022D000AC016CE088850E941D061801E981D801D7
:1022E000EC93B70102C0660F771FEA95E2F7072E5D
:1022F000000C880B990B0E94C01420E030E048ECE1
:1023000052E40E9451154B015C016091AD0470E0F4
:1023100090E080E00E94BE1420E034E244E759E4FB
:102320000E9451159B01AC01C501B4010E94161415
:1023300020E030E040E857E40E9451150E948814E4
:102340009B01770F440B550B2115310541055105B4
:1023500021F421E030E040E050E062E088850E9416
:102360001D066091AD0470E090E080E00E94BE1414
:1023700020E034E244E759E40E9451152B013C016E
:10238000D8018C91B70102C0660F771F8A95E2F7DA
:10239000072E000C880B990B0E94C01420E030E03F
:1023A00048E456E40E945115A30192010E941614BC
:1023B00020E030E040E857E40E9451150E94881464
:1023C0004B01770FAA08BB0820E030E040E857E354
:1023D000C301B2010E94511520E030EE4FEF54E4EA
:1023E0000E9451150E9488149B01AC01821693062D
:1023F000A406B50610F4A501940163E088850E9447
:102400001D060E94C901782E6DE00E9425034B0134
:102410005C016DE0872D0E94A502BDE0BE83E8EA65
:102420008E16E1E69E06A104B104B8F4683A71463E
:102430008105910590F42E81222379F0271568F00B
:1024400021502E83622F872D0E9425034B015C01B2
:102450006E81872D0E94A502E2CF6CE088850E94E4
:102460002F06262F707F3E813F70372BAC016CE02A
:1024700088850E941D06EE81D8011396EC93139770
:10248000FC91F9836E2F8F2F0E9425034B015C0175
:102490006E8189810E94A5026A837B838C839D83E0
:1024A00028EA821621E69206A104B10430F058EA27
:1024B000852E51E6952EA12CB12C6091AD0470E0D3
:1024C00090E080E00E94BE1420E034E244E759E44A
:1024D0000E9451152B013C016A817B818C819D8179
:1024E000681579058A059B0510F4C501B4010E94A1
:1024F000BE144B015C01B701098002C0660F771F53
:102500000A94E2F7072E000C880B990B0E94C01466
:102510009B01AC01C501B4010E945115A3019201B8
:102520000E94161420E030E040E05EE40E94511565
:10253000A30192010E9416144B015C01B7010E80A9
:1025400002C0660F771F0A94E2F7072E000C880B73
:10255000990B0E94C0149B01AC01C501B4010E94FB
:1025600051154B015C0120E030E0A9010E944C159F
:1025700020E030E040E05FE387FD98C0C501B40192
:102580000E94AA130E9488144B015C01811438E058
:102590009306A104B10408F08EC081149104A10433
:1025A000B10409F48FC0A501940166E088850E94FA
:1025B0001D060F5F1F4FC501B4010E94BE144B01E1
:1025C0005C01D10113968C9113979C91891B990BF7
:1025D000B70102C0660F771F8A95E2F7072E000C3D
:1025E000880B990B0E94C01420E030E040E053E4D7
:1025F0000E9451159B01AC01C501B4010E94161443
:1026000024EA30E74DE75FE30E94511520E030E017
:1026100040E051E40E9451152B013C01AA24AA94E8
:10262000BA2C22242A94322C912C812CB701082C0C
:1026300002C0660F771F0A94E2F7072E000C880B82
:10264000990B0E94C014A30192010E9451150E948F
:1026500088149B01205831092038310510F45401A9
:102660001B01BFEF8B1A9B0AEEE08E169104F1F668
:10267000FFEF2F163F0691F02FEFA216B20671F072
:1026800069E088850E942F062A2D2F70607F262BF7
:10269000322DAC0169E088850E941D06CA94CD28C0
:1026A00009F459CDCC24C394D12CD0CCC501B401AC
:1026B0000E94A91367CF88248A9447E0942EA12C06
:1026C000B12C71CF812C912C540183946CCF40E0BC
:1026D00050E0BA0181E090E00E942A0640E050E01C
:1026E000BA0182E090E00E942A060E94FC036B017E
:1026F0007C010E94FC036C197D098E099F09683ECC
:10270000734081059105A8F30E945A05EECFA1E21E
:102710001A2EAA1BBB1BFD010DC0AA1FBB1FEE1F5B
:10272000FF1FA217B307E407F50720F0A21BB30BA6
:10273000E40BF50B661F771F881F991F1A9469F722
:1027400060957095809590959B01AC01BD01CF017E
:1027500008955058BB27AA270E94C1130C94121544
:102760000E94041538F00E940B1520F039F49F3FA9
:1027700019F426F40C9401150EF4E095E7FB0C9483
:10278000FB14E92F0E94231558F3BA176207730749
:102790008407950720F079F4A6F50C9445150EF4FE
:1027A000E0950B2EBA2FA02D0B01B90190010C0161
:1027B000CA01A0011124FF27591B99F0593F50F479
:1027C000503E68F11A16F040A22F232F342F4427D1
:1027D000585FF3CF469537952795A795F0405395C9
:1027E000C9F77EF41F16BA0B620B730B840BBAF099
:1027F0009150A1F0FF0FBB1F661F771F881FC2F704
:102800000EC0BA0F621F731F841F48F48795779517
:102810006795B795F7959E3F08F0B0CF9395880FD1
:1028200008F09927EE0F9795879508950E942A142E
:102830000C9412150E940B1558F00E94041540F0DC
:1028400029F45F3F29F00C94FB1451110C944615A8
:102850000C9401150E94231568F39923B1F35523B5
:1028600091F3951B550BBB27AA27621773078407A3
:1028700038F09F5F5F4F220F331F441FAA1FA9F339
:1028800035D00E2E3AF0E0E832D091505040E69527
:10289000001CCAF72BD0FE2F29D0660F771F881F88
:1028A000BB1F261737074807AB07B0E809F0BB0B7B
:1028B000802DBF01FF2793585F4F3AF09E3F51058F
:1028C00078F00C94FB140C9446155F3FE4F3983EAB
:1028D000D4F3869577956795B795F7959F5FC9F778
:1028E000880F911D9695879597F90895E1E0660FF9
:1028F000771F881FBB1F621773078407BA0720F072
:10290000621B730B840BBA0BEE1F88F7E0950895DA
:102910000E948F146894B1110C94461508950E947A
:102920002B1588F09F5798F0B92F9927B751B0F021
:10293000E1F0660F771F881F991F1AF0BA95C9F743
:1029400014C0B13091F00E944515B1E008950C9487
:102950004515672F782F8827B85F39F0B93FCCF33A
:10296000869577956795B395D9F73EF490958095C0
:10297000709561957F4F8F4F9F4F0895E89409C0E0
:1029800097FB3EF490958095709561957F4F8F4FA2
:102990009F4F9923A9F0F92F96E9BB279395F695B8
:1029A000879577956795B795F111F8CFFAF4BB0F36
:1029B00011F460FF1BC06F5F7F4F8F4F9F4F16C09A
:1029C000882311F096E911C0772321F09EE8872F24
:1029D000762F05C0662371F096E8862F70E060E0E0
:1029E0002AF09A95660F771F881FDAF7880F969559
:1029F000879597F9089597F99F6780E870E060E000
:102A000008959FEF80EC089500240A941616170687
:102A100018060906089500240A94121613061406CF
:102A200005060895092E0394000C11F4882352F032
:102A3000BB0F40F4BF2B11F460FF04C06F5F7F4FEA
:102A40008F4F9F4F089557FD9058440F551F59F0D1
:102A50005F3F71F04795880F97FB991F61F09F3F8B
:102A600079F087950895121613061406551FF2CFB4
:102A70004695F1DF08C0161617061806991FF1CF04
:102A800086957105610508940895E894BB2766272B
:102A90007727CB0197F908950E94BE1508F48FEFB0
:102AA00008950E9464150C9412150E94041538F0C4
:102AB0000E940B1520F0952311F00C94FB140C943C
:102AC000011511240C9446150E94231570F3959F4F
:102AD000C1F3950F50E0551F629FF001729FBB2715
:102AE000F00DB11D639FAA27F00DB11DAA1F649FB1
:102AF0006627B00DA11D661F829F2227B00DA11D64
:102B0000621F739FB00DA11D621F839FA00D611DE9
:102B1000221F749F3327A00D611D231F849F600D0A
:102B2000211D822F762F6A2F11249F5750409AF033
:102B3000F1F088234AF0EE0FFF1FBB1F661F771FBF
:102B4000881F91505040A9F79E3F510580F00C948A
:102B5000FB140C9446155F3FE4F3983ED4F386953E
:102B600077956795B795F795E7959F5FC1F7FE2B2A
:102B7000880F911D9695879597F90895990F0008EC
:102B8000550FAA0BE0E8FEEF16161706E807F9073F
:102B9000C0F012161306E407F50798F0621B730BDA
:102BA000840B950B39F40A2661F0232B242B252B5B
:102BB00021F408950A2609F4A140A6958FEF811DFE
:102BC000811D0895EE0FFF1F881F8BBF0790F691A0
:102BD000E02D199469279627692778278727782772
:102BE0000895002E083090F0982F872F762F652FAC
:102BF000542F432F322F22270850F4CF220F331F98
:102C0000441F551F661F771F881F991F0A95B2F72B
:102C1000002D089597FD1094002E083098F008506C
:102C2000232F342F452F562F672F782F892F912D43
:102C3000F4CF159497958795779567955795479510
:102C4000379527950A95AAF71124002D0895F89431
:022C5000FFCFB4
:102C5200290429042904290429042904290429040A
:102C62007003D30200000000ED042A0470043A0548
:102C7200A1047F04930400000000B605C905BE0547
:102C8200BF050D0A00544D43323230392023200053
:102C920020697320757020616E642072756E6E6992
:102CA2006E67200A00206973206E6F7420636F6D57
:102CB2006D756E69636174696E67200A00544D43D5
:102CC20034323920697320757020616E6420636F1D
:102CD2006D6D756E69636174696E6700486F6D69C9
:102CE2006E672070726F63656475726520737461BC
:102CF2007274696E672E2E2E00544D433432392081
:102D02006973206E6F7420636F6D6D756E69636198
:062D120074696E67000009
:00000001FF
