:020000040000FA
:100000000C9446010C9477010C9477010C947701C1
:100010000C9477010C9477010C9477010C94770180
:100020000C9477010C9477010C9477010C94770170
:100030000C9477010C9477010C9477010C94770160
:100040000C9477010C9477010C9477010C94770150
:100050000C9477010C9477010C9477010C948C0C20
:100060000C9477010C94A80D0C947E0D0C947701E0
:100070000C9477010C9477010C9477010C94770120
:100080000C9477010C9477010C9477010C94770110
:100090000C9477010C9477010C9477010C94D20D99
:1000A0000C9477010C9477010C9477010C947701F0
:1000B0000C9477010C9477010C9477010C947701E0
:1000C0000C9477010C9477010C9477010C94540DE7
:1000D0000C942A0D0C9477010C94000D0C94D60C02
:1000E0000C9477010C9405050C940D060C940206F3
:1000F0000C945D060C94A10A0C9418040C94E00373
:100100000C94F8030C9452050C94D8050C94060436
:100110000C94FC030C94D3030C94B9040C94E603E4
:100120000C94D6030C941E060C9467060C94EA03F8
:100130000C94B5030C94EE030C9442040C94AB04A1
:100140000C9454060C94C7030C9497040C940C0460
:100150000C945C060C94FB050C94DC030C94F403E7
:100160000C9402040C94E8050C94620B0C94CB03E1
:100170000C94CF030C94D9050C9488040C94F60EBF
:100180000C94B00300000A0B02090C0D0E080703C3
:10019000040100000000000000000000000000005A
:1001A000000000000000000000000000000000004F
:1001B000121110000000000000000000000000000C
:1001C00000000000000000000000000022002500E8
:1001D00028002B002E003100340002010000050130
:1001E00008010B0100002100240027002A002D0037
:1001F0003000330001010000040107010A01050578
:100200000505070508080808020202020A0A08088C
:1002100004040404010101010101010103030303BA
:1002200003030303040707070C0C0C0C0C0C0C0C49
:100230000202020206060606060606060B0B0B0B5A
:100240000B0B0B0B0102102020080810204010207F
:10025000408002010201080402010102040810208A
:100260004080804020100804020180040201804088
:1002700020100804020108040201010204081020F1
:1002800040800102040810204080F60E11241FBE99
:10029000CFEFD1E2DEBFCDBF00E00CBF13E0A0E0A6
:1002A000B2E0E2EEF8E300E00BBF02C007900D926F
:1002B000AA39B107D9F726E0AAE9B3E001C01D9237
:1002C000A73AB207E1F711E0C6E4D1E000E006C0CA
:1002D00021970109802FFE010E94E218C534D10741
:1002E00080E00807A9F70E949D0F0C946F1C0C94E6
:1002F0000000CF92DF92EF92FF92CF93DF93EC0159
:100300006A017B01E889F98982E08083C11481EE6A
:10031000D806E104F104A1F060E079E08DE390E01B
:10032000A70196010E948716215031094109510900
:100330005695479537952795211580E1380798F010
:10034000E889F989108260E874E88EE190E0A701FD
:1003500096010E948716215031094109510956958D
:10036000479537952795EC85FD853083EE85FF858C
:100370002083188EEC89FD8986E08083EA89FB89D9
:10038000808180618083EA89FB89808188608083A5
:10039000EA89FB89808180688083EA89FB89808182
:1003A0008F7D8083DF91CF91FF90EF90DF90CF9092
:1003B00008958F929F92AF92BF92FF920F931F93D7
:1003C000CF93DF936091620670E090E080E00E943E
:1003D000BE1720E034E244E759E40E94511820E0BF
:1003E00030E040E857E30E94511820E030EE4FEF34
:1003F00054E40E9451184B015C01CDE0D0E001E0D3
:1004000010E0FC2EB8010C2E02C0660F771F0A9474
:10041000E2F7072E000C880B990B0E94C0179B0176
:10042000AC01C501B4010E9416170E94881761151E
:10043000784C8F4F9F4F58F08F2DDF91CF911F91A8
:100440000F91FF90BF90AF909F908F90089521974C
:10045000C0F6F12CF1CF8F929F92AF92BF92CF92C4
:10046000DF92EF92FF920F931F93CF93DF93082FAA
:10047000162F69017A016091620670E090E080E0D9
:100480000E94BE174B015C0120E034E244E759E4CE
:100490000E94511820E030E040E051E30E945118E2
:1004A000A50194010E94511820E034E244E759E488
:1004B0000E9451184B015C01C1E0D0E0BE0102C0B6
:1004C000660F771F0A95E2F7072E000C880B990B31
:1004D0000E94C0179B01AC01C501B4010E94161710
:1004E0004B015C01BE0102C0660F771F1A95E2F74F
:1004F000072E000C880B990B0E94C0179B01AC01C2
:10050000C501B4010E9416174B015C01C701B60179
:100510000E94BE179B01AC01C501B4010E94511895
:100520006B017C0120E030E0A9010E944C1820E022
:1005300030E040E05FE387FD13C0C701B6010E94D1
:10054000AA160E948817DF91CF911F910F91FF90FB
:10055000EF90DF90CF90BF90AF909F908F900895D5
:10056000C701B6010E94A916ECCF8F929F92AF925D
:10057000BF92CF92DF92EF92FF92CF93DF93C82F7B
:10058000D62F862F660F990B8C1B9109C7FD93956B
:10059000823091050CF44EC0019761E070E06B0170
:1005A00002C0CC0CDD1C8A95E2F70D2C000CEE0885
:1005B000FF080C2E02C0660F771F0A94E2F7072E81
:1005C000000C880B990B0E94C01720E030E040E639
:1005D00056EC0E9451184B015C016091620670E07C
:1005E00090E080E00E94BE1720E034E244E759E446
:1005F0000E9451189B01AC01C501B4010E9416175D
:1006000020E030E040E857E40E9451180E9488172B
:10061000693A754024F4F694E794D794C794C114CA
:1006200088E0D806E104F104C8F4C114D104E1045F
:10063000F10421F4C12CD12C7601C394A7019601B9
:100640006D2F8C2FDF91CF91FF90EF90DF90CF90A7
:10065000BF90AF909F908F900C942B02CC24CA94A3
:1006600087E0D82EE12CF12CE9CF262F062E000CA6
:10067000330B281B310987FD33952F3F9FEF390737
:10068000B4F4253F9FEF3907BCF0A901445F5F4FE9
:1006900021E030E002C0220F331F4A95E2F72150DB
:1006A0003109032E000C440B550B0C942B022FEF39
:1006B00037E040E050E0F9CF21E030E040E050E0AA
:1006C000F4CF90E0FC01EC5BFD4F249182509E4FF3
:1006D000FC018491882399F090E0880F991FFC0118
:1006E000EC51FE4FA591B491FC01E653FE4F85916C
:1006F00094918FB7F894EC91E22BEC938FBF08950F
:10070000282F30E0F901EC57FE4F9491F901EC5B92
:10071000FD4F449122503E4FF9012491222309F4C8
:1007200035C0992311F191509231F8F4E92FF0E09E
:100730008827E256FC4F8F4F0C94E218CF03D30367
:10074000B003C703CB03B503D603DC03E003E60322
:10075000EA03EE03F403F803B503FC030204060402
:10076000809180008F7780938000E22FF0E0EE0F81
:10077000FF1FE653FE4FA591B4918FB7F894EC910B
:10078000611148C040954E234C938FBF08958091CE
:1007900080008F7DE8CF80918000877FE4CF84B593
:1007A0008F7784BDE2CF84B58F7DFBCF8091B00081
:1007B0008F778093B000D9CF8091B0008F7DF9CF33
:1007C000809190008F7780939000CFCF80919000A0
:1007D0008F7DF9CF80919000877FF5CF8091A00029
:1007E0008F778093A000C1CF8091A0008F7DF9CF3B
:1007F0008091A000877FF5CF809120018F77809333
:100800002001B3CF809120018F7DF9CF809120010D
:10081000877FF5CF4E2BB8CFE0916E04F0916F0437
:10082000309729F010926B0410926A04199408957D
:10083000CF93DF93AC01E0917004F0917104309795
:10084000F1F090916D0480916C049817C0F090E0E5
:10085000292F30E02617370754F4D901AA52BC4F8C
:10086000240F351FE90128812C939F5FF1CF10924F
:100870006D0460936C04CB01DF91CF911994DF91EB
:10088000CF910895AF92BF92CF92DF92EF92FF92F5
:100890000F931F93CF93DF936C017B018B01040FA8
:1008A000151FEB015E01AE18BF08C017D10759F044
:1008B0006991D601ED91FC910190F081E02DC60186
:1008C0001995892B79F7C501DF91CF911F910F9170
:1008D000FF90EF90DF90CF90BF90AF900895FC0114
:1008E000A089B1898C91A689B78982FD0FC09C919E
:1008F000818D8F5F8F73228D821749F0A18DAE0F8E
:10090000BF2FB11D5D969C93818F08958C910895A2
:10091000FC01538D448D252F30E0842F90E0821B05
:10092000930B541710F0CF96089501970895FC018A
:10093000918D828D981761F0A28DAE0FBF2FB11DE2
:100940005D968C91928D9F5F9F73928F90E008953A
:100950008FEF9FEF0895FC01918D828D981731F0F4
:10096000828DE80FF11D858D90E008958FEF9FEF48
:100970000895FC01918D228D892F90E0805C9F4F1E
:10098000821B91098F73992708958CE794E00E9448
:10099000B90421E0892B09F420E0822F089589E130
:1009A00095E00E94B90421E0892B09F420E0822F10
:1009B000089586EB95E00E94B90421E0892B09F4A3
:1009C00020E0822F0895FC01A48DA80FB92FB11D3E
:1009D000A35ABF4F2C91848D90E001968F73992775
:1009E000848FA689B7892C93A089B1898C91837053
:1009F00080648C93938D848D981306C00288F3894C
:100A0000E02D80818F7D80830895EF92FF920F9378
:100A10001F93CF93DF93EC0181E0888F9B8D8C8DAA
:100A200098131AC0E889F989808185FF15C09FB79E
:100A3000F894EE89FF896083E889F9898081837061
:100A4000806480839FBF81E090E0DF91CF911F9110
:100A50000F91FF90EF900895F62E0B8D10E00F5F31
:100A60001F4F0F731127E02E8C8D8E110CC00FB607
:100A700007FCFACFE889F989808185FFF5CFCE019F
:100A80000E94E304F1CFEB8DEC0FFD2FF11DE35A33
:100A9000FF4FF0829FB7F8940B8FEA89FB89808122
:100AA0008062CFCFCF93DF93EC01888D8823B9F09C
:100AB000AA89BB89E889F9898C9185FD03C0808169
:100AC00086FD0DC00FB607FCF7CF8C9185FFF2CFE6
:100AD000808185FFEDCFCE010E94E304E9CFDF9155
:100AE000CF91089580E090E0892B29F00E94D904ED
:100AF00081110E94000080E090E0892B49F080E0A5
:100B000090E0892B29F00E94000081110E940000D2
:100B100080E090E0892B29F00E94CF0481110E948F
:100B2000000080E090E0892B29F00E94C50481112B
:100B30000C940000089520911C04260F3327331FC6
:100B400021323105ECF420914004FC0190E080E07A
:100B5000243069F082E00895A0911C042191AC0139
:100B600044505C4FA40FB52FB11D2C9301968617EE
:100B700098F380911C04680F60931C0480E0089532
:100B800081E008951092400481E080934204109225
:100B90004104E9EBF0E080818E7F808380818D7F4E
:100BA000808388E48093B80085E48093BC00089536
:100BB0000895E0916D0480916C04E81730F4F0E042
:100BC000EA52FC4F808190E008958FEF9FEF0895E7
:100BD00090916D0480916C042FEF3FEF981748F4CB
:100BE000E92FF0E0EA52FC4F208130E09F5F9093C4
:100BF0006D04C901089580916C0490916D04891B66
:100C0000990B0895CF93DF93CB01EA01642F0E94E3
:100C10009B05CE01DF91CF910895CF93DF931F9273
:100C2000CDB7DEB7698361E0CE0101960E949B05D6
:100C300081E090E00F90DF91CF91089590E080E007
:100C40000895CF93CFB7F8948091D503811124C034
:100C5000E3E3F2E08491E9E7F2E09491E82FF0E039
:100C6000EE0FFF1FEC51FE4FA591B491EC91E923DB
:100C700021F461E085E30E94800385E30E94610323
:100C80008CB580618CBD8CB580648CBD84E30E9482
:100C9000610383E30E9461038091D5038F5F80939A
:100CA000D503CFBFCF9108950C9421068FB7F89448
:100CB0008091D4038FBF089508956EBD00000DB4D8
:100CC00007FEFDCF8EB508958CBD9DBD0895CB0167
:100CD0000C9464062F923F924F925F926F927F9294
:100CE0008F929F92AF92BF92CF92DF92EF92FF923C
:100CF0000F931F93CF93DF93CDB7DEB7C258D109BF
:100D00000FB6F894DEBF0FBECDBF29013A01CF5711
:100D1000DF4F6883C158D040CE57DF4F7883C25829
:100D2000D0401C014E0182E0880E911C9201A3016B
:100D3000CF57DF4F6881C158D040CE57DF4F788101
:100D4000C258D040C101A0E00E94861981F48E01F2
:100D50000F5F1F4FF1E08F1A910808151905F0F584
:100D6000F401608186EB95E00E940505F3CF8AE0EF
:100D7000A82EB12CC12CD12CE12CF12C00E010E0DC
:100D8000CF57DF4F6881C158D040CE57DF4F7881B1
:100D9000C258D040C1010E94F118205DF401219396
:100DA0004F019201A301CF57DF4F6881C158D04056
:100DB000CE57DF4F7881C258D040C1010E94F3184E
:100DC00029013A01CF57DF4F6883C158D040CE5731
:100DD000DF4F7883C258D0401C01A8CFCE57DF4FD9
:100DE0000FB6F894DEBF0FBECDBFDF91CF911F913C
:100DF0000F91FF90EF90DF90CF90BF90AF909F90BA
:100E00008F907F906F905F904F903F902F900895BC
:100E1000FC0101900020E9F73197AF01481B590B05
:100E2000BC0186EB95E00C944204CF93DF930E94C3
:100E30000807EC0184E392E00E9408078C0F9D1FD5
:100E4000DF91CF91089582EA93E00C9415078F9279
:100E50009F92AF92BF92CF92DF92EF92FF924B019F
:100E60005C01C12CD12C760160E0809169060E9462
:100E700080038DE590E00E94640628E130E0422F77
:100E8000D501C401022E04C0B695A7959795879504
:100E90000A94D2F78EBD00000DB407FEFDCF8EB5CB
:100EA00090E0B0E0A0E004C0880F991FAA1FBB1F0C
:100EB0004A95D2F7C82AD92AEA2AFB2A28503109AA
:100EC000283F8FEF3807D9F661E0809169060E94CC
:100ED0008003F894F09261067894C701B601FF9000
:100EE000EF90DF90CF90BF90AF909F908F9008953C
:100EF0006F70982F93709295990F907E660F962B36
:100F000060E070E080E091600E94270790E0089523
:100F1000962F9F708370582F5295550F507E990FC2
:100F2000B901842F952B0C942707CF93DF93D82FEB
:100F3000C62F6AE00E947807372F2C2F23706C7F12
:100F4000262BAC016AE08D2FDF91CF910C9488079E
:100F5000CF93C82F6FE083E00E947807262F3C2FA5
:100F60003F70AC016FE083E0CF910C948807CF9382
:100F7000DF93CDB7DEB7A1970FB6F894DEBF0FBEF3
:100F8000CDBF19A2805D88A3CE0180960E9408077C
:100F9000A1960FB6F894DEBF0FBECDBFDF91CF9103
:100FA00008954F925F926F927F928F929F92AF922D
:100FB000BF92DF92EF92FF920F931F93CF93DF9335
:100FC00000D000D01F921F92CDB7DEB7DC01119682
:100FD0002D913C911297232B09F4CCC0F5E08F2E74
:100FE000912CA12CB12C17969C906F772A2D2078EC
:100FF000A22EA62AE894A7F8B0E0A0E020E017E02F
:10100000D12EB501A4010A2E04C076956795579597
:1010100047950A94D2F758E0622F70E0E42EF12C45
:101020008B01000F012F001F110BE42FE170F0E086
:10103000220F0E171F0721F09B01220F331F2D25B2
:10104000F594E7944E2D515039F71896A831B10513
:10105000C1F67C01B22EF70181819281DC01ED9114
:10106000FC910084F185E02D1995181619065CF4A1
:10107000F70181819281DC01ED91FC910284F3857D
:10108000E02D1995E8CF10E000E0F701A181B281D1
:10109000C501B401002E04C0969587957795679594
:1010A0000A94D2F7ED91FC9111970190F081E02D17
:1010B000CD011995085F1F4F0032110531F7812CC2
:1010C000912C5401D70111968D919C91DC01ED91E9
:1010D000FC910084F185E02D199504976CF4B0EA39
:1010E0008B16BFE09B06A104B10471F0EFEF8E1ADE
:1010F0009E0AAE0ABE0AE6CF14E0F0EA8F16FFE0C1
:101100009F06A104B104F9F481E0D7018C93812CEE
:10111000912C5401F70181819281DC01ED91FC91C8
:101120000084F185E02D19950897D4F4B0E18B1671
:10113000B7E29B06A104B104D1F0EFEF8E1A9E0A2C
:10114000AE0ABE0AE7CFF70181819281DC01ED9101
:10115000FC910284F385E02D19951150A1F7D7CFAA
:10116000F0E18F16F7E29F06A104B10439F481E0A3
:10117000D7018C9360E070E0CB0161C019821A82C4
:101180001B821C821D821E821F821886912C812C3C
:10119000F70181819281DC01ED91FC910284F3855C
:1011A000E02D19959C01932F990F990B492F592FD9
:1011B000692F792F892F082D0E945019E9812E2B34
:1011C000EA813E2BEB814E2BAC80A52ABD80B62A4E
:1011D0000E81072B1F81182B8885982B29833A8332
:1011E0004B83AC82BD820E831F839887B8E08B0E41
:1011F000911CE0E48E16910459F6D70113962D91B7
:101200003D914D915C91169760E271EA87E090E024
:101210000E94871680E063E270E0482E512C712C0A
:10122000612C421653066406750628F4FB013197BB
:10123000F1F78F5FF2CFB501C8010E94EA18289636
:101240000FB6F894DEBF0FBECDBFDF91CF911F91D7
:101250000F91FF90EF90DF90BF90AF909F908F9095
:101260007F906F905F904F9008957F928F929F92A2
:10127000AF92BF92CF92DF92EF92FF920F931F93A4
:10128000CF93DF9300D000D01F921F92CDB7DEB76F
:101290007C0185E08983D70117961C911A83F62F6C
:1012A000FF77F068FB83CA01B9010E94EA186C83DA
:1012B0007D838E839F83B62EA72ED82EC92EB0E0B5
:1012C000A0E0E0E087E0782E25E0312F4F2F5B2D66
:1012D0006A2D7D2D8C2D90E00A2F0E946B1938E02D
:1012E0008E2F90E0422F50E0BC01660F672F661FE3
:1012F000770B20FB882480F8912CEE0F6815790578
:1013000021F0880F991FE82FE72555954795242F41
:10131000315031F71896A833B105B1F6E887F701D7
:1013200081819281892B09F461C0D70111968D9139
:101330009C91DC01ED91FC910084F185E02D1995E3
:10134000181619065CF4F70181819281DC01ED9198
:10135000FC910284F385E02D1995E7CFB12CA12CE7
:10136000F701A181B28129813A814B815C816D8134
:101370007E818F8198850A2D0E946B19ED91FC91D9
:1013800011970190F081E02D622FCD011995F8E0C1
:10139000AF0EB11C80E4A816B10411F7812C912C7A
:1013A0005401D70111968D919C91DC01ED91FC9136
:1013B0000084F185E02D199508976CF4B0EA8B163E
:1013C000BFE09B06A104B10471F0EFEF8E1A9E0AF4
:1013D000AE0ABE0AE6CF18E0F0EA8F16FFE09F06DD
:1013E000A104B104B9F481E0D7018C9328960FB61B
:1013F000F894DEBF0FBECDBFDF91CF911F910F914B
:10140000FF90EF90DF90CF90BF90AF909F908F9024
:101410007F900895F70181819281DC01ED91FC912B
:101420000284F385E02D19951150A1F7DFCFFC015F
:10143000228D338D448D558D60E70C943509FC0168
:10144000258936894789508D6CE60C943509CF93F0
:10145000DF93EC012C853D854E855F8560E10E9420
:1014600035099D859F718989943178F08068898BD1
:101470008C89882361F0288939894A895B8962E4EB
:10148000CE01DF91CF910C9435098F77F0CFDF91AA
:10149000CF910895CF93DF9385ED8093BC00809129
:1014A000F8039091F903A091FA03B091FB0307961A
:1014B000A11DB11D23E0B695A795979587952A950F
:1014C000D1F72091BC0024FD03C01092400436C027
:1014D0004091F8035091F9036091FA037091FB0376
:1014E000452B462B472B69F30097A105B10541F029
:1014F0002AE22A95F1F700C00197A109B109E1CFCD
:101500008091F70391E09093F6038823B9F0C0919E
:10151000B800D091BA008091BC008A7B8093BC0057
:1015200060E084E10E94800360E085E10E94800326
:101530000E94C205D093BA00C093B800DF91CF914A
:101540000895EF92FF920F93CF9320919A033091D9
:101550009B0340919C0350919D0360919E03709169
:101560009F038091A0039091A103A0E00E9486199F
:1015700041F467E372E082EA93E00E9492190E94CC
:101580002307F0909A03C0919B03B0919C03A09114
:101590009D03F0919E03E0919F0320917204922F8E
:1015A000990F990B392F492F592F692F792F892F8F
:1015B00000E30E945019F22AC32BB42BA52BF62B63
:1015C000E72BF0929A03C0939B03B0939C03A093E4
:1015D0009D03F0939E03E0939F038093A0031092DA
:1015E000A103EBE9F3E082EA93E020E03191230FDD
:1015F0008E179F07D9F7C22FC0951F92CF9387E60A
:1016000092E09F938F9382EAE82E83E0F82EFF9278
:10161000EF920E9499190E9423072C2F30E040E09E
:1016200050E060E070E080E090E008E30E94501934
:10163000E0919A032E2BE0919B033E2BE0919C03BB
:101640004E2BE0919D035E2BE0919E036E2BE0916B
:101650009F037E2BE091A0038E2BE091A1039E2B94
:1016600020939A0330939B0340939C0350939D03D4
:1016700060939E0370939F038093A0039093A103B4
:101680000E946A0648E050E06AE973E083E596E06C
:101690000E9402069F938F9385E892E09F938F9319
:1016A000FF92EF920E9499198DB79EB70C960FB6D4
:1016B000F8949EBF0FBE8DBFCF910F91FF90EF901A
:1016C0000C9423075F926F927F928F929F92AF92BA
:1016D000BF92CF92DF92EF92FF920F931F93CF931F
:1016E000DF93C0E5D3EC00EC12E032EAE32E33E006
:1016F000F32E90916C0480916D04981709F4E1C069
:1017000083E596E00E94E8056C0199279F938F93EB
:101710001F930F93FF92EF920E9499190E94230743
:101720000F900F900F900F900F900F908AE5C812B6
:10173000C8C080939A0310929B0310929C0310924E
:101740009D0310929E0310929F031092A00310928B
:10175000A1032AE530E040E050E060E070E080E086
:1017600090E00E946A0680916C0490916D04891B40
:10177000990B87309105ECF388E0E82EF12CC1E05D
:10178000D0E09BEDA92E92E0B92E22EAC22E23E0F2
:10179000D22E83E596E00E94E805FC012FEF30E0B1
:1017A00040E050E060E070E080E090E00E2D0E94AC
:1017B000501920953095409550956095709580957D
:1017C000909550909A03522260909B0363227090F0
:1017D0009C03742280909D03852290909E03962204
:1017E00010919F031723B091A003B823A091A103E8
:1017F000A9232E2F30E040E050E060E070E080E070
:1018000090E00E945019252920939A03632A609240
:101810009B03742A70929C03852A80929D03962ACA
:1018200090929E03172B10939F038B2B8093A00302
:101830009A2B9093A103FF27FF93EF93DF93CF930E
:10184000BF92AF92DF92CF920E9499190E94230714
:10185000219698E0E90EF11C8DB79EB708960FB659
:10186000F8949EBF0FBE8DBFC830D10509F091CF4F
:1018700064EF72E082EA93E00E9492190E942307CB
:1018800020919A0330919B0340919C0350919D03BA
:1018900060919E0370919F038091A0039091A1039A
:1018A000DF91CF911F910F91FF90EF90DF90CF903C
:1018B000BF90AF909F908F907F906F905F900C94AF
:1018C0006A06219709F015CF62EA72E082EA93E096
:1018D0000E9492190E94230710929A0310929B0370
:1018E00010929C0310929D0310929E0310929F03EE
:1018F0001092A0031092A103DF91CF911F910F913D
:10190000FF90EF90DF90CF90BF90AF909F908F901F
:101910007F906F905F9008951F920F920FB60F9275
:1019200011242F933F938F939F93AF93BF938091F5
:10193000780490917904A0917A04B0917B0430915D
:10194000770423E0230F2D3758F50196A11DB11D13
:10195000209377048093780490937904A0937A0479
:10196000B0937B048091730490917404A0917504EA
:10197000B09176040196A11DB11D809373049093DC
:101980007404A0937504B0937604BF91AF919F91B6
:101990008F913F912F910F900FBE0F901F90189530
:1019A00026E8230F0296A11DB11DD2CF1F920F92E0
:1019B0000FB60F9211240BB60F922F933F934F93B4
:1019C0005F936F937F938F939F93AF93BF93EF93A7
:1019D000FF938CE794E00E94E304FF91EF91BF91A5
:1019E000AF919F918F917F916F915F914F913F91B7
:1019F0002F910F900BBE0F900FBE0F901F90189558
:101A00001F920F920FB60F9211240BB60F922F93C5
:101A10003F934F935F936F937F938F939F93AF9376
:101A2000BF93EF93FF938CE794E00E946F04FF91C4
:101A3000EF91BF91AF919F918F917F916F915F9146
:101A40004F913F912F910F900BBE0F900FBE0F90B3
:101A50001F9018951F920F920FB60F9211240BB67C
:101A60000F922F933F934F935F936F937F938F9337
:101A70009F93AF93BF93EF93FF9389E195E00E940B
:101A8000E304FF91EF91BF91AF919F918F917F916F
:101A90006F915F914F913F912F910F900BBE0F90DF
:101AA0000FBE0F901F9018951F920F920FB60F92B6
:101AB00011240BB60F922F933F934F935F936F9325
:101AC0007F938F939F93AF93BF93EF93FF9389E19E
:101AD00095E00E946F04FF91EF91BF91AF919F91AC
:101AE0008F917F916F915F914F913F912F910F90C7
:101AF0000BBE0F900FBE0F901F9018951F920F9264
:101B00000FB60F9211240BB60F922F933F934F9362
:101B10005F936F937F938F939F93AF93BF93EF9355
:101B2000FF9386EB95E00E94E304FF91EF91BF9154
:101B3000AF919F918F917F916F915F914F913F9165
:101B40002F910F900BBE0F900FBE0F901F90189506
:101B50001F920F920FB60F9211240BB60F922F9374
:101B60003F934F935F936F937F938F939F93AF9325
:101B7000BF93EF93FF9386EB95E00E946F04FF9174
:101B8000EF91BF91AF919F918F917F916F915F91F5
:101B90004F913F912F910F900BBE0F900FBE0F9062
:101BA0001F9018951F920F920FB60F9211240BB62B
:101BB0000F922F933F934F935F936F937F938F93E6
:101BC0009F93AF93BF93EF93FF938091B900887F6A
:101BD000803609F44DC008F040C0883209F4A9C02D
:101BE00028F5803109F49DC0C8F4882309F4FBC0AE
:101BF000883009F496C0FF91EF91BF91AF919F910A
:101C00008F917F916F915F914F913F912F910F90A5
:101C10000BBE0F900FBE0F901F901895883109F4DE
:101C200088C0803241F780933F0414C0803409F4A7
:101C30009DC040F48033B9F38833E9F680933F04C4
:101C400085ECB0C0803509F485C0883509F496C0AC
:101C5000883489F60E944A0ACECF883909F48CC0AC
:101C600038F5883729F050F4883611F0803719F6A6
:101C700083E08093400410923E0457C0883809F4F2
:101C80007BC0803919F0803809F0B5CF80913E04CF
:101C9000803208F071C0E0913E0481E08E0F8093A5
:101CA0003E048091BB00F0E0E25EFB4F80833DC0CC
:101CB000803B39F0E0F4803A09F479C0883A09F0C1
:101CC0009ACF84E08093400410921D0410921C046B
:101CD000E0916804F0916904199580911C048111C8
:101CE0000FC081E080931C041092FC0309C0803C6B
:101CF00009F4A6CF883C09F4A3CF883B09F07BCF39
:101D0000E0911D0481E08E0F80931D04F0E0E4500B
:101D1000FC4F80818093BB0090911D0480911C0436
:101D200029C0809165048093BB0085EC8093BC0042
:101D300062CF9091640480916304981758F5E09104
:101D4000640481E08E0F80936404F0E0ED5BFB4F50
:101D50008081E9CFE091640481E08E0F8093640478
:101D60008091BB00F0E0ED5BFB4F808390916404B9
:101D7000809163049817C8F285E8D8CFE091640495
:101D800081E08E0F809364048091BB00F0E0ED5BF6
:101D9000FB4F80838091420481115CCF81E080936E
:101DA000410484EA8093BC001092400424CF85EC67
:101DB0008093BC001092400480913E04803230F445
:101DC000E0913E04F0E0E25EFB4F108260913E0441
:101DD00070E0E0916604F09167048EE194E019955B
:101DE00010923E0408CF10923F0434CFECE7F4E0A9
:101DF0001382128288EE93E0A0E0B0E084839583A2
:101E0000A683B78328E032E03183208345E351E0A5
:101E10005587448744E351E05787468740E351E0C4
:101E2000518B408B41E351E0538B428B42E351E0B5
:101E3000558B448B46E351E0578B468B118E128EA7
:101E4000138E148EE9E1F5E0138212828483958368
:101E5000A683B7833183208345ED50E055874487BF
:101E600044ED50E05787468740ED50E0518B408B62
:101E700041ED50E0538B428B42ED50E0558B448B4B
:101E800046ED50E0578B468B118E128E138E148EBA
:101E9000E6EBF5E01382128284839583A683B783F1
:101EA0003183208325EC30E03587248724EC30E033
:101EB0003787268720EC30E0318B208B21EC30E017
:101EC000338B228B22EC30E0358B248B26EC30E0F8
:101ED000378B268B118E128E138E148EE3E5F6E06F
:101EE0001382128284839583A683B7838AE192E06A
:101EF00091838083EBE6F6E033E0318F21E02083AD
:101F00001282118280E291EAA7E0B0E08383948399
:101F1000A583B6831782148A37AB268F10A2178E3B
:101F200081A392A3A3A3B4A315A212AA8CE292E068
:101F30009093600680935F060895CF93DF9300D05F
:101F400000D01F921F92CDB7DEB7789484B582601F
:101F500084BD84B5816084BD85B5826085BD85B54D
:101F6000816085BD80916E00816080936E001092CB
:101F70008100809181008260809381008091810046
:101F800081608093810080918000816080938000D7
:101F90008091B10084608093B1008091B000816035
:101FA0008093B00080919100826080939100809135
:101FB0009100816080939100809190008160809376
:101FC00090008091A10082608093A1008091A10087
:101FD00081608093A1008091A00081608093A00027
:101FE0008091210182608093210180912101816093
:101FF0008093210180912001816080932001809154
:102000007A00846080937A0080917A008260809365
:102010007A0080917A00816080937A0080917A00C2
:10202000806880937A001092C10040E052EC61E039
:1020300070E086EB95E00E94790110926D04109299
:102040006C0410926B0410926A040E94C2058CE02A
:1020500094E0909369048093680488E194E09093FD
:102060006704809366048EE18093BA0081EA9AE067
:1020700090936F0480936E0482E69BE090937104CA
:102080008093700480910101877F8093010180918A
:1020900001018F7E8093010120E0222E22E0322E6A
:1020A0000BE616E01F830E83B12CA12C3EE1932E8C
:1020B00044E2442E512C4DE0642E41EC742E8824D1
:1020C0008394D1018D919D911D01EE81FF8110823C
:1020D00020E032EC41E050E0238334834583568393
:1020E00092838183178240E052EC61E070E00E94AD
:1020F0007901EE81FF8110861186128613869A9CE3
:1021000070019B9CF00C1124F701ED58F94F808170
:102110008E7F806480688083818181608183AE81CD
:10212000BF8118962D913D914D915C911B9760E078
:10213000CD010E943509EE81FF8114861586168631
:10214000178697012958394F6901D9018C91807EF2
:1021500080618C9311968C9111978F6111968C935D
:10216000119712968C911297807F816012968C93B2
:10217000248535854685578560E1CF010E94350964
:1021800023E530E040E050E1AE81BF8155962D93CC
:102190003D934D935C935897F701E058F94F7F01B9
:1021A00081819281916092838877818383E58083A6
:1021B00055962D913D914D915C9158976CE68E818D
:1021C0009F810E943509AE81BF815A964D925D92E2
:1021D0006D927C925D9724E230E04DE051EC60E737
:1021E000CD010E943509EE81FF81108A118A128A81
:1021F000138A20E030E0A90162E4CF010E94350992
:1022000024E130E040E050E061E18E819F810E9456
:10221000350920E030E0A90163E18E819F810E94B1
:10222000350920E030E0A90162E28E819F810E94A1
:10223000350920E030E0A90164E18E819F810E9490
:10224000350920E030E0A90160E48E819F810E9481
:10225000350920E030E0A90162E48E819F810E946F
:10226000350960E08E819F810E94D107AE81BF81D8
:1022700018966D937D938D939C931B976CE6CD017F
:102280000E94D107EE81FF81658B768B878B908FC3
:1022900060E7CF010E94D107AE81BF815A966D934E
:1022A0007D938D939C935D97F6018181807E8183E0
:1022B0008081807E8083CD010E94270AAE81BF810C
:1022C0008C91811107C0F7018081807F8083CD01CF
:1022D0000E941F0AAE81BF818C9181110DC09A9C12
:1022E000F0019B9CF00D1124EB57F94F82818B7FFD
:1022F0008283CD010E94170AEE81FF8180818111C6
:102300000EC09A9CF0019B9CF00D1124EB57F94FE5
:102310008281877F82838E819F810E94170A60E07D
:102320008E819F810E94D10766FD03C0AE81BF816F
:102330008C9260E08E819F810E94D1078AE093E0B9
:1023400066FF4CC20E940807C5010E94B70785E1DD
:1023500093E00E940807EE81FF817E96FF83EE8363
:10236000AA94AB2809F036C288E090E090936A0600
:10237000809369060E94610361E0809169060E9472
:10238000800380E1809362061092630610926606D5
:102390001092640610926706109265061092680605
:1023A0000E9421068FE00E94A8071F821E8262E021
:1023B00070E08E819F810E94950720E030E0A901A6
:1023C00064E08E810E9488072E813F812F5F3F4FFE
:1023D0003F832E832330310551F764E083E00E9470
:1023E00078079B012062AC0164E083E00E948807CB
:1023F00069E083E00E947807613071498244910569
:1024000009F0F4C182E493E00E94150781E693E0AD
:102410000E9415071F821E82BEE1FB2E84E2E82E79
:10242000DD24D394D8018C91811116C02E813F8177
:10243000F29EF001F39EF00D1124ED58F94F8081CA
:10244000877F808318962D913D914D915C911B97CC
:1024500060E0C8010E943509D8018C9181110FC03C
:102460002E813F81F29EF001F39EF00D1124E95878
:10247000F94F81818F618183C8010E94270AD801A9
:102480008C9181110FC02E813F81F29EF001F39E4D
:10249000F00D1124E958F94F8081807E8083C801B6
:1024A0000E94270AD8018C9181110FC02E813F8193
:1024B000F29EF001F39EF00D1124E958F94F82814C
:1024C000807F8283C8010E94270AD8018C918111E4
:1024D0000FC02E813F81F29EF001F39EF00D11247A
:1024E000E058F94F8381807F8383C8010E941F0ACF
:1024F000D8018C91811110C02E813F81F29EF00194
:10250000F39EF00D1124EB57F94F82818F7C80628E
:102510008283C8010E94170AD8018C9181110DC0D5
:102520002E813F81F29EF001F39EF00D1124E559BA
:10253000F94FE28EC8010E94170AD8018C918111CF
:102540000DC02E813F81F29EF001F39EF00D11240B
:10255000E559F94F138EC8010E94170AD8018C91D2
:1025600081110FC02E813F81F29EF001F39EF00D8C
:102570001124EB57F94F82818B7F8283C8010E941F
:10258000170AD8018C9181110FC02E813F81F29ED4
:10259000F001F39EF00D1124EB57F94F8281877FF4
:1025A0008283C8010E94170AD8018C91811108C04A
:1025B00020ED37E040E050E064E1C8010E943509B9
:1025C000F8018081811118C02E813F81F29EF001B7
:1025D000F39EF00D1124E558F94F80818F798064C6
:1025E0008083D80150962D913D914D915C915397E8
:1025F00062E4C8010E943509F801808181111DC083
:102600002E813F81F29EF001F39EF00D1124E558DA
:10261000F94F8081807F816080838181807F818389
:10262000D80150962D913D914D915C91539762E464
:10263000C8010E943509F801D48A025E1F4F2E811D
:102640003F812130310509F0D4C064E083E00E946D
:1026500078079B01277FAC0164E083E00E94880734
:1026600064E083E00E9478079B012F7EAC0164E068
:1026700083E00E94880764E083E00E9478079B0162
:102680002160AC0164E083E00E9488076AE081E099
:102690000E9478079B01377FAC016AE081E00E94CD
:1026A00088076AE082E00E9478079B013860AC01ED
:1026B0006AE082E00E9488076AE081E00E94780771
:1026C0009B013260AC016AE081E00E9488076AE009
:1026D00082E00E9478079B013160AC016AE082E0F1
:1026E0000E94880703E616E0D12CC12CEE24E39467
:1026F000F12CC8866AE08C2D0E9478079B013B7FF5
:10270000AC016AE08C2D0E94880770E060E0C60191
:102710000E9495076FE083E00E9478077F70A72EE4
:10272000B12C6091620670E090E080E00E94BE17DC
:102730002B013C01B5016F5F7F4FE4E0660F771F0F
:10274000EA95E1F7072E000C880B990B0E94C01741
:10275000A30192010E9416179B01AC010E94AA16C8
:102760009B01AC0160E074E284E799E40E941617D3
:102770000E948F174501F4E0880C991CFA95E1F747
:102780006115784C8F4F9F4F08F0B2C0A114B1046F
:1027900009F4AEC041E0A41AB108B401092C000C40
:1027A000880B990B0E94C017A30192010E94161773
:1027B0009B01AC010E94AA169B01AC0160E074E28F
:1027C00084E799E40E9416170E948F1750E1851A3A
:1027D0009108D6CFAA24A394B12C73CC0E940807E9
:1027E000C5010E94B7078AE293E0B3CD8EE793E07C
:1027F0000FCE41E050E05F834E8314CE80916B0694
:1028000081110DC0909184069F7080918006807F19
:10281000892B809380068BE696E00E941F0A8091A8
:10282000890681110DC09091A2069F7080919E062D
:10283000807F892B80939E0689E896E00E941F0A7C
:1028400020E038EC4FEF5FEF60E081E00E94880706
:1028500020E038E340E050E060E082E00E9488073A
:102860006AE080E00E94780720E030E0A90161E0A2
:1028700080E00E94880720E030E0A90160E080E06D
:102880000E9488076AE081E00E9478072FEF3FEFFF
:102890004FEF5FE760E081E00E94880720E030E0D2
:1028A000A90161E081E00E94880720E030E0A901F1
:1028B00060E081E00E94880782E0809372041F82BA
:1028C0001E8262E070E08E819F810E94950720E069
:1028D00030E0A90164E08E810E9488074E815F810B
:1028E0004F5F5F4F5F834E834330510551F7FFCFFA
:1028F0008A2D0E94A8070E94D90189836CE08885EF
:102900000E947807262F39813295307F7F70372BD0
:10291000AC016CE088850E9488071801E981D80124
:10292000EC93B70102C0660F771FEA95E2F7072E16
:10293000000C880B990B0E94C01720E030E048EC97
:1029400052E40E9451184B015C016091620670E0F4
:1029500090E080E00E94BE1720E034E244E759E4B2
:102960000E9451189B01AC01C501B4010E941617C9
:1029700020E030E040E857E40E9451180E94881798
:102980009B01770F440B550B21153105410551056E
:1029900021F421E030E040E050E062E088850E94D0
:1029A00088076091620670E090E080E00E94BE17A8
:1029B00020E034E244E759E40E9451182B013C0125
:1029C000D8018C91B70102C0660F771F8A95E2F794
:1029D000072E000C880B990B0E94C01720E030E0F6
:1029E00040E656EC0E945118A30192010E9416176E
:1029F00020E030E040E857E40E9451180E94881718
:102A00004B01770FAA08BB0820E030E040E857E30D
:102A1000C301B2010E94511820E030EE4FEF54E4A0
:102A20000E9451180E9488179B01AC0182169306E0
:102A3000A406B50610F4A501940163E088850E9400
:102A400088070E94D901782E6DE00E9435034B0162
:102A50005C016DE0872D0E94B502BDE0BE83E8EA0F
:102A60008E16E1E69E06A104B104B8F4683A7146F8
:102A70008105910590F42E81222379F0271568F0C5
:102A800021502E83622F872D0E9435034B015C015C
:102A90006E81872D0E94B502E2CF6CE088850E948E
:102AA0007807262F707F3E813F70372BAC016CE09A
:102AB00088850E948807EE81D8011396EC931397BE
:102AC000FC91F9836E2F8F2F0E9435034B015C011F
:102AD0006E8189810E94B5026A837B838C839D838A
:102AE00028EA821621E69206A104B10430F058EAE1
:102AF000852E51E6952EA12CB12C6091620670E0D6
:102B000090E080E00E94BE1720E034E244E759E400
:102B10000E9451182B013C016A817B818C819D812F
:102B2000681579058A059B0510F4C501B4010E945A
:102B3000BE174B015C01B701098002C0660F771F09
:102B40000A94E2F7072E000C880B990B0E94C0171D
:102B50009B01AC01C501B4010E945118A30192016F
:102B60000E94161720E030E040E05EE40E94511819
:102B7000A30192010E9416174B015C01B7010E8060
:102B800002C0660F771F0A94E2F7072E000C880B2D
:102B9000990B0E94C0179B01AC01C501B4010E94B2
:102BA00051184B015C0120E030E0A9010E944C1853
:102BB00020E030E040E05FE387FD98C0C501B4014C
:102BC0000E94AA160E9488174B015C01811438E00C
:102BD0009306A104B10408F08EC081149104A104ED
:102BE000B10409F48FC0A501940166E088850E94B4
:102BF00088070F5F1F4FC501B4010E94BE174B012C
:102C00005C01D10113968C9113979C91891B990BB0
:102C1000B70102C0660F771F8A95E2F7072E000CF6
:102C2000880B990B0E94C01720E030E040E053E48D
:102C30000E9451189B01AC01C501B4010E941617F6
:102C400024EA30E74DE75FE30E94511820E030E0CE
:102C500040E051E40E9451182B013C01AA24AA949F
:102C6000BA2C22242A94322C912C812CB701082CC6
:102C700002C0660F771F0A94E2F7072E000C880B3C
:102C8000990B0E94C017A30192010E9451180E9443
:102C900088179B01205831092038310510F4540160
:102CA0001B01BFEF8B1A9B0AEEE08E169104F1F622
:102CB000FFEF2F163F0691F02FEFA216B20671F02C
:102CC00069E088850E9478072A2D2F70607F262B67
:102CD000322DAC0169E088850E948807CA94CD280E
:102CE00009F48CCDCC24C394D12C03CDC501B401FF
:102CF0000E94A91667CF88248A9447E0942EA12CBD
:102D0000B12C71CF812C912C540183946CCFA1E212
:102D10001A2EAA1BBB1BFD010DC0AA1FBB1FEE1F55
:102D2000FF1FA217B307E407F50720F0A21BB30BA0
:102D3000E40BF50B661F771F881F991F1A9469F71C
:102D400060957095809590959B01AC01BD01CF0178
:102D500008955058BB27AA270E94C1160C94121838
:102D60000E94041838F00E940B1820F039F49F3F9D
:102D700019F426F40C9401180EF4E095E7FB0C947A
:102D8000FB17E92F0E94231858F3BA17620773073D
:102D90008407950720F079F4A6F50C9445180EF4F5
:102DA000E0950B2EBA2FA02D0B01B90190010C015B
:102DB000CA01A0011124FF27591B99F0593F50F473
:102DC000503E68F11A16F040A22F232F342F4427CB
:102DD000585FF3CF469537952795A795F0405395C3
:102DE000C9F77EF41F16BA0B620B730B840BBAF093
:102DF0009150A1F0FF0FBB1F661F771F881FC2F7FE
:102E00000EC0BA0F621F731F841F48F48795779511
:102E10006795B795F7959E3F08F0B0CF9395880FCB
:102E200008F09927EE0F9795879508950E942A1725
:102E30000C9412180E940B1858F00E94041840F0CD
:102E400029F45F3F29F00C94FB1751110C9446189C
:102E50000C9401180E94231868F39923B1F35523A9
:102E600091F3951B550BBB27AA276217730784079D
:102E700038F09F5F5F4F220F331F441FAA1FA9F333
:102E800035D00E2E3AF0E0E832D091505040E69521
:102E9000001CCAF72BD0FE2F29D0660F771F881F82
:102EA000BB1F261737074807AB07B0E809F0BB0B75
:102EB000802DBF01FF2793585F4F3AF09E3F510589
:102EC00078F00C94FB170C9446185F3FE4F3983E9F
:102ED000D4F3869577956795B795F7959F5FC9F772
:102EE000880F911D9695879597F90895E1E0660FF3
:102EF000771F881FBB1F621773078407BA0720F06C
:102F0000621B730B840BBA0BEE1F88F7E0950895D4
:102F10000E948F176894B1110C94461808950E946E
:102F20002B1888F09F5798F0B92F9927B751B0F018
:102F3000E1F0660F771F881F991F1AF0BA95C9F73D
:102F400014C0B13091F00E944518B1E008950C947E
:102F50004518672F782F8827B85F39F0B93FCCF331
:102F6000869577956795B395D9F73EF490958095BA
:102F7000709561957F4F8F4F9F4F0895E89409C0DA
:102F800097FB3EF490958095709561957F4F8F4F9C
:102F90009F4F9923A9F0F92F96E9BB279395F695B2
:102FA000879577956795B795F111F8CFFAF4BB0F30
:102FB00011F460FF1BC06F5F7F4F8F4F9F4F16C094
:102FC000882311F096E911C0772321F09EE8872F1E
:102FD000762F05C0662371F096E8862F70E060E0DA
:102FE0002AF09A95660F771F881FDAF7880F969553
:102FF000879597F9089597F99F6780E870E060E0FA
:1030000008959FEF80EC089500240A941616170681
:1030100018060906089500240A94121613061406C9
:1030200005060895092E0394000C11F4882352F02C
:10303000BB0F40F4BF2B11F460FF04C06F5F7F4FE4
:103040008F4F9F4F089557FD9058440F551F59F0CB
:103050005F3F71F04795880F97FB991F61F09F3F85
:1030600079F087950895121613061406551FF2CFAE
:103070004695F1DF08C0161617061806991FF1CFFE
:1030800086957105610508940895E894BB27662725
:103090007727CB0197F908950E94BE1808F48FEFA7
:1030A00008950E9464180C9412180E94041838F0B5
:1030B0000E940B1820F0952311F00C94FB170C9430
:1030C000011811240C9446180E94231870F3959F40
:1030D000C1F3950F50E0551F629FF001729FBB270F
:1030E000F00DB11D639FAA27F00DB11DAA1F649FAB
:1030F0006627B00DA11D661F829F2227B00DA11D5E
:10310000621F739FB00DA11D621F839FA00D611DE3
:10311000221F749F3327A00D611D231F849F600D04
:10312000211D822F762F6A2F11249F5750409AF02D
:10313000F1F088234AF0EE0FFF1FBB1F661F771FB9
:10314000881F91505040A9F79E3F510580F00C9484
:10315000FB170C9446185F3FE4F3983ED4F3869532
:1031600077956795B795F795E7959F5FC1F7FE2B24
:10317000880F911D9695879597F90895990F0008E6
:10318000550FAA0BE0E8FEEF16161706E807F90739
:10319000C0F012161306E407F50798F0621B730BD4
:1031A000840B950B39F40A2661F0232B242B252B55
:1031B00021F408950A2609F4A140A6958FEF811DF8
:1031C000811D0895EE0FFF1F881F8BBF0790F6919A
:1031D000E02D19946927962769277827872778276C
:1031E0000895689401C0E8948F929F92CF93DF93E3
:1031F0000E94FF18DF91CF919F908F9008958824AF
:103200009924F401E401B0E49F93AA279A158B0452
:103210009C04ED05FE05CF05D007A10798F4AD2F5E
:10322000DC2FCF2FFE2FE92D982C892E982F872F5A
:10323000762F652F542F432F322F2227B85031F786
:10324000BF9127C01B2EBF91BB27220F331F441FE6
:10325000551F661F771F881F991F881C991CEE1F1A
:10326000FF1FCC1FDD1FAA1FBB1F8A149B04EC0588
:10327000FD05CE05DF05A007B10748F08A189B08B9
:10328000EC09FD09CE09DF09A00BB10B21601A94EE
:10329000E1F62EF49401AF01BE01CD01000C0895BA
:1032A000002E083090F0982F872F762F652F542FFF
:1032B000432F322F22270850F4CF220F331F441FF1
:1032C000551F661F771F881F991F0A95B2F7002D9B
:1032D000089597FD1094002E083098F00850232F81
:1032E000342F452F562F672F782F892F912DF4CF0C
:1032F0001594979587957795679557954795379541
:1033000027950A95AAF71124002D08950024A7FDFA
:1033100000942A17300540055005600570058005AA
:1033200090050895FB01DC0101900D920020E1F76A
:1033300008950F931F93CF93DF93CDB7DEB72E97EA
:103340000FB6F894DEBF0FBECDBF0E891F8986E091
:103350008C831A8309838FEF9FE79E838D83AE0151
:10336000465E5F4F688D798DCE0101960E94C91926
:103370002F813885020F131FF80110822E960FB689
:10338000F894DEBF0FBECDBFDF91CF911F910F919B
:1033900008952F923F924F925F926F927F928F92F9
:1033A0009F92AF92BF92CF92DF92EF92FF920F93D4
:1033B0001F93CF93DF9300D000D000D01F921F92B5
:1033C000CDB7DEB77C013B018A01FC011782168272
:1033D000838181FFDDC1CE0101965C01F7019381FC
:1033E000F30193FD859193FF81913F01882309F4B7
:1033F00053C1853239F493FD859193FF81913F014B
:10340000853229F4B70190E00E94E11BE7CF912CAF
:10341000212C312CFFE1F31538F08B3211F190F4AF
:10342000803209F1833229F137FC3CC020ED280FAE
:103430002A3050F536FE20C08AE0989E200D1124D7
:10344000922E06C08D3291F0803371F7689430F877
:10345000F30193FD859193FF81913F018111DACFB3
:1034600021C0689431F8689432F8F2CF689433F848
:10347000EFCF689434F8ECCFEAE02E9E200D1124B3
:10348000222E689435F8E4CF8E3229F436FC04C13C
:10349000689436F8DDCF8C3619F4689437F8D8CFB5
:1034A0008836B1F2982F9F7D95549330E0F08336A3
:1034B000A1F18337C1F1833509F063C02801F2E03F
:1034C0004F0E511CF801C080D180692D70E036FC90
:1034D00002C06FEF7FEFC6010E94CB1B4C016894C6
:1034E00037F882010AC00C5F1F4FFFE3F98388247D
:1034F0008394912C6501E89437F833FE2DC0522C4B
:103500008114910471F5552009F468CFB70180E268
:1035100090E00E94E11B5A94F6CFF80180818983E4
:103520000E5F1F4FE4CF2801F2E04F0E511CF8014F
:10353000C080D180692D70E036FC02C06FEF7FEF54
:10354000C6010E94D61B4C018201D5CFB70180E293
:1035500090E00E94E11B2A942814190409F0B0F7A6
:10356000CECFF60137FC859137FE81916F01B7010F
:1035700090E00E94E11B51105A94F1E08F1A9108DB
:10358000BFCF843619F0893609F077C0F80137FECD
:103590006BC060817181828193810C5F1F4FF32D1D
:1035A000FF763F2E97FF09C09095809570956195A5
:1035B0007F4F8F4F9F4F689437F82AE030E0A50186
:1035C0000E94111CC82ECA188C2C432C36FE0CC02D
:1035D000E89440F8C91440F434FE05C032FC03C03E
:1035E000F32DFE7E4F2E892C44FEAAC0FE01EC0D69
:1035F000F11D8081803309F09CC0242D297E422E4C
:10360000842D8870582E43FCAAC040FEA4C09C2C78
:10361000821418F42C0C922C981844FEA6C0B70102
:1036200080E390E00E94E11B42FE09C088E790E041
:1036300041FE02C088E590E0B7010E94E11BC91479
:1036400008F49FC0CA94D12C9FEFC91AD90ACA0C9A
:10365000DB1CF60182916F01B70190E00E94E11B33
:10366000AC14BD04B1F74FCF60817181072E000CFF
:10367000880B990B0E5F1F4F92CFD32CE894D4F890
:103680002AE030E08537E1F1232D297FD22E8F36D5
:10369000A9F1F0F4883551F1F701868197812B96D5
:1036A0000FB6F894DEBF0FBECDBFDF91CF911F9153
:1036B0000F91FF90EF90DF90CF90BF90AF909F90D1
:1036C0008F907F906F905F904F903F902F900895D4
:1036D000803749F0883701F7D4FE02C06894D2F8E9
:1036E00020E130E00DC06894D4F8F6CF34FE03C07A
:1036F000822F8660D82E20E132E002C028E030E040
:10370000F801D7FE0FC060817181828193810C5FC7
:103710001F4FA5010E94111CC82ECA183D2CE89409
:1037200037F852CF6081718190E080E00E5F1F4FCB
:10373000F0CF42FC02C0839463CF8394839460CF24
:10374000842D867809F45CCFF6CFB70180E290E053
:103750000E94E11B83948214C0F3512C5ECF522C43
:103760005818821408F459CFF8CF842D867809F4BC
:1037700066CF8BE241FE80E247FC8DE2B70190E02C
:103780005CCFB70180E390E00E94E11B9A9457CF91
:103790008FEF9FEF84CFFC010590615070400110C6
:1037A000D8F7809590958E0F9F1F0895FC0161506A
:1037B000704001900110D8F7809590958E0F9F1F53
:1037C00008950F931F93CF93DF93182F092FEB01C9
:1037D0008B8181FD09C01FEF0FEF812F902FDF91AB
:1037E000CF911F910F91089582FF14C02E813F81C8
:1037F0008C819D81281739073CF4E881F981CF013C
:1038000001969983888310838E819F8101969F837F
:103810008E83E3CFE885F985812F1995892BA1F354
:10382000DACFFA01AA27283051F1203181F1E8944A
:103830006F936E7F6E5F7F4F8F4F9F4FAF4FB1E0A3
:103840003ED0B4E03CD0670F781F891F9A1FA11D9E
:10385000680F791F8A1F911DA11D6A0F711D811D9F
:10386000911DA11D20D009F468943F912AE0269F64
:1038700011243019305D3193DEF6CF010895462FC3
:103880004770405D4193B3E00FD0C9F7F6CF462FA4
:103890004F70405D4A3318F0495D31FD405241930D
:1038A00002D0A9F7EACFB4E0A695979587957795CA
:1038B0006795BA95C9F700976105710508959B0151
:1038C000AC010A2E06945795479537952795BA95DA
:1038D000C9F7620F731F841F951FA01D0895F894E8
:1038E000FFCF19057C040000000005054204880490
:1038F0005205B9049704AB04000000000D0602064F
:103900001E06D805FB05E805D90500000000540691
:1039100067065C065D060D0A0077726974652829E2
:103920002D3E20636F6D6D616E6420627566666505
:103930007220697320656D7074792C2077726974B8
:1039400065206661696C65640067657443686563DA
:103950006B53756D28292D3E20636865636B2D734D
:10396000756D3A2025640077726974652829202DC9
:103970003E206279746573207772697474656E3A5B
:10398000202564007265616428292D3E2074696DCC
:10399000656F75742C2072656164206661696C6561
:1039A00064007265616428292D3E20666972737413
:1039B0002062797465203D2025303258007265619F
:1039C0006428292D3E206279746520232564203DDA
:1039D0002025303258007265616428292D3E2072FE
:1039E000656164207375636365737300544D43327E
:1039F0003230392023200020697320757020616ED9
:103A0000642072756E6E696E67200A0020697320EB
:103A10006E6F7420636F6D6D756E69636174696E2E
:103A200067200A00544D4334323920697320757081
:103A300020616E6420636F6D6D756E69636174697A
:103A40006E6700486F6D696E672070726F636564A2
:103A5000757265207374617274696E672E2E2E0004
:103A6000544D43343239206973206E6F7420636F74
:0C3A70006D6D756E69636174696E6700AE
:020000040003F7
:10E000000D9489F10D94B2F10D94B2F10D94B2F129
:10E010000D94B2F10D94B2F10D94B2F10D94B2F1F0
:10E020000D94B2F10D94B2F10D94B2F10D94B2F1E0
:10E030000D94B2F10D94B2F10D94B2F10D94B2F1D0
:10E040000D94B2F10D94B2F10D94B2F10D94B2F1C0
:10E050000D94B2F10D94B2F10D94B2F10D94B2F1B0
:10E060000D94B2F10D94B2F10D94B2F10D94B2F1A0
:10E070000D94B2F10D94B2F10D94B2F10D94B2F190
:10E080000D94B2F10D94B2F10D94B2F10D94B2F180
:10E090000D94B2F10D94B2F10D94B2F10D94B2F170
:10E0A0000D94B2F10D94B2F10D94B2F10D94B2F160
:10E0B0000D94B2F10D94B2F10D94B2F10D94B2F150
:10E0C0000D94B2F10D94B2F10D94B2F10D94B2F140
:10E0D0000D94B2F10D94B2F10D94B2F10D94B2F130
:10E0E0000D94B2F141546D656761323536300041AF
:10E0F000726475696E6F206578706C6F72657220DE
:10E1000073746B3530305632206279204D4C530099
:10E11000426F6F746C6F616465723E004875683F52
:10E1200000436F6D70696C6564206F6E203D200048
:10E130004350552054797065202020203D20005FF9
:10E140005F4156525F415243485F5F3D2000415658
:10E1500052204C696243205665723D20004743437C
:10E160002056657273696F6E203D20004350552024
:10E1700049442020202020203D20004C6F7720663D
:10E18000757365202020203D20004869676820665F
:10E190007573652020203D200045787420667573D6
:10E1A00065202020203D20004C6F636B2066757336
:10E1B000652020203D20004D617220203720323024
:10E1C000313300312E362E3800342E332E350056A2
:10E1D00023202020414444522020206F7020636F70
:10E1E00064652020202020696E73747275637469E1
:10E1F0006F6E2061646472202020496E74657272B3
:10E20000757074006E6F20766563746F7200726A49
:10E210006D702020006A6D70200057686174207056
:10E220006F72743A00506F7274206E6F7420737541
:10E2300070706F72746564004D7573742062652030
:10E2400061206C6574746572002000577269747483
:10E25000696E672045450052656164696E672045B7
:10E26000450045452065727220636E743D00504F35
:10E27000525400303D5A65726F2061646472003FF1
:10E280003D43505520737461747300403D454550C3
:10E29000524F4D207465737400423D426C696E6B41
:10E2A000204C454400453D44756D70204545505215
:10E2B0004F4D00463D44756D7020464C415348001B
:10E2C000483D48656C70004C3D4C69737420492F83
:10E2D0004F20506F72747300513D51756974005234
:10E2E0003D44756D702052414D00563D73686F7707
:10E2F00020696E7465727275707420566563746FF0
:10E30000727300593D506F727420626C696E6B00BD
:10E310002A0011241FBECFEFD1E2DEBFCDBF01E046
:10E320000CBF12E0A0E0B2E0EEE1FDEF03E00BBFB6
:10E3300002C007900D92A030B107D9F712E0A0E01B
:10E34000B2E001C01D92AE30B107E1F70F9460F367
:10E350000D948DFE01E20EBF0FEF0DBF11241FBE05
:10E360000D9460F30D9400F020E030E040ED57E0B4
:10E3700005C0FA013197F1F72F5F3F4F2817390792
:10E38000C0F308959C01260F311DC901A0E0B0E043
:10E390002F5F3F4FABBFFC018791882361F08093D3
:10E3A000C6008091C00086FFFCCF8091C0008064D1
:10E3B0008093C000EACF08958DE08093C6008091DD
:10E3C000C00086FFFCCF8091C00080648093C000B5
:10E3D0008AE08093C6008091C00086FFFCCF8091C8
:10E3E000C00080648093C00008950F94C2F10F9420
:10E3F000DCF10895FC019081992359F09093C600B7
:10E400008091C00086FFFCCF8091C0008064809323
:10E41000C0003196992379F70895282F982F929567
:10E420009F70892F805D8A3308F0895F8093C600D2
:10E430008091C00086FFFCCF8091C00080648093F3
:10E44000C000822F8F70982F905D9A3308F0995FEB
:10E450009093C6008091C00086FFFCCF8091C000E1
:10E4600080648093C00008959C01FB01853691056E
:10E470001CF46330710594F0C90164E670E00F94F8
:10E480002EFE605D7F4F6093C6008091C00086FFC6
:10E49000FCCF8091C00080648093C0002B30310598
:10E4A00014F43297B4F0C90164E670E00F942EFEC4
:10E4B0006AE070E00F942EFE605D7F4F6093C600AF
:10E4C0008091C00086FFFCCF8091C0008064809363
:10E4D000C000C9016AE070E00F942EFEC0968093E0
:10E4E000C6008091C00086FFFCCF8091C000806490
:10E4F0008093C00008951F93182F8EE692EE60E07F
:10E500000F94C2F11093C6008091C00086FFFCCF2B
:10E510008091C00080648093C0000F94DCF11F9153
:10E5200008952F923F924F925F926F927F928F92B7
:10E530009F92AF92BF92CF92DF92EF92FF920F9392
:10E540001F93DF93CF93CDB7DEB762970FB6F894E2
:10E55000DEBF0FBECDBF382E622ECA01DB015C01CB
:10E560006D01772420E2222E2E010894411C511CBB
:10E570008BC081E0A81680E0B80681E0C80680E084
:10E58000D80628F0C601AA27BB270F940DF2BB2797
:10E59000AD2D9C2D8B2D0F940DF28A2D0F940DF225
:10E5A0002092C6008091C00086FFFCCF8091C00001
:10E5B00080648093C0009DE29093C6008091C0006B
:10E5C00086FFFCCF8091C00080648093C0002092C1
:10E5D000C6008091C00086FFFCCF8091C00080649F
:10E5E0008093C00019828601750188249924A1E0D6
:10E5F0003A1651F03A1620F0B2E03B1661F409C029
:10E600000BBFF701779007C0C7010F9477FE782EF4
:10E6100002C0F7017080872D0F940DF22092C60082
:10E620008091C00086FFFCCF8091C0008064809301
:10E63000C000872D8052F401EF70F0708F3520F408
:10E64000E40DF51D708204C0E40DF51D8EE280839B
:10E650000894E11CF11C011D111D0894811C911CE2
:10E6600090E18916910409F0C2CF80E190E0A0E02A
:10E67000B0E0A80EB91ECA1EDB1E198AC2010F9493
:10E68000FAF10F94DCF16A94662009F072CF629679
:10E690000FB6F894DEBF0FBECDBFCF91DF911F91B3
:10E6A0000F91FF90EF90DF90CF90BF90AF909F9031
:10E6B0008F907F906F905F904F903F902F90089534
:10E6C0002F923F924F925F926F927F928F929F9282
:10E6D000AF92BF92CF92DF92EF92FF920F931F9370
:10E6E000DF93CF93CDB7DEB7CD53D1400FB6F894BB
:10E6F000DEBF0FBECDBF01E20EBF0FEF0DBF94B75F
:10E70000F894A89514BE80916000886180936000A1
:10E7100010926000789493FF05C0E0910002F091A0
:10E7200001021995279A2F9A8091C00082608093E8
:10E73000C00080E18093C40088E18093C1000000A4
:10E74000EE24FF24870144E0A42EB12CCC24DD2448
:10E7500024C0C5010197F1F70894E11CF11C011DCB
:10E76000111D21E2E2162EE4F20620E0020720E06D
:10E77000120718F031E0C32ED12CC801B70127ECE5
:10E780003BE140E050E00F9441FE611571058105C9
:10E79000910519F485B1805885B98091C00087FD35
:10E7A00003C0C114D104A9F2A6014F5F5F4FC25E3E
:10E7B000DE4F59834883CE51D140C25EDE4F8881FF
:10E7C0009981CE51D140019711F00D9410FEC05D9A
:10E7D000DE4F19821882C053D14060E0C15DDE4F28
:10E7E0001882CF52D14088249924C35DDE4F19820C
:10E7F0001882CD52D140C05EDE4F188219821A8233
:10E800001B82C052D140CE5CDE4F188219821A8220
:10E810001B82C253D140EE24FF2487010BBFF701B6
:10E8200007911691C45CDE4F19830883CC53D14005
:10E830000D940BFEC25EDE4F28813981CE51D1404E
:10E840002130310509F52091C600C25EDE4F1982E4
:10E850001882CE51D14022C02F5F3F4F4F4F5F4FA4
:10E86000213082E138078AE7480780E0580780F0C6
:10E87000C45CDE4FE881F981CC53D140EF5FFF4F9C
:10E8800019F0EE27FF27099420E030E040E050E047
:10E890008091C00087FFE0CF2091C600C35DDE4FAE
:10E8A00048815981CD52D1404F5F5F4FC35DDE4FEC
:10E8B00059834883CD52D140213209F063C64A3092
:10E8C000510508F05FC60894811C911C53E0851621
:10E8D000910409F059C600E010E018C081E280936D
:10E8E000C6008091C00086FFFCCF8091C00080648C
:10E8F0008093C0002F5F3F4F2931310579F70F9486
:10E90000DCF10F5F1F4F0530110519F020E030E0FA
:10E91000E5CF10920A0210920B0210920C02109294
:10E920000D02109206021092070210920802109235
:10E930000902109202021092030210920402109235
:10E9400005028FEE90EE60E00F94F5F180E191EE1C
:10E9500060E00F94C2F18091C00087FFFCCF9091DE
:10E96000C600903608F09F759032B8F09093C600BC
:10E970008091C00086FFFCCF8091C00080648093AE
:10E98000C000A0E2A093C6008091C00086FFFCCF2B
:10E990008091C00080648093C000983409F4D7C18E
:10E9A0009934B8F4923409F459C1933458F490333B
:10E9B00019F1903308F4E3C59F33A1F1903409F0C5
:10E9C000DEC5BDC0953409F470C1963409F0D7C5D1
:10E9D00098C1923509F42BC2933538F49C3409F46C
:10E9E000F5C1913509F0CBC518C2963509F445C279
:10E9F000993509F0C4C567C483E792EE62E00F94CD
:10EA0000F5F110920602109207021092080210927D
:10EA1000090210920A0210920B0210920C0210923C
:10EA20000D0213C18FE792EE62E00F94F5F18FEEC5
:10EA300090EE60E00F94F5F181E291EE60E00F94CA
:10EA4000C2F187EB91EE60E00F94F5F180E391EE77
:10EA500060E00F94C2F184EE90EE60E00F94F5F167
:10EA60008FE391EE60E00F94C2F186E090E061E008
:10EA700070E00F9434F20F94DCF18DE591EE60E0DC
:10EA80000F94C2F189EC91EE60E00F94F5F18EE401
:10EA900091EE60E00F94C2F183EC91EE60E00F9490
:10EAA000F5F18CE691EE60E00F94C2F18EE10F94E7
:10EAB0000DF288E90F940DF281E00F940DF20F949E
:10EAC000DCF18BE791EE60E00F94C2F119E0E0E039
:10EAD000F0E010935700E4918E2F0F940DF20F94F5
:10EAE000DCF18AE891EE60E00F94C2F1E3E0F0E03F
:10EAF00010935700E4918E2F0F940DF20F94DCF1D8
:10EB000089E991EE60E00F94C2F1E2E0F0E0109349
:10EB10005700E4918E2F0F940DF20F94DCF188EAE8
:10EB200091EE60E00F94C2F1E1E0F0E01093570045
:10EB30001491812F0F940DF20F94DCF107CF8BE825
:10EB400092EE62E00F94F5F18BE492EE60E00F94A8
:10EB5000F5F10F94DCF100E010E019C0C8016F2D51
:10EB60000F947FFEFF2031F489E492EE60E00F9471
:10EB7000C2F10BC0F092C6008091C00086FFFCCFAE
:10EB80008091C00080648093C0000F5F1F4FC80158
:10EB900081519F41A0E0B0E0ABBFFC01F790BAE229
:10EBA000FB1621F0E2E000301E07C1F60F94DCF105
:10EBB0000F94DCF187E592EE60E00F94F5F10F948D
:10EBC000DCF1CC24DD2400E010E01EC0C8010F946D
:10EBD00077FEF82E882331F489E492EE60E00F94FA
:10EBE000C2F10BC08093C6008091C00086FFFCCFAD
:10EBF0008091C00080648093C000FE1419F00894D6
:10EC0000C11CD11C0F5F1F4FC80181519F41A0E063
:10EC1000B0E0ABBFFC01E790FAE2EF1621F022E092
:10EC20000030120799F60F94DCF10F94DCF182E6C4
:10EC300092EE60E00F94C2F1C60161E070E00F94C3
:10EC400034F20F94DCF10F94DCF110920202109276
:10EC50000302109204021092050278CE89E992EE26
:10EC600062E00F94F5F1279A2F9A16C02F9880E052
:10EC700090E0E0EDF7E03197F1F7019684369105E9
:10EC8000C1F72F9A80E090E0E0EDF7E03197F1F7DF
:10EC9000019684369105C1F78091C00087FFE6CFC9
:10ECA0008091C00087FFFCCF64C485EA92EE62E0E9
:10ECB0000F94F5F140910202509103026091040219
:10ECC0007091050281E020E10F9491F2809102029F
:10ECD00090910302A0910402B091050280509F4FD1
:10ECE000AF4FBF4F8093020290930302A0930402A0
:10ECF000B093050280509041A040B04008F426CE69
:10ED0000A4CF83EB92EE62E00F94F5F140910602FE
:10ED100050910702609108027091090280E020E1A1
:10ED20000F9491F28091060290910702A09108023F
:10ED3000B091090280509F4FAF4FBF4F80930602A2
:10ED400090930702A0930802B0930902FFCD80ECD4
:10ED500092EE62E00F94F5F183E792EE60E00F949B
:10ED6000F5F18FE792EE60E00F94F5F18BE892EE0B
:10ED700060E00F94F5F189E992EE60E00F94F5F10F
:10ED800085EA92EE60E00F94F5F183EB92EE60E09D
:10ED90000F94F5F180EC92EE60E00F94F5F187ECC2
:10EDA00092EE60E00F94F5F188ED92EE60E00F9442
:10EDB000F5F18FED92EE60E00F94F5F18AEE92EEB0
:10EDC00060E00F94F5F183E093EEBDCD87EC92EE19
:10EDD00062E00F94F5F181E40F947BF282E40F94EA
:10EDE0007BF283E40F947BF284E40F947BF285E45E
:10EDF0000F947BF286E40F947BF287E40F947BF20E
:10EE000088E40F947BF28AE40F947BF28BE40F94F6
:10EE10007BF28CE40F947BF299CD88ED92EE62E068
:10EE20000F94F5F1772473948824992409C48FED05
:10EE300092EE62E00F94F5F140910A0250910B02BC
:10EE400060910C0270910D0282E020E10F9491F22A
:10EE500080910A0290910B02A0910C02B0910D02D8
:10EE600080509F4FAF4FBF4F80930A0290930B0289
:10EE7000A0930C02B0930D0269CD8AEE92EE62E08F
:10EE80000F94F5F184EE90EE60E00F94F5F18FECC5
:10EE900091EE60E00F94F5F1662477244301CC5D98
:10EEA000DE4F19821882C452D140D401C301B695F5
:10EEB000A79597958795CA5DDE4F88839983AA8326
:10EEC000BB83C652D140CC5DDE4FA881B981C4520C
:10EED000D1401196CC5DDE4FB983A883C452D14096
:10EEE000CD0162E070E00F9434F2B0E2B093C6005E
:10EEF0008091C00086FFFCCF8091C0008064809329
:10EF0000C000EDE2E093C6008091C00086FFFCCF18
:10EF10008091C00080648093C000F0E2F093C6004E
:10EF20008091C00086FFFCCF8091C00080648093F8
:10EF3000C000CA5DDE4FE880F9800A811B81C6529D
:10EF4000D140BB27A12F902F8F2D0F940DF2CA5DBA
:10EF5000DE4F8881C652D1400F940DF2B0E2FB2EF5
:10EF6000F092C6008091C00086FFFCCF8091C00067
:10EF700080648093C0000DE30093C6008091C000C0
:10EF800086FFFCCF8091C00080648093C00010E2B7
:10EF90001093C6008091C00086FFFCCF8091C00016
:10EFA00080648093C0008BBEF3012791C65DDE4F65
:10EFB0002883CA52D140A22EBB24CC24DD2408943D
:10EFC000611C711C811C911C8BBEF3018791282E42
:10EFD0003324442455240894611C711C811C911C09
:10EFE0008BBEF3013791C55DDE4F3883CB52D140E4
:10EFF0000894611C711C811C911C8BBEF30147910C
:10F00000C45DDE4F4883CC52D140ADEFEA2EAFEF66
:10F01000FA2EAFEF0A2FAFEF1A2F6E0C7F1C801E57
:10F02000911E142D032DF22CEE24EA0CFB1C0C1D5A
:10F030001D1D0F940DF220E22093C6008091C000A8
:10F0400086FFFCCF8091C00080648093C000C65DC5
:10F05000DE4F8881CA52D1400F940DF230E23093D6
:10F06000C6008091C00086FFFCCF8091C000806404
:10F070008093C000C45DDE4F8881CC52D1400F9494
:10F080000DF240E24093C6008091C00086FFFCCFA5
:10F090008091C00080648093C000C55DDE4F888190
:10F0A000CB52D1400F940DF250E25093C6008091A4
:10F0B000C00086FFFCCF8091C00080648093C000B8
:10F0C0008FEFE8168FEFF80680E0080780E018075A
:10F0D00031F484E092EE60E00F94C2F1DFC0D80119
:10F0E000C7018070907CA070B0708050904CA040A0
:10F0F000B040D1F52FEF3FE340E050E0E222F322B1
:10F1000004231523CA5DDE4FA880B980CA80DB8046
:10F11000C652D140AE0CBF1CC01ED11EAA0CBB1CD7
:10F12000CC1CDD1C8EE092EE60E00F94C2F1BB2798
:10F13000A12F902F8F2D0F940DF28E2D0F940DF285
:10F1400030E23093C6008091C00086FFFCCF8091F2
:10F15000C00080648093C0004EE34093C60080915D
:10F16000C00086FFFCCF87C08EE09EEFA0E0B0E03D
:10F17000E822F9220A231B239CE0E91694E9F90608
:10F1800090E0090790E0190709F088C0C45DDE4FE0
:10F19000A881CC52D140EA2EFF2400E010E0102FCD
:10F1A0000F2DFE2CEE24C55DDE4FB881CB52D14031
:10F1B000EB0EF11C011D111DD601C501817090706F
:10F1C000A070B070DC0199278827E80EF91E0A1F8D
:10F1D0001B1F20EF30E040E050E0A222B322C42207
:10F1E000D52241E1AA0CBB1CCC1CDD1C4A95D1F7F1
:10F1F000EA0CFB1C0C1D1D1D81E090E0A0E0B0E0BE
:10F20000282239224A225B2235E1220C331C441C7D
:10F21000551C3A95D1F7E20CF31C041D151D57013E
:10F220006801AA0CBB1CCC1CDD1C85E192EE60E0E1
:10F230000F94C2F1C801AA27BB270F940DF2BB2778
:10F24000A12F902F8F2D0F940DF28E2D0F940DF274
:10F2500090E29093C6008091C00086FFFCCF809121
:10F26000C00080648093C000AEE3A093C60080918C
:10F27000C00086FFFCCF8091C00080648093C000F6
:10F28000C601AA27BB270F940DF2BB27AD2D9C2DDD
:10F290008B2D0F940DF28A2D0F940DF20F94DCF14B
:10F2A000CC5DDE4FE881F981C452D140F99709F471
:10F2B0004DCBF4E0EF2EF12C012D112D6E0C7F1CA7
:10F2C000801E911EF2CD83E093EE62E00F94F5F183
:10F2D0008AE192EE60E00F94C2F18091C00087FF56
:10F2E000FCCF1091C6001F751093C6008091C0001E
:10F2F00086FFFCCF8091C00080648093C0000F9493
:10F30000DCF1812F81548A3108F036C1163409F4BA
:10F3100095C0173490F4133409F44EC0143430F40B
:10F320001134F1F0123409F01DC130C0143409F465
:10F3300059C0153409F016C16BC01A3409F4C4C0A1
:10F340001B3438F4173409F48FC0183409F00AC19B
:10F35000A1C01B3409F4D2C01C3409F003C1E8C0B9
:10F360008FEF81B90DC082B1809582B980E090E0C5
:10F37000E0EDF7E03197F1F70196883C9105C1F790
:10F380008091C00087FFEFCF12B8EFC08FEF84B934
:10F390000DC085B1809585B980E090E0E0EDF7E0A3
:10F3A0003197F1F70196883C9105C1F78091C00033
:10F3B00087FFEFCF15B8D9C08FEF87B90DC088B1DF
:10F3C000809588B980E090E0E0EDF7E03197F1F7C3
:10F3D0000196883C9105C1F78091C00087FFEFCF6F
:10F3E00018B8C3C08FEF8AB90DC08BB180958BB9A7
:10F3F00080E090E0E0EDF7E03197F1F70196883C8E
:10F400009105C1F78091C00087FFEFCF1BB8ADC059
:10F410008FEF8DB90DC08EB180958EB980E090E0F0
:10F42000E0EDF7E03197F1F70196883C9105C1F7DF
:10F430008091C00087FFEFCF1EB897C08FEF80BBD1
:10F440000DC081B3809581BB80E090E0E0EDF7E0F6
:10F450003197F1F70196883C9105C1F78091C00082
:10F4600087FFEFCF11BA81C08FEF83BB0DC084B38C
:10F47000809584BB80E090E0E0EDF7E03197F1F714
:10F480000196883C9105C1F78091C00087FFEFCFBE
:10F4900014BA6BC08FEF809301010FC080910201FD
:10F4A00080958093020180E090E0E0EDF7E03197F5
:10F4B000F1F70196883C9105C1F78091C00087FF64
:10F4C000EDCF1092020151C08FEF809304010FC065
:10F4D0008091050180958093050180E090E0E0ED4A
:10F4E000F7E03197F1F70196883C9105C1F78091DB
:10F4F000C00087FFEDCF1092050137C08FEF8093DA
:10F5000007010FC08091080180958093080180E079
:10F5100090E0E0EDF7E03197F1F70196883C910536
:10F52000C1F78091C00087FFEDCF109208011DC088
:10F530008FEF80930A010FC080910B01809580931B
:10F540000B0180E090E0E0EDF7E03197F1F70196F4
:10F55000883C9105C1F78091C00087FFEDCF1092E4
:10F560000B0103C085E292EEEEC98091C00087FFD7
:10F57000FCCF8091C600EAC988E392EEE4C98CE131
:10F5800091EEE1C988249924933011F1943028F444
:10F59000913089F09230B8F408C0953061F195301F
:10F5A000F0F0963009F048C043C02B3109F042C951
:10F5B00091E06BE13FC96227C15DDE4F2883CF52E6
:10F5C000D14092E037C9B22FA0E0622793E032C960
:10F5D000822F90E0A82BB92B622794E02BC92E3004
:10F5E00009F039C3622795E0C05DDE4F19821882A9
:10F5F000C053D1401FC9E1E0F0E0EC0FFD1FC05D3A
:10F60000DE4F08811981C053D140E00FF11F2083E4
:10F610000F5F1F4FC05DDE4F19830883C053D14079
:10F6200062270A171B0709F005C9D80196E002C92D
:10F63000261709F010C303C0973009F0FBC87724E0
:10F640009981933109F412C19431C8F4963009F4C8
:10F65000D8C0973050F4923009F406C1933009F4C1
:10F660006DC0913009F059C253C0913109F477C08F
:10F67000923108F0BBC0903109F04FC2F5C098310B
:10F6800009F487C0993150F4953109F4EFC09531F0
:10F6900008F4C6C1963109F040C2C2C19A3109F4DA
:10F6A0006CC09A3108F491C09B3109F45BC09D3164
:10F6B00009F033C29D81903359F48F81882311F46E
:10F6C0009EE11CC0813011F091E018C098E916C08D
:10F6D000892F807591F0903539F4E0E0F0E089E011
:10F6E0008093570094910AC0983539F4E3E0F0E034
:10F6F00089E080935700949101C090E01A821B82A8
:10F700008D818C831D829E831F8227E030E009C299
:10F710001A8288E08B8381E48C8386E58D8382E581
:10F720008E8389E48F8383E5888780E589878FE5E9
:10F730008A8782E38B872BE030E0F3C18A818139AD
:10F7400041F0823941F0803911F48FE005C080E04A
:10F7500003C082E001C08AE01A828B8344C0772410
:10F76000739482C08D81882311F48EE12CC0813086
:10F7700011F081E028C088E926C01A82E1E0F0E0BB
:10F7800089E08093570084918B831C8224E030E0D1
:10F79000C8C18B81803589F48C81883039F4E2E0EE
:10F7A000F0E089E08093570084910DC0E0E0F0E044
:10F7B00089E080935700849106C0E3E0F0E089E09F
:10F7C0008093570084911A82DFCF8D81836C99E0FA
:10F7D000E1E0F0E0082E90935700E89507B600FCB2
:10F7E000FDCF1A821B8223E030E09BC180EC8A832C
:10F7F000CE5CDE4F188219821A821B82C253D1401E
:10F800008EC18A8190E0A0E0B0E0582F44273327D2
:10F8100022278B8190E0A0E0B0E0DC0199278827C7
:10F82000282B392B4A2B5B2B8D8190E0A0E0B0E098
:10F83000282B392B4A2B5B2B8C8190E0A0E0B0E089
:10F84000BA2FA92F982F8827282B392B4A2B5B2BCF
:10F85000220F331F441F551FC05EDE4F288339839C
:10F860004A835B83C052D1401A8259C13A81C95C34
:10F87000DE4F3883C753D140CA5CDE4F1882C6536F
:10F88000D1408B81C82EDD24CA5CDE4F488159816E
:10F89000C653D140C42AD52A933109F082C0CE5C28
:10F8A000DE4F88819981AA81BB81C253D1408050AB
:10F8B000904CA340B04030F583E0CE5CDE4FE88052
:10F8C000F9800A811B81C253D140F70100935B008C
:10F8D00080935700E89507B600FCFDCFCE5CDE4F65
:10F8E000088119812A813B81C253D14000501F4FAA
:10F8F0002F4F3F4FCE5CDE4F088319832A833B8313
:10F90000C253D140C05EDE4F488159816A817B81FC
:10F91000C052D140DE011B9631E08C9111962C91A2
:10F9200011971296C75CDE4F2883C953D140C85C3B
:10F93000DE4F1882C853D14090E0C85CDE4FE881AA
:10F94000F981C853D1408E2B9F2B0C01FA01609393
:10F950005B0030935700E89511244E5F5F4F6F4F67
:10F960007F4F0EEFE02E0FEFF02ECE0CDF1CC114F8
:10F97000D10499F685E0C05EDE4F088119812A81A5
:10F980003B81C052D140F80120935B008093570027
:10F99000E89507B600FCFDCF81E180935700E8951C
:10F9A00035C0C05EDE4F88819981AA81BB81C0527B
:10F9B000D140B695A795979587957C018601ABE0D8
:10F9C000AA2EB12CAC0EBD1E0BC0D5016D915D01F0
:10F9D000C7010F947FFE0894E11CF11C01501040F8
:10F9E0000115110591F7A60160E070E0440F551F65
:10F9F000661F771FC05EDE4FE880F9800A811B8199
:10FA0000C052D1404E0D5F1D601F711F1A82C05E33
:10FA1000DE4F488359836A837B83C052D1407FC0C5
:10FA2000FA80C55CDE4FF882CB53D140C65CDE4F16
:10FA30001882CA53D1408B81C82EDD24C65CDE4FAC
:10FA400008811981CA53D140C02AD12A1A828981DA
:10FA5000BE016D5F7F4F843121F59601C05EDE4FA0
:10FA6000E880F9800A811B81C052D1400BBFF701A9
:10FA700087919691DB018C9311969C936E5F7F4FDB
:10FA8000D801C7010296A11DB11DC05EDE4F88835B
:10FA90009983AA83BB83C052D14022503040F1F6F3
:10FAA00036C0C05EDE4F288139814A815B81C052F9
:10FAB000D1400894C108D108760100E010E0089414
:10FAC000C11CD11C0894E11CF11C011D111DE20E8A
:10FAD000F31E041F151F21BDBB27A52F942F832FB5
:10FAE00082BD2F5F3F4F4F4F5F4FF89A80B5DB01CC
:10FAF0008D93BD012E153F054007510761F7C05E8C
:10FB0000DE4F288339834A835B83C052D1409601FC
:10FB10002D5F3F4FFB01108204C080EC8A8322E0FE
:10FB200030E08BE18093C6008091C00086FFFCCF5F
:10FB30008091C00080648093C000C15DDE4FF88179
:10FB4000CF52D140F093C6008091C00086FFFCCF19
:10FB50008091C00080648093C000432F3093C60022
:10FB60008091C00086FFFCCF8091C00080648093AC
:10FB7000C000922F2093C6008091C00086FFFCCF6A
:10FB80008091C00080648093C0008EE08093C600A6
:10FB90008091C00086FFFCCF8091C000806480937C
:10FBA000C00065E1C15DDE4FE880CF52D1406E25D7
:10FBB00069276427FE01319610C090819093C6009A
:10FBC0008091C00086FFFCCF31968091C000806498
:10FBD0008093C0006927215030402115310569F715
:10FBE0006093C6008091C00086FFFCCF8091C0006A
:10FBF00080648093C00085B1805885B9772081F4F6
:10FC0000C15DDE4F0881CF52D1400F5FC15DDE4F35
:10FC10000883CF52D14090E0A0E0B0E00D941AF4F8
:10FC200027982F9880E090E020ED37E0F901319798
:10FC3000F1F7019684369105C9F700008091C00064
:10FC40008D7F8093C00081E180935700E895EE2777
:10FC5000FF270994FFCF90E00D941AF497FB092E2B
:10FC600007260AD077FD04D02ED006D000201AF443
:10FC7000709561957F4F0895F6F7909581959F4F08
:10FC80000895A1E21A2EAA1BBB1BFD010DC0AA1FDD
:10FC9000BB1FEE1FFF1FA217B307E407F50720F0F5
:10FCA000A21BB30BE40BF50B661F771F881F991F70
:10FCB0001A9469F760957095809590959B01AC01B9
:10FCC000BD01CF010895AA1BBB1B51E107C0AA1FAC
:10FCD000BB1FA617B70710F0A61BB70B881F991FED
:10FCE0005A95A9F780959095BC01CD010895F99991
:10FCF000FECF92BD81BDF89A992780B50895262F31
:10FD0000F999FECF1FBA92BD81BD20BD0FB6F89400
:0EFD1000FA9AF99A0FBE01960895F894FFCF63
:00000001FF
