:100000000C9442010C9473010C9473010C947301D1
:100010000C9473010C9473010C9473010C94730190
:100020000C9473010C9473010C9473010C94730180
:100030000C9473010C9473010C9473010C94730170
:100040000C9473010C9473010C9473010C94730160
:100050000C9473010C9473010C9473010C94CF09EC
:100060000C9473010C94EB0A0C94C10A0C94730168
:100070000C9473010C9473010C9473010C94730130
:100080000C9473010C9473010C9473010C94730120
:100090000C9473010C9473010C9473010C94150B64
:1000A0000C9473010C9473010C9473010C94730100
:1000B0000C9473010C9473010C9473010C947301F0
:1000C0000C9473010C9473010C9473010C94970AB3
:1000D0000C946D0A0C9473010C94430A0C94190A45
:1000E0000C9473010C94F4030C94D2050C94240624
:1000F0000C94CD040C94C3030C94B8050C94DC034D
:100100000C94D2030C94CF030C94F8030C94810448
:100110000C94E2030C94C7030C9402040C9409049D
:100120000C941A050C94CB050C94EE050C94DD058B
:100130000C942D060C94CB030C94AC030C945F042C
:100140000C94FE030C94B1030C942C060C94390C03
:100150000C9408040C940A040C9437060C94E603DF
:100160000C94A8050C94A9050C94EA030C94500473
:100170000C94D8030C94F0030C94730400000A0B45
:1001800002090C0D0E080703040100000000000026
:10019000000000000000000000000000000000005F
:1001A000000000000000000012111000000000001C
:1001B000000000000000000000000000000000003F
:1001C000000000002200250028002B002E00310036
:1001D000340002010000050108010B0100002100AC
:1001E000240027002A002D00300033000101000008
:1001F000040107010A0105050505070508080808A7
:10020000020202020A0A08080404040401010101AE
:1002100001010101030303030303030304070707A9
:100220000C0C0C0C0C0C0C0C02020202060606064E
:10023000060606060B0B0B0B0B0B0B0B010210201B
:10024000200808102040102040800201020108040C
:1002500002010102040810204080804020100804A0
:1002600002018004020180402010080402010804F9
:10027000020101020408102040800102040810203D
:100280004080390C11241FBECFEFD1E2DEBFCDBFBD
:1002900000E00CBF12E0A0E0B2E0EEE0FDE200E022
:1002A0000BBF02C007900D92A83CB107D9F725E01B
:1002B000A8ECB2E001C01D92AF39B207E1F711E03E
:1002C000C2E4D1E000E006C021970109802FFE01C1
:1002D0000E944016C134D10780E00807A9F70E94A8
:1002E000E00C0C9485160C940000CF92DF92EF92F4
:1002F000FF92CF93DF93EC016A017B01E889F989D2
:1003000082E08083C11481EED806E104F104A1F0FB
:1003100060E079E08DE390E0A70196010E94E5138B
:10032000215031094109510956954795379527952F
:10033000211580E1380798F0E889F989108260E892
:1003400074E88EE190E0A70196010E94E513215028
:100350003109410951095695479537952795EC85FF
:10036000FD853083EE85FF852083188EEC89FD891D
:1003700086E08083EA89FB89808180618083EA89C5
:10038000FB89808188608083EA89FB89808180681D
:100390008083EA89FB8980818F7D8083DF91CF9183
:1003A000FF90EF90DF90CF9008958F929F92AF9241
:1003B000BF92FF920F931F93CF93DF9360915A05E3
:1003C00070E090E080E00E941C1520E034E244E7F9
:1003D00059E40E94AF1520E030E040E857E30E9466
:1003E000AF1520E030EE4FEF54E40E94AF154B0103
:1003F0005C01CDE0D0E001E010E0FC2EB8010C2E55
:1004000002C0660F771F0A94E2F7072E000C880BD4
:10041000990B0E941E159B01AC01C501B4010E94FD
:1004200074140E94E6146115784C8F4F9F4F58F05A
:100430008F2DDF91CF911F910F91FF90BF90AF90C3
:100440009F908F9008952197C0F6F12CF1CF8F9255
:100450009F92AF92BF92CF92DF92EF92FF920F9353
:100460001F93CF93DF93082F162F69017A016091B4
:100470005A0570E090E080E00E941C154B015C0181
:1004800020E034E244E759E40E94AF1520E030E078
:1004900040E051E30E94AF15A50194010E94AF1501
:1004A00020E034E244E759E40E94AF154B015C01BF
:1004B000C1E0D0E0BE0102C0660F771F0A95E2F7E7
:1004C000072E000C880B990B0E941E159B01AC0196
:1004D000C501B4010E9474144B015C01BE0102C04D
:1004E000660F771F1A95E2F7072E000C880B990B01
:1004F0000E941E159B01AC01C501B4010E94741439
:100500004B015C01C701B6010E941C159B01AC01A7
:10051000C501B4010E94AF156B017C0120E030E001
:10052000A9010E94AA1520E030E040E05FE387FDCA
:1005300013C0C701B6010E9408140E94E614DF919F
:10054000CF911F910F91FF90EF90DF90CF90BF90D0
:10055000AF909F908F900895C701B6010E94071435
:10056000ECCF8F929F92AF92BF92CF92DF92EF9299
:10057000FF92CF93DF93C82FD62F862F660F990B4C
:100580008C1B9109C7FD9395823091050CF44EC0E8
:10059000019761E070E06B0102C0CC0CDD1C8A9514
:1005A000E2F70D2C000CEE08FF080C2E02C0660FBF
:1005B000771F0A94E2F7072E000C880B990B0E9414
:1005C0001E1520E030E040E656EC0E94AF154B01CE
:1005D0005C0160915A0570E090E080E00E941C157B
:1005E00020E034E244E759E40E94AF159B01AC01DE
:1005F000C501B4010E94741420E030E040E857E4E3
:100600000E94AF150E94E614693A754024F4F694EE
:10061000E794D794C794C11488E0D806E104F104A4
:10062000C8F4C114D104E104F10421F4C12CD12C8B
:100630007601C394A70196016D2F8C2FDF91CF9186
:10064000FF90EF90DF90CF90BF90AF909F908F90F2
:100650000C942702CC24CA9487E0D82EE12CF12CEC
:10066000E9CF262F062E000C330B281B310987FDFE
:1006700033952F3F9FEF3907B4F4253F9FEF39079C
:10068000BCF0A901445F5F4F21E030E002C0220FBF
:10069000331F4A95E2F721503109032E000C440B19
:1006A000550B0C9427022FEF37E040E050E0F9CFD4
:1006B00021E030E040E050E0F4CF90E0FC01E45C69
:1006C000FD4F24918A509E4FFC018491882399F01C
:1006D00090E0880F991FFC01E452FE4FA591B49160
:1006E000FC01EE53FE4F859194918FB7F894EC91F5
:1006F000E22BEC938FBF0895282F30E0F901E458E6
:10070000FE4F9491F901E45CFD4F44912A503E4F15
:10071000F9012491222309F435C0992311F1915054
:100720009231F8F4E92FF0E08827E656FC4F8F4F1E
:100730000C944016CB03CF03AC03C303C703B10330
:10074000D203D803DC03E203E603EA03F003F40375
:10075000B103F803FE030204809180008F77809339
:100760008000E22FF0E0EE0FFF1FEE53FE4FA59149
:10077000B4918FB7F894EC91611148C040954E2325
:100780004C938FBF0895809180008F7DE8CF80913A
:100790008000877FE4CF84B58F7784BDE2CF84B5B6
:1007A0008F7DFBCF8091B0008F778093B000D9CF41
:1007B0008091B0008F7DF9CF809190008F778093EA
:1007C0009000CFCF809190008F7DF9CF80919000E5
:1007D000877FF5CF8091A0008F778093A000C1CF55
:1007E0008091A0008F7DF9CF8091A000877FF5CF09
:1007F000809120018F7780932001B3CF80912001D9
:100800008F7DF9CF80912001877FF5CF4E2BB8CF18
:1008100008950895AF92BF92CF92DF92EF92FF9228
:100820000F931F93CF93DF936C017B018B01040F18
:10083000151FEB015E01AE18BF08C017D10759F0B4
:100840006991D601ED91FC910190F081E02DC601F6
:100850001995892B79F7C501DF91CF911F910F91E0
:10086000FF90EF90DF90CF90BF90AF900895FC0184
:10087000A089B1898C91A689B78982FD0FC09C910E
:10088000818D8F5F8F73228D821749F0A18DAE0FFE
:10089000BF2FB11D5D969C93818F08958C91089513
:1008A000FC01538D448D252F30E0842F90E0821B76
:1008B000930B541710F0CF96089501970895FC01FB
:1008C000918D828D981761F0A28DAE0FBF2FB11D53
:1008D0005D968C91928D9F5F9F73928F90E00895AB
:1008E0008FEF9FEF0895FC01918D828D981731F065
:1008F000828DE80FF11D858D90E008958FEF9FEFB9
:100900000895FC01918D228D892F90E0805C9F4F8E
:10091000821B91098F739927089584E793E00E94C1
:10092000810421E0892B09F420E0822F089581E1E0
:1009300094E00E94810421E0892B09F420E0822FB9
:1009400008958EEA94E00E94810421E0892B09F445
:1009500020E0822F0895FC01A48DA80FB92FB11DAE
:10096000A35ABF4F2C91848D90E001968F739927E5
:10097000848FA689B7892C93A089B1898C918370C3
:1009800080648C93938D848D981306C00288F389BC
:10099000E02D80818F7D80830895EF92FF920F93E9
:1009A0001F93CF93DF93EC0181E0888F9B8D8C8D1B
:1009B00098131AC0E889F989808185FF15C09FB70F
:1009C000F894EE89FF896083E889F98980818370D2
:1009D000806480839FBF81E090E0DF91CF911F9181
:1009E0000F91FF90EF900895F62E0B8D10E00F5FA2
:1009F0001F4F0F731127E02E8C8D8E110CC00FB678
:100A000007FCFACFE889F989808185FFF5CFCE010F
:100A10000E94AB04F1CFEB8DEC0FFD2FF11DE35ADB
:100A2000FF4FF0829FB7F8940B8FEA89FB89808192
:100A30008062CFCFCF93DF93EC01888D8823B9F00C
:100A4000AA89BB89E889F9898C9185FD03C08081D9
:100A500086FD0DC00FB607FCF7CF8C9185FFF2CF56
:100A6000808185FFEDCFCE010E94AB04E9CFDF91FD
:100A7000CF91089580E090E0892B29F00E94A10495
:100A800081110E94000080E090E0892B49F080E015
:100A900090E0892B29F00E94000081110E94000043
:100AA00080E090E0892B29F00E94970481110E9438
:100AB000000080E090E0892B29F00E948D048111D4
:100AC0000C940000089520911003260F3327331F44
:100AD00021323105ECF420913403FC0190E080E0F8
:100AE000243069F082E00895A09110032191AC01B7
:100AF00040515D4FA40FB52FB11D2C930196861761
:100B000098F380911003680F6093100380E00895BC
:100B100081E008951092340381E0809336031092AF
:100B2000350361E084E10E947C0361E085E10E947D
:100B30007C03E9EBF0E080818E7F808380818D7F74
:100B4000808388E48093B80085E48093BC00089596
:100B50000895E091610380916003E81730F4F0E0BC
:100B6000E653FD4F808190E008958FEF9FEF089549
:100B700090916103809160032FEF3FEF981748F445
:100B8000E92FF0E0E653FD4F208130E09F5F909326
:100B90006103C90108958091600390916103891BED
:100BA000990B0895CF93DF93CB01EA01642F0E9444
:100BB0006305CE01DF91CF910895CF93DF931F920C
:100BC000CDB7DEB7698361E0CE0101960E9463056F
:100BD00081E090E00F90DF91CF91089590E080E068
:100BE0000895CF93CFB7F8948091C902811124C0A2
:100BF000EBE2F2E08491E1E7F2E09491E82FF0E09B
:100C0000EE0FFF1FE452FE4FA591B491EC91E92342
:100C100021F461E085E30E947C0385E30E945D038B
:100C20008CB580618CBD8CB580648CBD84E30E94E2
:100C30005D0383E30E945D038091C9028F5F80930F
:100C4000C902CFBFCF9108950C94F1058FB7F894E6
:100C50008091C8028FBF089508956EBD00000DB445
:100C600007FEFDCF8EB508958CBD9DBD0895CB01C7
:100C70000C9434068F929F92AF92BF92CF92DF92E4
:100C8000EF92FF924B015C01C12CD12C760160E008
:100C9000809161050E947C038DE590E00E943406FE
:100CA00028E130E0422FD501C401022E04C0B695E0
:100CB000A795979587950A94D2F78EBD00000DB43D
:100CC00007FEFDCF8EB590E0B0E0A0E004C0880F35
:100CD000991FAA1FBB1F4A95D2F7C82AD92AEA2A08
:100CE000FB2A28503109283F8FEF3807D9F661E0F9
:100CF000809161050E947C03F894F09259057894E4
:100D0000C701B601FF90EF90DF90CF90BF90AF90FA
:100D10009F908F900895962F9F708370582F5295B3
:100D2000550F507E990FB901842F952B0C943A06DC
:100D30006F70982F93709295990F907E660F962BF7
:100D400060E070E080E091600E943A0690E00895D3
:100D5000CF93C82F6FE083E00E949806262F3C2F88
:100D60003F70AC016FE083E0CF910C948B06CF9382
:100D7000DF93D82FC62F6AE00E949806372F2C2FBA
:100D800023706C7F262BAC016AE08D2FDF91CF9111
:100D90000C948B064F925F926F927F928F929F92EC
:100DA000AF92BF92DF92EF92FF920F931F93CF9378
:100DB000DF9300D000D01F921F92CDB7DEB7DC01C9
:100DC00011962D913C911297232B09F4CCC0F5E09C
:100DD0008F2E912CA12CB12C17969C906F772A2DD9
:100DE0002078A22EA62AE894A7F8B0E0A0E020E0A0
:100DF00017E0D12EB501A4010A2E04C0769567959F
:100E0000579547950A94D2F758E0622F70E0E42E88
:100E1000F12C8B01000F012F001F110BE42FE1704B
:100E2000F0E0220F0E171F0721F09B01220F331F46
:100E30002D25F594E7944E2D515039F71896A83189
:100E4000B105C1F67C01B22EF70181819281DC01EE
:100E5000ED91FC910084F185E02D19951816190685
:100E60005CF4F70181819281DC01ED91FC910284B7
:100E7000F385E02D1995E8CF10E000E0F701A1819E
:100E8000B281C501B401002E04C09695879577956F
:100E900067950A94D2F7ED91FC9111970190F0813A
:100EA000E02DCD011995085F1F4F0032110531F774
:100EB000812C912C5401D70111968D919C91DC01CC
:100EC000ED91FC910084F185E02D199504976CF467
:100ED000B0EA8B16BFE09B06A104B10471F0EFEFFE
:100EE0008E1A9E0AAE0ABE0AE6CF14E0F0EA8F160A
:100EF000FFE09F06A104B104F9F481E0D7018C93CF
:100F0000812C912C5401F70181819281DC01ED91BA
:100F1000FC910084F185E02D19950897D4F4B0E197
:100F20008B16B7E29B06A104B104D1F0EFEF8E1A45
:100F30009E0AAE0ABE0AE7CFF70181819281DC01E9
:100F4000ED91FC910284F385E02D19951150A1F7E4
:100F5000D7CFF0E18F16F7E29F06A104B10439F470
:100F600081E0D7018C9360E070E0CB0161C0198211
:100F70001A821B821C821D821E821F821886912C5F
:100F8000812CF70181819281DC01ED91FC91028439
:100F9000F385E02D19959C01932F990F990B492FFB
:100FA000592F692F792F892F082D0E944F16E9811B
:100FB0002E2BEA813E2BEB814E2BAC80A52ABD80E7
:100FC000B62A0E81072B1F81182B8885982B298321
:100FD0003A834B83AC82BD820E831F839887B8E02F
:100FE0008B0E911CE0E48E16910459F6D7011396EE
:100FF0002D913D914D915C91169760E271EA87E0E9
:1010000090E00E94E51380E063E270E0482E512CEE
:10101000712C612C421653066406750628F4FB01F8
:101020003197F1F78F5FF2CFB501C8010E944816E2
:1010300028960FB6F894DEBF0FBECDBFDF91CF91DB
:101040001F910F91FF90EF90DF90BF90AF909F9016
:101050008F907F906F905F904F9008957F928F92C6
:101060009F92AF92BF92CF92DF92EF92FF920F9337
:101070001F93CF93DF9300D000D01F921F92CDB764
:10108000DEB77C0185E08983D70117961C911A830E
:10109000F62FFF77F068FB83CA01B9010E9448165A
:1010A0006C837D838E839F83B62EA72ED82EC92E68
:1010B000B0E0A0E0E0E087E0782E25E0312F4F2F70
:1010C0005B2D6A2D7D2D8C2D90E00A2F0E946A16D3
:1010D00038E08E2F90E0422F50E0BC01660F672F62
:1010E000661F770B20FB882480F8912CEE0F681583
:1010F000790521F0880F991FE82FE7255595479529
:10110000242F315031F71896A833B105B1F6E8878E
:10111000F70181819281892B09F461C0D701119671
:101120008D919C91DC01ED91FC910084F185E02D85
:101130001995181619065CF4F70181819281DC017A
:10114000ED91FC910284F385E02D1995E7CFB12C48
:10115000A12CF701A181B28129813A814B815C8167
:101160006D817E818F8198850A2D0E946A16ED918E
:10117000FC9111970190F081E02D622FCD0119951E
:10118000F8E0AF0EB11C80E4A816B10411F7812C71
:10119000912C5401D70111968D919C91DC01ED9118
:1011A000FC910084F185E02D199508976CF4B0EA64
:1011B0008B16BFE09B06A104B10471F0EFEF8E1A0D
:1011C0009E0AAE0ABE0AE6CF18E0F0EA8F16FFE0EC
:1011D0009F06A104B104B9F481E0D7018C9328964D
:1011E0000FB6F894DEBF0FBECDBFDF91CF911F9138
:1011F0000F91FF90EF90DF90CF90BF90AF909F90B6
:101200008F907F900895F70181819281DC01ED91AB
:10121000FC910284F385E02D19951150A1F7DFCFE1
:10122000FC01228D338D448D558D60E70C942E0882
:10123000FC01258936894789508D6CE60C942E086F
:10124000CF93DF93EC012C853D854E855F8560E172
:101250000E942E089D859F718989943178F080685D
:10126000898B8C89882361F0288939894A895B892F
:1012700062E4CE01DF91CF910C942E088F77F0CFEE
:10128000DF91CF910895FC0101900020E9F731979B
:10129000AF01481B590BBC018EEA94E00C940A0480
:1012A000CF93DF93CDB7DEB7A1970FB6F894DEBF2B
:1012B0000FBECDBF19A2805D88A3CE0180960E948B
:1012C0004309A1960FB6F894DEBF0FBECDBFDF91E4
:1012D000CF910895CF93DF930E944309EC0184E3FB
:1012E00092E00E9443098C0F9D1FDF91CF910895DA
:1012F000CF93DF9385ED8093BC008091EC029091B9
:10130000ED02A091EE02B091EF020796A11DB11D72
:1013100023E0B695A795979587952A95D1F72091C3
:10132000BC0024FD03C01092340336C04091EC028F
:101330005091ED026091EE027091EF02452B462B29
:10134000472B69F30097A105B10541F02AE22A95E0
:10135000F1F700C00197A109B109E1CF8091EB023B
:1013600091E09093EA028823B9F0C091B800D0913F
:10137000BA008091BC008A7B8093BC0060E084E16D
:101380000E947C0360E085E10E947C030E948A0544
:10139000D093BA00C093B800DF91CF9108951F9207
:1013A0000F920FB60F9211242F933F938F939F9319
:1013B000AF93BF938091700390917103A0917203DA
:1013C000B091730330916F0323E0230F2D3758F54D
:1013D0000196A11DB11D20936F038093700390931C
:1013E0007103A0937203B093730380916B03909188
:1013F0006C03A0916D03B0916E030196A11DB11D08
:1014000080936B0390936C03A0936D03B0936E0372
:10141000BF91AF919F918F913F912F910F900FBEF0
:101420000F901F90189526E8230F0296A11DB11D5D
:10143000D2CF1F920F920FB60F9211240BB60F92BC
:101440002F933F934F935F936F937F938F939F93CC
:10145000AF93BF93EF93FF9384E793E00E94AB04B5
:10146000FF91EF91BF91AF919F918F917F916F917C
:101470005F914F913F912F910F900BBE0F900FBE38
:101480000F901F9018951F920F920FB60F92112474
:101490000BB60F922F933F934F935F936F937F936E
:1014A0008F939F93AF93BF93EF93FF9384E793E062
:1014B0000E943704FF91EF91BF91AF919F918F915F
:1014C0007F916F915F914F913F912F910F900BBE44
:1014D0000F900FBE0F901F9018951F920F920FB68E
:1014E0000F9211240BB60F922F933F934F935F935C
:1014F0006F937F938F939F93AF93BF93EF93FF93DC
:1015000081E194E00E94AB04FF91EF91BF91AF9114
:101510009F918F917F916F915F914F913F912F910B
:101520000F900BBE0F900FBE0F901F9018951F923B
:101530000F920FB60F9211240BB60F922F933F9379
:101540004F935F936F937F938F939F93AF93BF93CB
:10155000EF93FF9381E194E00E943704FF91EF91B4
:10156000BF91AF919F918F917F916F915F914F91BB
:101570003F912F910F900BBE0F900FBE0F901F90B9
:1015800018951F920F920FB60F9211240BB60F925F
:101590002F933F934F935F936F937F938F939F937B
:1015A000AF93BF93EF93FF938EEA94E00E94AB0456
:1015B000FF91EF91BF91AF919F918F917F916F912B
:1015C0005F914F913F912F910F900BBE0F900FBEE7
:1015D0000F901F9018951F920F920FB60F92112423
:1015E0000BB60F922F933F934F935F936F937F931D
:1015F0008F939F93AF93BF93EF93FF938EEA94E003
:101600000E943704FF91EF91BF91AF919F918F910D
:101610007F916F915F914F913F912F910F900BBEF2
:101620000F900FBE0F901F9018951F920F920FB63C
:101630000F9211240BB60F922F933F934F935F930A
:101640006F937F938F939F93AF93BF93EF93FF938A
:101650008091B900887F803609F44DC008F040C001
:10166000883209F4A9C028F5803109F49DC0C8F476
:10167000882309F4FBC0883009F496C0FF91EF91EC
:10168000BF91AF919F918F917F916F915F914F919A
:101690003F912F910F900BBE0F900FBE0F901F9098
:1016A0001895883109F488C0803241F7809333035C
:1016B00014C0803409F49DC040F48033B9F38833FA
:1016C000E9F68093330385ECB0C0803509F485C01A
:1016D000883509F496C0883489F60E947809CECFFF
:1016E000883909F48CC038F5883729F050F48836E9
:1016F00011F0803719F683E080933403109232039F
:1017000057C0883809F47BC0803919F0803809F057
:10171000B5CF80913203803208F071C0E09132037E
:1017200081E08E0F809332038091BB00F0E0EE5E8B
:10173000FC4F80833DC0803B39F0E0F4803A09F4EF
:1017400079C0883A09F09ACF84E0809334031092EC
:10175000110310921003E0915C03F0915D03199561
:101760008091100381110FC081E0809310031092CB
:10177000F00209C0803C09F4A6CF883C09F4A3CF4D
:10178000883B09F07BCFE091110381E08E0F8093BD
:101790001103F0E0E051FD4F80818093BB009091F8
:1017A00011038091100329C0809159038093BB00DD
:1017B00085EC8093BC0062CF9091580380915703D1
:1017C000981758F5E091580381E08E0F80935803E5
:1017D000F0E0E95CFC4F8081E9CFE091580381E0C3
:1017E0008E0F809358038091BB00F0E0E95CFC4FC2
:1017F000808390915803809157039817C8F285E829
:10180000D8CFE091580381E08E0F809358038091E8
:10181000BB00F0E0E95CFC4F8083809136038111CE
:101820005CCF81E08093350384EA8093BC00109202
:10183000340324CF85EC8093BC0010923403809154
:101840003203803230F4E0913203F0E0EE5EFC4F80
:1018500010826091320370E0E0915A03F0915B03D3
:1018600082E193E019951092320308CF109233036E
:1018700034CFE4E7F3E01382128288EE93E0A0E035
:10188000B0E084839583A683B78328E032E0318378
:10189000208345E351E05587448744E351E057876F
:1018A000468740E351E0518B408B41E351E0538B3D
:1018B000428B42E351E0558B448B46E351E0578B1A
:1018C000468B118E128E138E148EE1E1F4E013829A
:1018D000128284839583A683B7833183208345ED69
:1018E00050E05587448744ED50E05787468740EDE8
:1018F00050E0518B408B41ED50E0538B428B42EDD9
:1019000050E0558B448B46ED50E0578B468B118E43
:10191000128E138E148EEEEAF4E013821282848308
:101920009583A683B7833183208325EC30E0358708
:10193000248724EC30E03787268720EC30E0318B99
:10194000208B21EC30E0338B228B22EC30E0358B86
:10195000248B26EC30E0378B268B118E128E138E63
:10196000148EEBE4F5E01382128284839583A683C0
:10197000B7838AE192E091838083E3E6F5E033E088
:10198000318F21E020831282118280E291EAA7E068
:10199000B0E083839483A583B6831782148A37AB20
:1019A000268F10A2178E81A392A3A3A3B4A315A27E
:1019B00012AA8CE292E090935805809357050895FF
:1019C000CF93DF9300D000D01F921F92CDB7DEB728
:1019D000789484B5826084BD84B5816084BD85B50A
:1019E000826085BD85B5816085BD80916E00816016
:1019F00080936E00109281008091810082608093BC
:101A000081008091810081608093810080918000BD
:101A10008160809380008091B10084608093B100E8
:101A20008091B00081608093B000809191008260CD
:101A300080939100809191008160809391008091CA
:101A400090008160809390008091A10082608093DB
:101A5000A1008091A10081608093A1008091A000ED
:101A600081608093A0008091210182608093210198
:101A7000809121018160809321018091200181600A
:101A80008093200180917A00846080937A00809115
:101A90007A00826080937A0080917A0081608093DE
:101AA0007A0080917A00806880937A001092C10059
:101AB00040E052EC61E070E08EEA94E00E94750133
:101AC000109261031092600310925F0310925E0304
:101AD0000E948A0588E094E090935D0380935C0304
:101AE00089E094E090935B0380935A038EE08093A7
:101AF000BA0080910101877F8093010180910101EB
:101B00008F7E8093010120E0222E22E0322E03E618
:101B100015E01F830E83B12CA12C3EE1932E44E2ED
:101B2000442E512C4DE0642E41EC742E8824839475
:101B3000D1018D919D911D01EE81FF81108220E0E8
:101B400032EC41E050E02383348345835683928313
:101B50008183178240E052EC61E070E00E947501E1
:101B6000EE81FF8110861186128613869A9C700181
:101B70009B9CF00C1124F701E559FA4F80818E7F70
:101B8000806480688083818181608183AE81BF8130
:101B900018962D913D914D915C911B9760E0CD0180
:101BA0000E942E08EE81FF81148615861686178600
:101BB000970121593A4F6901D9018C91807E80614A
:101BC0008C9311968C9111978F6111968C9311972C
:101BD00012968C911297807F816012968C93248547
:101BE00035854685578560E1CF010E942E0823E5A3
:101BF00030E040E050E1AE81BF8155962D933D939A
:101C00004D935C935897F701E858FA4F7F01818113
:101C10009281916092838877818383E58083559652
:101C20002D913D914D915C9158976CE68E819F81ED
:101C30000E942E08AE81BF815A964D925D926D92A0
:101C40007C925D9724E230E04DE051EC60E7CD01FD
:101C50000E942E08EE81FF81108A118A128A138A4F
:101C600020E030E0A90162E4CF010E942E0824E1C7
:101C700030E040E050E061E18E819F810E942E08BB
:101C800020E030E0A90163E18E819F810E942E084F
:101C900020E030E0A90162E28E819F810E942E083F
:101CA00020E030E0A90164E18E819F810E942E082E
:101CB00020E030E0A90160E48E819F810E942E081F
:101CC00020E030E0A90162E48E819F810E942E080D
:101CD00060E08E819F810E94CA06AE81BF81189606
:101CE0006D937D938D939C931B976CE6CD010E9421
:101CF000CA06EE81FF81658B768B878B908F60E7BC
:101D0000CF010E94CA06AE81BF815A966D937D9322
:101D10008D939C935D97F6018181807E8183808184
:101D2000807E8083CD010E942009AE81BF818C918D
:101D3000811107C0F7018081807F8083CD010E94DF
:101D40001809AE81BF818C9181110DC09A9CF00160
:101D50009B9CF00D1124E358FA4F82818B7F828384
:101D6000CD010E941009EE81FF81808181110EC09A
:101D70009A9CF0019B9CF00D1124E358FA4F82814C
:101D8000877F82838E819F810E94100960E08E810F
:101D90009F810E94CA0666FD03C0AE81BF818C92FE
:101DA00060E08E819F810E94CA0687E392E066FF11
:101DB0004CC20E944309C5010E94500982E492E08E
:101DC0000E944309EE81FF817E96FF83EE83AA94F1
:101DD000AB2809F036C288E090E0909362058093CA
:101DE00061050E945D0361E0809161050E947C03B2
:101DF00080E180935A0510925B0510925E05109267
:101E00005C0510925F0510925D05109260050E94BE
:101E1000F1058FE00E94A8061F821E8262E070E03A
:101E20008E819F810E94B70620E030E0A90164E026
:101E30008E810E948B062E813F812F5F3F4F3F8313
:101E40002E832330310551F764E083E00E94980629
:101E50009B012062AC0164E083E00E948B0669E094
:101E600083E00E949806613071498244910509F02F
:101E7000F4C18FE692E00E946A098EE892E00E9427
:101E80006A091F821E82BEE1FB2E84E2E82EDD2459
:101E9000D394D8018C91811116C02E813F81F29E7E
:101EA000F001F39EF00D1124E559FA4F8081877FF0
:101EB000808318962D913D914D915C911B9760E028
:101EC000C8010E942E08D8018C9181110FC02E816B
:101ED0003F81F29EF001F39EF00D1124E159FA4F7B
:101EE00081818F618183C8010E942009D8018C9172
:101EF00081110FC02E813F81F29EF001F39EF00D03
:101F00001124E159FA4F8081807E8083C8010E94AC
:101F10002009D8018C9181110FC02E813F81F29E42
:101F2000F001F39EF00D1124E159FA4F8281807F78
:101F30008283C8010E942009D8018C9181110FC0B1
:101F40002E813F81F29EF001F39EF00D1124E8589E
:101F5000FA4F8381807F8383C8010E941809D801CA
:101F60008C91811110C02E813F81F29EF001F39E71
:101F7000F00D1124E358FA4F82818F7C80628283B6
:101F8000C8010E941009D8018C9181110DC02E81C9
:101F90003F81F29EF001F39EF00D1124ED59FA4FAE
:101FA000E28EC8010E941009D8018C9181110DC0E8
:101FB0002E813F81F29EF001F39EF00D1124ED5928
:101FC000FA4F138EC8010E941009D8018C9181111B
:101FD0000FC02E813F81F29EF001F39EF00D11247F
:101FE000E358FA4F82818B7F8283C8010E941009D7
:101FF000D8018C9181110FC02E813F81F29EF0019A
:10200000F39EF00D1124E358FA4F8281877F82837B
:10201000C8010E941009D8018C91811108C020EDDF
:1020200037E040E050E064E1C8010E942E08F8016A
:102030008081811118C02E813F81F29EF001F39EB4
:10204000F00D1124ED58FA4F80818F7980648083E0
:10205000D80150962D913D914D915C91539762E43A
:10206000C8010E942E08F801808181111DC02E81B7
:102070003F81F29EF001F39EF00D1124ED58FA4FCE
:102080008081807F816080838181807F8183D8018E
:1020900050962D913D914D915C91539762E4C8010A
:1020A0000E942E08F801D48A025E1F4F2E813F81C4
:1020B0002130310509F0D4C064E083E00E94980625
:1020C0009B01277FAC0164E083E00E948B0664E003
:1020D00083E00E9498069B012F7EAC0164E083E0C0
:1020E0000E948B0664E083E00E9498069B012160B9
:1020F000AC0164E083E00E948B066AE081E00E940C
:1021000098069B01377FAC016AE081E00E948B0654
:102110006AE082E00E9498069B013860AC016AE0A8
:1021200082E00E948B066AE081E00E9498069B0193
:102130003260AC016AE081E00E948B066AE082E0D6
:102140000E9498069B013160AC016AE082E00E9427
:102150008B060BE515E0D12CC12CEE24E394F12C79
:10216000C8866AE08C2D0E9498069B013B7FAC01DB
:102170006AE08C2D0E948B0670E060E0C6010E9430
:10218000B7066FE083E00E9498067F70A72EB12CFF
:1021900060915A0570E090E080E00E941C152B01D0
:1021A0003C01B5016F5F7F4FE4E0660F771FEA9552
:1021B000E1F7072E000C880B990B0E941E15A30156
:1021C00092010E9474149B01AC010E9408149B01AF
:1021D000AC0160E074E284E799E40E9474140E9408
:1021E000ED144501F4E0880C991CFA95E1F76115AE
:1021F000784C8F4F9F4F08F0D9C0A114B10409F457
:10220000D5C041E0A41AB108B401092C000C880B18
:10221000990B0E941E15A30192010E9474149B0148
:10222000AC010E9408149B01AC0160E074E284E7F9
:1022300099E40E9474140E94ED1450E1851A9108EB
:10224000D6CFAA24A394B12C73CC0E944309C50114
:102250000E94500987E592E0B3CD8BEA92E00FCE61
:1022600041E050E05F834E8314CE8091630581117D
:102270000DC090917C059F7080917805807F892B9F
:102280008093780583E695E00E9418098091810586
:1022900081110DC090919A059F7080919605807F65
:1022A000892B8093960581E895E00E94180920E02B
:1022B00038EC4FEF5FEF60E081E00E948B0620E09A
:1022C00038E340E050E060E082E00E948B066AE084
:1022D00080E00E94980620E030E0A90161E080E003
:1022E0000E948B0620E030E0A90160E080E00E94BF
:1022F0008B066AE081E00E9498062FEF3FEF4FEFD8
:102300005FE760E081E00E948B0620E030E0A901F9
:1023100061E081E00E948B0620E030E0A90160E0EE
:1023200081E00E948B0661E081E00E94980661E0F6
:1023300082E00E94980660E081E00E9498064B01CE
:102340005C018092670390926803A0926903B09247
:102350006A0360E082E00E9498066B017C01C092F3
:102360006303D0926403E0926503F092660369E030
:1023700083E00E949806809159058093620320E0D3
:1023800030E0A90160E081E089288A288B2849F49F
:10239000CD28CE28CF2839F020E030E0A90160E038
:1023A00082E00E948B060E943A05BDCF8A2D0E94D2
:1023B000A8060E94D50189836CE088850E94980652
:1023C000262F39813295307F7F70372BAC016CE03E
:1023D00088850E948B061801E981D801EC93B7012A
:1023E00002C0660F771FEA95E2F7072E000C880BF4
:1023F000990B0E941E1520E030E048EC52E40E9448
:10240000AF154B015C0160915A0570E090E080E0EF
:102410000E941C1520E034E244E759E40E94AF1505
:102420009B01AC01C501B4010E94741420E030E0AE
:1024300040E857E40E94AF150E94E6149B01770F15
:10244000440B550B211531054105510521F421E0BF
:1024500030E040E050E062E088850E948B066091A9
:102460005A0570E090E080E00E941C1520E034E204
:1024700044E759E40E94AF152B013C01D8018C912F
:10248000B70102C0660F771F8A95E2F7072E000C8E
:10249000880B990B0E941E1520E030E040E656ECB8
:1024A0000E94AF15A30192010E94741420E030E055
:1024B00040E857E40E94AF150E94E6144B01770FE5
:1024C000AA08BB0820E030E040E857E3C301B201AE
:1024D0000E94AF1520E030EE4FEF54E40E94AF159C
:1024E0000E94E6149B01AC0182169306A406B50671
:1024F00010F4A501940163E088850E948B060E9478
:10250000D501782E6DE00E9431034B015C016DE036
:10251000872D0E94B102BDE0BE83E8EA8E16E1E697
:102520009E06A104B104B8F4683A7146810591058C
:1025300090F42E81222379F0271568F021502E8304
:10254000622F872D0E9431034B015C016E81872D24
:102550000E94B102E2CF6CE088850E949806262F87
:10256000707F3E813F70372BAC016CE088850E9404
:102570008B06EE81D8011396EC931397FC91F983A7
:102580006E2F8F2F0E9431034B015C016E81898178
:102590000E94B1026A837B838C839D8328EA821622
:1025A00021E69206A104B10430F058EA852E51E6E6
:1025B000952EA12CB12C60915A0570E090E080E03E
:1025C0000E941C1520E034E244E759E40E94AF1554
:1025D0002B013C016A817B818C819D816815790585
:1025E0008A059B0510F4C501B4010E941C154B011E
:1025F0005C01B701098002C0660F771F0A94E2F7F9
:10260000072E000C880B990B0E941E159B01AC0134
:10261000C501B4010E94AF15A30192010E94741478
:1026200020E030E040E05EE40E94AF15A30192019B
:102630000E9474144B015C01B7010E8002C0660F4A
:10264000771F0A94E2F7072E000C880B990B0E9463
:102650001E159B01AC01C501B4010E94AF154B01D1
:102660005C0120E030E0A9010E94AA1520E030E0E2
:1026700040E05FE387FD98C0C501B4010E940814E3
:102680000E94E6144B015C01811438E09306A1041A
:10269000B10408F08EC081149104A104B10409F4BE
:1026A0008FC0A501940166E088850E948B060F5FAC
:1026B0001F4FC501B4010E941C154B015C01D101E3
:1026C00013968C9113979C91891B990BB70102C0AB
:1026D000660F771F8A95E2F7072E000C880B990B7F
:1026E0000E941E1520E030E040E053E40E94AF1548
:1026F0009B01AC01C501B4010E94741424EA30E7C7
:102700004DE75FE30E94AF1520E030E040E051E488
:102710000E94AF152B013C01AA24AA94BA2C2224B2
:102720002A94322C912C812CB701082C02C0660F00
:10273000771F0A94E2F7072E000C880B990B0E9472
:102740001E15A30192010E94AF150E94E6149B0181
:10275000205831092038310510F454011B01BFEF16
:102760008B1A9B0AEEE08E169104F1F6FFEF2F16FE
:102770003F0691F02FEFA216B20671F069E088854E
:102780000E9498062A2D2F70607F262B322DAC01D7
:1027900069E088850E948B06CA94CD2809F465CD2E
:1027A000CC24C394D12CDCCCC501B4010E94071405
:1027B00067CF88248A9447E0942EA12CB12C71CF46
:1027C000812C912C540183946CCFA1E21A2EAA1B68
:1027D000BB1BFD010DC0AA1FBB1FEE1FFF1FA217D1
:1027E000B307E407F50720F0A21BB30BE40BF50BCE
:1027F000661F771F881F991F1A9469F76095709557
:10280000809590959B01AC01BD01CF010895505872
:10281000BB27AA270E941F140C9470150E946215F2
:1028200038F00E94691520F039F49F3F19F426F41E
:102830000C945F150EF4E095E7FB0C945915E92F05
:102840000E94811558F3BA1762077307840795072A
:1028500020F079F4A6F50C94A3150EF4E0950B2E58
:10286000BA2FA02D0B01B90190010C01CA01A001E2
:102870001124FF27591B99F0593F50F4503E68F13D
:102880001A16F040A22F232F342F4427585FF3CF7E
:10289000469537952795A795F0405395C9F77EF44F
:1028A0001F16BA0B620B730B840BBAF09150A1F098
:1028B000FF0FBB1F661F771F881FC2F70EC0BA0F1E
:1028C000621F731F841F48F4879577956795B795A6
:1028D000F7959E3F08F0B0CF9395880F08F09927A1
:1028E000EE0F9795879508950E9488140C947015A3
:1028F0000E94691558F00E94621540F029F45F3F6C
:1029000029F00C94591551110C94A4150C945F15D1
:102910000E94811568F39923B1F3552391F3951B18
:10292000550BBB27AA2762177307840738F09F5FF0
:102930005F4F220F331F441FAA1FA9F335D00E2E5D
:102940003AF0E0E832D091505040E695001CCAF7CA
:102950002BD0FE2F29D0660F771F881FBB1F26178D
:1029600037074807AB07B0E809F0BB0B802DBF0164
:10297000FF2793585F4F3AF09E3F510578F00C9433
:1029800059150C94A4155F3FE4F3983ED4F3869553
:1029900077956795B795F7959F5FC9F7880F911D54
:1029A0009695879597F90895E1E0660F771F881F40
:1029B000BB1F621773078407BA0720F0621B730BF3
:1029C000840BBA0BEE1F88F7E09508950E94ED1472
:1029D0006894B1110C94A41508950E94891588F08B
:1029E0009F5798F0B92F9927B751B0F0E1F0660FD3
:1029F000771F881F991F1AF0BA95C9F714C0B13014
:102A000091F00E94A315B1E008950C94A315672FCF
:102A1000782F8827B85F39F0B93FCCF38695779542
:102A20006795B395D9F73EF490958095709561952B
:102A30007F4F8F4F9F4F0895E89409C097FB3EF456
:102A400090958095709561957F4F8F4F9F4F9923FB
:102A5000A9F0F92F96E9BB279395F6958795779579
:102A60006795B795F111F8CFFAF4BB0F11F460FF39
:102A70001BC06F5F7F4F8F4F9F4F16C0882311F091
:102A800096E911C0772321F09EE8872F762F05C0A5
:102A9000662371F096E8862F70E060E02AF09A9540
:102AA000660F771F881FDAF7880F9695879597F935
:102AB000089597F99F6780E870E060E008959FEFC0
:102AC00080EC089500240A941616170618060906C5
:102AD000089500240A941216130614060506089594
:102AE000092E0394000C11F4882352F0BB0F40F41C
:102AF000BF2B11F460FF04C06F5F7F4F8F4F9F4F5C
:102B0000089557FD9058440F551F59F05F3F71F0DD
:102B10004795880F97FB991F61F09F3F79F0879544
:102B20000895121613061406551FF2CF4695F1DFCD
:102B300008C0161617061806991FF1CF869571055D
:102B4000610508940895E894BB2766277727CB0191
:102B500097F908950E941C1608F48FEF08950E94BB
:102B6000C2150C9470150E94621538F00E94691508
:102B700020F0952311F00C9459150C945F15112435
:102B80000C94A4150E94811570F3959FC1F3950FC5
:102B900050E0551F629FF001729FBB27F00DB11DE1
:102BA000639FAA27F00DB11DAA1F649F6627B00D71
:102BB000A11D661F829F2227B00DA11D621F739F5A
:102BC000B00DA11D621F839FA00D611D221F749F68
:102BD0003327A00D611D231F849F600D211D822FAF
:102BE000762F6A2F11249F5750409AF0F1F08823D6
:102BF0004AF0EE0FFF1FBB1F661F771F881F915003
:102C00005040A9F79E3F510580F00C9459150C9443
:102C1000A4155F3FE4F3983ED4F3869577956795C6
:102C2000B795F795E7959F5FC1F7FE2B880F911D2C
:102C30009695879597F90895990F0008550FAA0B57
:102C4000E0E8FEEF16161706E807F907C0F01216BF
:102C50001306E407F50798F0621B730B840B950BC2
:102C600039F40A2661F0232B242B252B21F4089517
:102C70000A2609F4A140A6958FEF811D811D0895B4
:102C8000EE0FFF1F881F8BBF0790F691E02D199460
:102C90006927962769277827872778270895002EA0
:102CA000083090F0982F872F762F652F542F432FC1
:102CB000322F22270850F4CF220F331F441F551FF5
:102CC000661F771F881F991F0A95B2F7002D089578
:102CD00097FD1094002E083098F00850232F342FC1
:102CE000452F562F672F782F892F912DF4CF1594CC
:102CF0009795879577956795579547953795279534
:0E2D00000A95AAF71124002D0895F894FFCF2C
:102D0E001104740300000000CD040A0450041A05D7
:102D1E0081045F04730400000000DD05D205EE059A
:102D2E00A805CB05B805A905000000002406370646
:102D3E002C062D060D0A00544D4332323039202315
:102D4E00200020697320757020616E642072756E8C
:102D5E006E696E67200A00206973206E6F7420639F
:102D6E006F6D6D756E69636174696E67200A0054CC
:102D7E004D4334323920697320757020616E6420A2
:102D8E00636F6D6D756E69636174696E6700486F10
:102D9E006D696E672070726F6365647572652073FE
:102DAE0074617274696E672E2E2E00544D43343248
:102DBE0039206973206E6F7420636F6D6D756E6947
:082DCE00636174696E67000087
:00000001FF
