:1030000039C0000052C0000050C000004EC0000097
:103010004CC000004AC0000048C0000046C000008C
:1030200044C0000042C0000040C00000A2C4000034
:103030003CC000003AC0000038C0000036C00000AC
:1030400034C0000032C0000030C000002EC00000BC
:103050002CC000002AC0000028C0000026C00000CC
:1030600024C0000022C0000020C000001EC00000DC
:103070001CC0000011241FBECFEFD2E0DEBFCDBFC9
:1030800011E0A0E0B1E0E2E5FCE302C005900D92A2
:10309000AA36B107D9F721E0AAE6B1E001C01D9236
:1030A000A938B207E1F72DD1C8C5AACF815080F069
:1030B0009091F20091110DC09091E8009B7F909348
:1030C000E8009091E80092FDF1CF9EB39111F9CF05
:1030D00008959091F100EACFE3E7F1E082819381D6
:1030E000582F492F848195819827892798275093B5
:1030F0006D0140936C0190936B0180936A01089578
:10310000CF93DF9300D000D000D0CDB7DEB7809151
:103110007301843009F45CC068F48130E9F08330D5
:10312000A1F126960FB6F894DEBF0FBECDBFDF919A
:10313000CF910895853009F49BC0863091F7809136
:103140007401833071F7809175018111EACF80910C
:10315000760180936E01E5CF80917401823008F78B
:10316000BBDF8091740181110CC080916C01909142
:103170006D0123E0FC0120935700E89507B600FCA1
:10318000FDCF85E080930001CCCF80917401982F12
:103190009D7F19F4A1DF89E0F5CF813009F0C1CF1F
:1031A000F0E0E0E084918F3F69F010926E01F093BF
:1031B0006D01E0936C018AE08093000185E08093CB
:1031C0007101AFCF3196E11520E3F20759F7A9CF8E
:1031D00080917401833051F581E080937201809178
:1031E00075012091790130917A01232B79F081309A
:1031F00009F097CF809177019091780198278927DE
:1032000098279093700180936F018BCF81110BC031
:1032100088E19CE00FB6F894A895809360000FBEFB
:10322000909360007ECF109201017BCF811179CF06
:10323000809175018F3F09F074CFF0E0E0E083E00A
:1032400095E080935700E89507B600FCFDCF90937A
:103250005700E89507B600FCFDCFE058FF4FE11599
:1032600020E3F20771F781E180935700E89559CF89
:103270008091610190916201A09163018C839D8393
:10328000AE838091650190916601A0916701898369
:103290009A83AB83E091750180917401811107C01D
:1032A000EC0FFD2FF11D848180937E013ACF813098
:1032B00009F037CF81ED9FEF8C0F9D1F8E0F911D71
:1032C000FC018081F1CF84B7877F84BF0FB6F8946B
:1032D000A8958091600088618093600010926000E2
:1032E0000FBE81E085BF82E085BF8AB180638AB965
:1032F0008BB180638BB91CC320D381E085BF15BE21
:103300000895E1DF78948091010181110AC08091D4
:103310007201811106C0F0DFE0916F01F091700140
:10332000099567D4F0CF7F928F929F92AF92BF9210
:10333000CF92DF92EF92FF920F931F93CF93DF9381
:10334000809187019091880190937A01809379010F
:1033500080917B01882341F080917B018150809393
:103360007B01811101C05D9A80917C01882341F02D
:1033700080917C01815080937C01811101C05C9A15
:1033800080918201843009F4CDC1B0F4823009F417
:1033900022C1833009F4B0C18130F1F0DF91CF91C7
:1033A0001F910F91FF90EF90DF90CF90BF90AF9063
:1033B0009F908F907F900895853009F4BBC186302F
:1033C00069F78091E800877F8093E8005D9A5C9AB6
:1033D00082E0809300012BC05C9883E080937C01A5
:1033E0008091E800877F8093E800809172018823B4
:1033F00029F086DE5D9A5C9A1092720180917901C3
:1034000090917A01009729F580910001853051F45F
:103410008091790190917A01892B09F03FC082E077
:10342000809300018091E8008B7F8093E800DF911A
:10343000CF911F910F91FF90EF90DF90CF90BF90B1
:10344000AF909F908F907F90C7C12EB3222309F435
:10345000A5CF2091E80022FFF8CF2091F100209322
:103460007301019790937A0180937901E4E7F1E089
:103470008091F200882381F08091F1008193809106
:10348000790190917A01019790937A018093790163
:1034900021E0E937F20761F733DEB6CF8AE106DED5
:1034A00080916C018F7102DE40916C0150916D0131
:1034B000C0916A01D0916B012196C41BD50B20915C
:1034C0007401211178C0D695C795CA0130916E015B
:1034D000A32FB0E04A0111E005E033E0732EAE0106
:1034E00041505109CD2B79F480916A0190916B0183
:1034F00090936D0180936C0181E180935700E89572
:1035000080E1D4DD8FCF3091F200332369F1E09177
:10351000F1003091F1006E2F732FFC010B0110931D
:103520005700E89511242F5F6C017D01F2E0CF0E6A
:10353000D11CE11CF11CD701C601203411F5F401A6
:1035400000935700E89507B600FCFDCF41155105E3
:10355000D9F0F60170925700E89537B7232F217004
:1035600030FDFBCF460110C03091E8003B7F309327
:10357000E8003091E80032FDCACF3EB33111F9CFF7
:103580000DCF41155105D9F2EA01A9CF8091F20082
:103590008823A1F021976091F10080916C019091B6
:1035A0006D013DD380916C0190916D0101969093D6
:1035B0006D0180936C01209749F7A2CF8091E800BC
:1035C0008B7F8093E8008091E80082FDE3CF8EB38B
:1035D0008111F9CFE3CE8091E800877F8093E800E6
:1035E0005D9883E080937B018091E80080FF16C0A6
:1035F000809100018930C9F08A30A1F48091740172
:10360000813081F490916C0180916D019093F10073
:103610008093F1008091E8008E7F07CF8EB38111F7
:10362000E3CFBCCE80917E01F3CF20916C0130912D
:103630006D01C0916A01D0916B012196C21BD30B21
:1036400080917401811131C0D695C795C90120912F
:103650006E01A22FB0E0219760F480916A019091F1
:103660006B0190936D0180936C0182E08093000167
:10367000D1CF2091F200203259F0FC0125913491F4
:103680002093F1003093F1000296A11DB11DE3CF0C
:103690002091E8002E7F2093E8002091E80020FD93
:1036A000ECCF2EB32111F9CF79CE8230F1F62097ED
:1036B000E1F28091F200803291F080916C01909162
:1036C0006D01A5D28093F10080916C0190916D0104
:1036D000019690936D0180936C012197E8CF8091C2
:1036E000E8008E7F8093E8008091E80080FDE5CFC0
:1036F0008EB38111F9CF52CE8091E800877F8093FD
:10370000E800809171018093F1001092F100109215
:10371000F1001092F100809100018093F10010926D
:10372000F10078CF8091E800877F8093E8001092C5
:1037300071017DCE8091E800877F8093E8008091C1
:10374000000166CFFA01292F30E022303105D9F08F
:103750002330310551F021303105D1F482E190E080
:103760002FE431E0318320830895811106C08091D8
:10377000300190E020E331E0F5CF8091020190E04C
:1037800022E031E0EFCF8BE190E024E331E0EACFBB
:1037900090E080E030E020E0E5CFEBEEF0E08081EB
:1037A00081608083EDEEF0E010826093EC00408356
:1037B0008091EE00881F8827881F08951092F400DA
:1037C0001092F0001092E8001092ED00EBEEF0E0A5
:1037D00080818E7F808308958091810187FF11C051
:1037E0008091E80082FF06C08091E8008B7F809383
:1037F000E80003C08EB38111F3CF08958EB3882300
:10380000E1F38091E80080FFF9CF8091E8008E7F9E
:10381000EECF9B01409187015091880146175707D1
:1038200098F0672B29F44091E8004E7F4093E80020
:1038300050E02115310551F4511108C08091E80084
:1038400082FF30C080E008959A01F2CF4091E800F5
:1038500043FD30C04091E80042FDF0CF4EB3442319
:1038600059F14EB3453021F14091E80040FFE1CFDE
:103870004091F2002115310511F0403250F051E035
:10388000403209F050E04091E8004E7F4093E8005C
:10389000D0CFFC0181918093F100215031094F5F1D
:1038A000CF01E8CF8EB3882339F08EB3853031F65F
:1038B00083E0089581E0089582E0089554D056D0C1
:1038C0001EBA10927F0184E089BD89B5826089BDEE
:1038D00009B400FEFDCF8091D800982F9F77909378
:1038E000D80080688093D800809163008E7F809399
:1038F00063008091D8008F7D8093D8008091E00094
:103900008E7F8093E0008091E1008E7F8093E100C4
:103910008091E20081608093E2008091E100877FE6
:103920008093E1008091E20088608093E200089536
:10393000C5DF81E0809380010895C0DFE0EEF0E014
:10394000808181608083E8EDF0E080818F778083E3
:103950000AD00CD019BCE3E6F0E08081816080835E
:103960001092800108951092E20008951092E100F3
:1039700008951F920F920FB60F9211242F933F9329
:103980004F935F936F937F938F939F93AF93BF9367
:10399000EF93FF938091E10080FF1BC08091E200D4
:1039A00080FF17C08091E1008E7F8093E1008091BD
:1039B000E2008E7F8093E2008091E200806180933C
:1039C000E2008091D80080628093D80019BC1EBAB2
:1039D0000FD18091E10084FF27C08091E20084FF35
:1039E00023C084E089BD89B5826089BD09B400FE29
:1039F000FDCF8091D8008F7D8093D8008091E10029
:103A00008F7E8093E1008091E2008F7E8093E200C0
:103A10008091E20081608093E20080917F018111BA
:103A200048C081E08EBBE4D08091E10083FF22C0DA
:103A30008091E20083FF1EC08091E100877F809328
:103A4000E10082E08EBB10927F018091E1008E7FC9
:103A50008093E1008091E2008E7F8093E20080916C
:103A6000E20080618093E200A9DE42E260E080E053
:103A700094DEBED08091E10082FF0AC08091E20016
:103A800082FF06C08091E1008B7F8093E100B0D07F
:103A9000FF91EF91BF91AF919F918F917F916F9126
:103AA0005F914F913F912F910F900FBE0F901F90FC
:103AB000189584E0B7CF1F93CF93DF9300D0CDB795
:103AC000DEB781E891E0FC0101962091F1002083AE
:103AD00021E089389207B9F780918101E091820154
:103AE000EA30E8F4F0E0E15EF14E8BC08D7F803883
:103AF000B1F48091E80083FF0AC08091EB008062FE
:103B00008093EB008091E800877F8093E8000F901E
:103B10000F90DF91CF911F9108958D7F51F303DCBA
:103B2000E8CF8111FCCF109183018091E800877F5D
:103B30008093E80051DE8091E80080FF0AC0812F69
:103B40008F7792E009F093E09EBB80688093E3005A
:103B5000D0CF8EB38111EFCFCCCF80588230F8F622
:103B6000AE014F5F5F4F609185018091830190911D
:103B70008401E8DDBC01892B09F4BBCF8091E8000A
:103B8000877F8093E80089819A8143DE8091E800F5
:103B90008B7F8093E800ADCF803809F0C0CF809153
:103BA000E800877F8093E80080917F018093F10097
:103BB0008091E8008E7F8093E8000EDE9ACF81111D
:103BC000AECF90918301923008F093CF8091E800BE
:103BD000877F8093E80090937F01FEDD80917F01D5
:103BE000811104C083E08EBB03D083CF84E0FBCF80
:103BF00008958EB3882321F08091E80083FD5BCF88
:103C00000895EE0FFF1F0590F491E02D0994F999A6
:103C1000FECF92BD81BDF89A992780B50895262FD1
:103C2000F999FECF1FBA92BD81BD20BD0FB6F894A1
:103C3000FA9AF99A0FBE01960895F894FFCF761D6F
:103C40008D1D8F1D8D1D8F1D911DAD1D8F1DCC1DBB
:023C5000DF1D76
:103C520002012C03410072006400750069006E00CD
:103C62006F0020004D0065006700610020003200F7
:103C720035003600300020004400460055000000A8
:103C82000403090409021B00010100803209040037
:103C92000000FE0102000921030000000C000112D5
:103CA20001100100000020EB03EF2F0000000100D3
:0A3CB2000120DCFB001E94890000D5
:0400000300003000C9
:00000001FF
